{
  "contractName": "FakeNewsMarket",
  "abi": [
    {
      "constant": true,
      "inputs": [],
      "name": "creator",
      "outputs": [
        {
          "name": "",
          "type": "address"
        }
      ],
      "payable": false,
      "stateMutability": "view",
      "type": "function"
    },
    {
      "constant": true,
      "inputs": [
        {
          "name": "",
          "type": "address"
        }
      ],
      "name": "reporters",
      "outputs": [
        {
          "name": "voted",
          "type": "bool"
        },
        {
          "name": "vote",
          "type": "uint256"
        },
        {
          "name": "weight",
          "type": "uint256"
        },
        {
          "name": "reputation",
          "type": "uint256"
        }
      ],
      "payable": false,
      "stateMutability": "view",
      "type": "function"
    },
    {
      "constant": true,
      "inputs": [
        {
          "name": "",
          "type": "address"
        }
      ],
      "name": "voters",
      "outputs": [
        {
          "name": "voted",
          "type": "bool"
        },
        {
          "name": "vote",
          "type": "uint256"
        }
      ],
      "payable": false,
      "stateMutability": "view",
      "type": "function"
    },
    {
      "constant": true,
      "inputs": [],
      "name": "articleHash",
      "outputs": [
        {
          "name": "",
          "type": "bytes32"
        }
      ],
      "payable": false,
      "stateMutability": "view",
      "type": "function"
    },
    {
      "inputs": [
        {
          "name": "_article",
          "type": "string"
        }
      ],
      "payable": false,
      "stateMutability": "nonpayable",
      "type": "constructor"
    },
    {
      "constant": false,
      "inputs": [
        {
          "name": "reporter",
          "type": "address"
        }
      ],
      "name": "assignReporter",
      "outputs": [],
      "payable": false,
      "stateMutability": "nonpayable",
      "type": "function"
    },
    {
      "constant": false,
      "inputs": [
        {
          "name": "_vote",
          "type": "uint256"
        },
        {
          "name": "_amount",
          "type": "uint256"
        }
      ],
      "name": "report",
      "outputs": [],
      "payable": false,
      "stateMutability": "nonpayable",
      "type": "function"
    },
    {
      "constant": false,
      "inputs": [
        {
          "name": "_vote",
          "type": "uint256"
        },
        {
          "name": "_amount",
          "type": "uint256"
        }
      ],
      "name": "vote",
      "outputs": [],
      "payable": false,
      "stateMutability": "nonpayable",
      "type": "function"
    },
    {
      "constant": true,
      "inputs": [],
      "name": "winningReport",
      "outputs": [
        {
          "name": "winningReport_",
          "type": "uint256"
        }
      ],
      "payable": false,
      "stateMutability": "view",
      "type": "function"
    }
  ],
  "bytecode": "0x6080604052606060405190810160405280600060ff168152602001600060ff168152602001600060ff16815250600490600361003c929190610159565b50606060405190810160405280600060ff168152602001600060ff168152602001600060ff168152506007906003610075929190610159565b5034801561008257600080fd5b50604051610a31380380610a318339810180604052810190808051820192919050505033600160006101000a81548173ffffffffffffffffffffffffffffffffffffffff021916908373ffffffffffffffffffffffffffffffffffffffff160217905550806040518082805190602001908083835b60208310151561011c57805182526020820191506020810190506020830392506100f7565b6001836020036101000a038019825116818451168082178552505050505050905001915050604051809103902060008160001916905550506101c3565b826003810192821561018d579160200282015b8281111561018c578251829060ff1690559160200191906001019061016c565b5b50905061019a919061019e565b5090565b6101c091905b808211156101bc5760008160009055506001016101a4565b5090565b90565b61085f806101d26000396000f30060806040526004361061008e576000357c0100000000000000000000000000000000000000000000000000000000900463ffffffff16806302d05d3f146100935780632c425d4c146100ea5780632cc1cd9e14610115578063753c0985146101855780639c309e2d146101bc578063a3ec138d146101ff578063b384abef14610261578063cd31c91414610298575b600080fd5b34801561009f57600080fd5b506100a86102cb565b604051808273ffffffffffffffffffffffffffffffffffffffff1673ffffffffffffffffffffffffffffffffffffffff16815260200191505060405180910390f35b3480156100f657600080fd5b506100ff6102f1565b6040518082815260200191505060405180910390f35b34801561012157600080fd5b50610156600480360381019080803573ffffffffffffffffffffffffffffffffffffffff169060200190929190505050610348565b604051808515151515815260200184815260200183815260200182815260200194505050505060405180910390f35b34801561019157600080fd5b506101ba6004803603810190808035906020019092919080359060200190929190505050610385565b005b3480156101c857600080fd5b506101fd600480360381019080803573ffffffffffffffffffffffffffffffffffffffff16906020019092919050505061049c565b005b34801561020b57600080fd5b50610240600480360381019080803573ffffffffffffffffffffffffffffffffffffffff1690602001909291905050506106e8565b60405180831515151581526020018281526020019250505060405180910390f35b34801561026d57600080fd5b506102966004803603810190808035906020019092919080359060200190929190505050610719565b005b3480156102a457600080fd5b506102ad61082d565b60405180826000191660001916815260200191505060405180910390f35b600160009054906101000a900473ffffffffffffffffffffffffffffffffffffffff1681565b6000806000809150600090505b6003811015610343578160078260038110151561031757fe5b015411156103365760078160038110151561032e57fe5b015491508092505b80806001019150506102fe565b505090565b60036020528060005260406000206000915090508060000160009054906101000a900460ff16908060010154908060020154908060030154905084565b6000600360003373ffffffffffffffffffffffffffffffffffffffff1673ffffffffffffffffffffffffffffffffffffffff16815260200190815260200160002090508060000160009054906101000a900460ff1615151561044f576040517f08c379a000000000000000000000000000000000000000000000000000000000815260040180806020018281038252600e8152602001807f416c726561647920766f7465642e00000000000000000000000000000000000081525060200191505060405180910390fd5b60018160000160006101000a81548160ff021916908315150217905550828160010181905550806002015460078460038110151561048957fe5b0160008282540192505081905550505050565b600160009054906101000a900473ffffffffffffffffffffffffffffffffffffffff1673ffffffffffffffffffffffffffffffffffffffff163373ffffffffffffffffffffffffffffffffffffffff16141515610587576040517f08c379a00000000000000000000000000000000000000000000000000000000081526004018080602001828103825260228152602001807f4f6e6c792063726561746f722063616e2061737369676e207265706f7274657281526020017f732e00000000000000000000000000000000000000000000000000000000000081525060400191505060405180910390fd5b600360008273ffffffffffffffffffffffffffffffffffffffff1673ffffffffffffffffffffffffffffffffffffffff16815260200190815260200160002060000160009054906101000a900460ff1615151561064c576040517f08c379a000000000000000000000000000000000000000000000000000000000815260040180806020018281038252601b8152602001807f546865207265706f7274657220616c726561647920766f7465642e000000000081525060200191505060405180910390fd5b6000600360008373ffffffffffffffffffffffffffffffffffffffff1673ffffffffffffffffffffffffffffffffffffffff1681526020019081526020016000206002015414151561069d57600080fd5b6001600360008373ffffffffffffffffffffffffffffffffffffffff1673ffffffffffffffffffffffffffffffffffffffff1681526020019081526020016000206002018190555050565b60026020528060005260406000206000915090508060000160009054906101000a900460ff16908060010154905082565b6000600260003373ffffffffffffffffffffffffffffffffffffffff1673ffffffffffffffffffffffffffffffffffffffff16815260200190815260200160002090508060000160009054906101000a900460ff161515156107e3576040517f08c379a000000000000000000000000000000000000000000000000000000000815260040180806020018281038252600e8152602001807f416c726561647920766f7465642e00000000000000000000000000000000000081525060200191505060405180910390fd5b60018160000160006101000a81548160ff021916908315150217905550828160010181905550600160048460038110151561081a57fe5b0160008282540192505081905550505050565b600054815600a165627a7a723058208d2cacee20cbdd904d64466c7d4e2f5661a9a7f5f957925352b033242cc309e90029",
  "source": "pragma solidity ^0.4.22;\n\ncontract FakeNewsMarket {\n\n    struct Voter {\n        bool voted;  // if true, that person already voted\n        uint vote;   // 0,1,2\n    }\n\n    struct Reporter {\n        bool voted;  // if true, that person already voted\n        uint vote;   // 0,1,2\n        uint weight;\n        uint reputation;\n    }\n\n    bytes32 public articleHash;\n    //uint256 public votingPeriod;\n    address public creator;\n\n    mapping(address => Voter) public voters;\n    mapping(address => Reporter) public reporters;\n\n    uint256[3] votes = [0,0,0];\n    uint256[3] reports = [0,0,0];\n\n    function FakeNewsMarket(string _article) public {\n        creator = msg.sender;\n        articleHash =  keccak256(_article);\n        //votingPeriod = now + 1 days;\n    }\n\n    function assignReporter(address reporter) public {\n        require(\n            msg.sender == creator,\n            \"Only creator can assign reporters.\"\n        );\n        require(\n            !reporters[reporter].voted,\n            \"The reporter already voted.\"\n        );\n        require(reporters[reporter].weight == 0);\n        reporters[reporter].weight = 1;\n    }\n\n    function report(uint _vote, uint256 _amount) public {\n        Reporter storage reporter = reporters[msg.sender];\n        require(!reporter.voted, \"Already voted.\");\n        reporter.voted = true;\n        reporter.vote = _vote;\n        reports[_vote] += reporter.weight;\n    }\n\n    function vote(uint _vote, uint256 _amount) public {\n        Voter storage sender = voters[msg.sender];\n        require(!sender.voted, \"Already voted.\");\n        sender.voted = true;\n        sender.vote = _vote;\n        votes[_vote] += 1;\n    }\n\n    function winningReport() public view\n            returns (uint winningReport_)\n    {\n        uint winningVoteCount = 0;\n        for (uint p = 0; p < reports.length; p++) {\n            if (reports[p] > winningVoteCount) {\n                winningVoteCount = reports[p];\n                winningReport_ = p;\n            }\n        }\n    }\n\n}\n",
  "sourcePath": "/home/avgupta/spring_1718/cs359B/cs359b-fake-news-detector/fnd/contracts/voting.sol",
  "compiler": {
    "name": "solc",
    "version": "0.4.23+commit.124ca40d.Emscripten.clang"
  },
  "schemaVersion": "2.0.0",
  "updatedAt": "2018-05-10T03:52:17.623Z"
}