{
  "contractName": "FakeNewsMarket",
  "abi": [
    {
      "constant": true,
      "inputs": [
        {
          "name": "",
          "type": "uint256"
        }
      ],
      "name": "markets",
      "outputs": [
        {
          "name": "articleHash",
          "type": "bytes32"
        },
        {
          "name": "creator",
          "type": "address"
        }
      ],
      "payable": false,
      "stateMutability": "view",
      "type": "function"
    },
    {
      "constant": true,
      "inputs": [
        {
          "name": "_article",
          "type": "string"
        }
      ],
      "name": "createArticleMarket",
      "outputs": [
        {
          "name": "success",
          "type": "bool"
        }
      ],
      "payable": false,
      "stateMutability": "view",
      "type": "function"
    },
    {
      "constant": true,
      "inputs": [
        {
          "name": "_article",
          "type": "string"
        }
      ],
      "name": "articleExists",
      "outputs": [
        {
          "name": "exists",
          "type": "bool"
        }
      ],
      "payable": false,
      "stateMutability": "view",
      "type": "function"
    }
  ],
  "bytecode": "0x608060405234801561001057600080fd5b506105bb806100206000396000f300608060405260043610610057576000357c0100000000000000000000000000000000000000000000000000000000900463ffffffff1680639d945dc41461005c578063ab592769146100dd578063b1283e771461015e575b600080fd5b34801561006857600080fd5b506100c3600480360381019080803590602001908201803590602001908080601f01602080910402602001604051908101604052809392919081815260200183838082843782019150505050505091929192905050506101da565b604051808215151515815260200191505060405180910390f35b3480156100e957600080fd5b50610144600480360381019080803590602001908201803590602001908080601f01602080910402602001604051908101604052809392919081815260200183838082843782019150505050505091929192905050506102a4565b604051808215151515815260200191505060405180910390f35b34801561016a57600080fd5b5061018960048036038101908080359060200190929190505050610472565b6040518083600019166000191681526020018273ffffffffffffffffffffffffffffffffffffffff1673ffffffffffffffffffffffffffffffffffffffff1681526020019250505060405180910390f35b6000806000836040518082805190602001908083835b60208310151561021557805182526020820191506020810190506020830392506101f0565b6001836020036101000a03801982511681845116808217855250505050505090500191505060405180910390209150600090505b60008054905081101561029c57816000191660008281548110151561026a57fe5b90600052602060002090600602016000015460001916141561028f576001925061029d565b8080600101915050610249565b5b5050919050565b60008060008054905090506000608060405190810160405280856040518082805190602001908083835b6020831015156102f357805182526020820191506020810190506020830392506102ce565b6001836020036101000a03801982511681845116808217855250505050505090500191505060405180910390206000191681526020013373ffffffffffffffffffffffffffffffffffffffff168152602001606060405190810160405280600060ff168152602001600060ff168152602001600060ff168152508152602001606060405190810160405280600060ff168152602001600060ff168152602001600060ff16815250815250908060018154018082558091505090600182039060005260206000209060060201600090919290919091506000820151816000019060001916905560208201518160010160006101000a81548173ffffffffffffffffffffffffffffffffffffffff021916908373ffffffffffffffffffffffffffffffffffffffff1602179055506040820151816004019060036104369291906104c5565b5060608201518160050190600361044e9291906104c5565b5050505060018101600080549050141561046b576001915061046c565b5b50919050565b60008181548110151561048157fe5b90600052602060002090600602016000915090508060000154908060010160009054906101000a900473ffffffffffffffffffffffffffffffffffffffff16905082565b826003601f0160209004810192821561054e5791602002820160005b8382111561051f57835183826101000a81548160ff021916908360ff16021790555092602001926001016020816000010492830192600103026104e1565b801561054c5782816101000a81549060ff021916905560010160208160000104928301926001030261051f565b505b50905061055b919061055f565b5090565b61058c91905b8082111561058857600081816101000a81549060ff021916905550600101610565565b5090565b905600a165627a7a72305820ca862c5e0cc3a0364d550f90b64ee4201686f838a87b620b55761986656ab64e0029",
  "source": "pragma solidity ^0.4.22;\n\ncontract FakeNewsMarket {\n\n    struct Voter {\n        bool voted;  // if true, that person already voted\n        uint vote;   // 0,1,2\n    }\n\n    struct Reporter {\n        bool voted;  // if true, that person already voted\n        uint vote;   // 0,1,2\n        uint weight;\n        uint reputation;\n    }\n\n    struct ArticleMarket{\n        bytes32 articleHash;\n        address creator;\n        //uint256 votingPeriod;\n        mapping(address => Voter) voters;\n        mapping(address => Reporter) reporters;\n        uint8[3] votes;\n        uint8[3] reports;\n    }\n\n    ArticleMarket[] public markets;\n\n    function createArticleMarket(string _article) public view returns (bool success){\n      uint256 initLen = markets.length;\n      markets.push(ArticleMarket({\n          articleHash: keccak256(_article),\n          creator: msg.sender,\n          votes: [0,0,0],\n          reports: [0,0,0]\n      }));\n      if (markets.length == initLen + 1){\n        return true;\n      }\n    }\n\n    function articleExists(string _article) public view returns (bool exists) {\n      bytes32 hash = keccak256(_article);\n      for (uint i=0; i < markets.length; i++) {\n        if (markets[i].articleHash == hash) {\n          return true;\n        }\n      }\n    }\n\n}\n",
  "sourcePath": "/home/avgupta/spring_1718/cs359B/cs359b-fake-news-detector/fnd/contracts/FakeNewsMarket.sol",
  "compiler": {
    "name": "solc",
    "version": "0.4.23+commit.124ca40d.Emscripten.clang"
  },
  "schemaVersion": "2.0.0",
  "updatedAt": "2018-05-14T01:40:04.464Z"
}