{
  "contractName": "FakeNewsMarket",
  "abi": [
    {
      "constant": true,
      "inputs": [
        {
          "name": "",
          "type": "uint256"
        }
      ],
      "name": "markets",
      "outputs": [
        {
          "name": "articleHash",
          "type": "bytes32"
        }
      ],
      "payable": false,
      "stateMutability": "view",
      "type": "function"
    },
    {
      "constant": true,
      "inputs": [
        {
          "name": "_article",
          "type": "string"
        }
      ],
      "name": "createArticleMarket",
      "outputs": [
        {
          "name": "success",
          "type": "bool"
        }
      ],
      "payable": false,
      "stateMutability": "view",
      "type": "function"
    },
    {
      "constant": true,
      "inputs": [
        {
          "name": "_article",
          "type": "string"
        }
      ],
      "name": "articleExists",
      "outputs": [
        {
          "name": "exists",
          "type": "bool"
        }
      ],
      "payable": false,
      "stateMutability": "view",
      "type": "function"
    }
  ],
  "bytecode": "0x608060405234801561001057600080fd5b5061039f806100206000396000f300608060405260043610610057576000357c0100000000000000000000000000000000000000000000000000000000900463ffffffff1680639d945dc41461005c578063ab592769146100dd578063b1283e771461015e575b600080fd5b34801561006857600080fd5b506100c3600480360381019080803590602001908201803590602001908080601f01602080910402602001604051908101604052809392919081815260200183838082843782019150505050505091929192905050506101a7565b604051808215151515815260200191505060405180910390f35b3480156100e957600080fd5b50610144600480360381019080803590602001908201803590602001908080601f016020809104026020016040519081016040528093929190818152602001838380828437820191505050505050919291929050505061026d565b604051808215151515815260200191505060405180910390f35b34801561016a57600080fd5b506101896004803603810190808035906020019092919050505061034a565b60405180826000191660001916815260200191505060405180910390f35b6000806000836040518082805190602001908083835b6020831015156101e257805182526020820191506020810190506020830392506101bd565b6001836020036101000a03801982511681845116808217855250505050505090500191505060405180910390209150600090505b60008054905081101561026557816000191660008281548110151561023757fe5b90600052602060002001600001546000191614156102585760019250610266565b8080600101915050610216565b5b5050919050565b60008060008054905090506000602060405190810160405280856040518082805190602001908083835b6020831015156102bc5780518252602082019150602081019050602083039250610297565b6001836020036101000a038019825116818451168082178552505050505050905001915050604051809103902060001916815250908060018154018082558091505090600182039060005260206000200160009091929091909150600082015181600001906000191690555050506001810160008054905014156103435760019150610344565b5b50919050565b60008181548110151561035957fe5b9060005260206000200160009150905080600001549050815600a165627a7a72305820470536bb94f9b68f6cbd6d582a90692d32632716e9353a80a49d51825d0c9ea30029",
  "source": "pragma solidity ^0.4.22;\n\ncontract FakeNewsMarket {\n\n    //struct Voter {\n    //    bool voted;  // if true, that person already voted\n    //    uint vote;   // 0,1,2\n    //}\n\n    //struct Reporter {\n    //    bool voted;  // if true, that person already voted\n    //    uint vote;   // 0,1,2\n    //    uint weight;\n    //    uint reputation;\n    //}\n\n    struct ArticleMarket{\n        bytes32 articleHash;\n        //address creator;\n        //uint256 votingPeriod;\n        //mapping(address => Voter) voters;\n        //mapping(address => Reporter) reporters;\n        //uint8[3] votes;\n        //uint8[3] reports;\n    }\n\n    ArticleMarket[] public markets;\n\n    function createArticleMarket(string _article) public view returns (bool success){\n      uint256 initLen = markets.length;\n      markets.push(ArticleMarket({\n          articleHash: keccak256(_article)\n      }));\n      if (markets.length == initLen + 1){\n        return true;\n      }\n    }\n\n    function articleExists(string _article) public view returns (bool exists) {\n      bytes32 hash = keccak256(_article);\n      for (uint i=0; i < markets.length; i++) {\n        if (markets[i].articleHash == hash) {\n          return true;\n        }\n      }\n    }\n\n}\n",
  "sourcePath": "/home/avgupta/spring_1718/cs359B/cs359b-fake-news-detector/fnd/contracts/FakeNewsMarket.sol",
  "compiler": {
    "name": "solc",
    "version": "0.4.23+commit.124ca40d.Emscripten.clang"
  },
  "schemaVersion": "2.0.0",
  "updatedAt": "2018-05-13T21:22:33.736Z"
}