{
  "contractName": "FakeNewsMarketDeprecated",
  "abi": [
    {
      "constant": false,
      "inputs": [
        {
          "name": "_article",
          "type": "string"
        }
      ],
      "name": "FakeNewsMarket",
      "outputs": [],
      "payable": false,
      "stateMutability": "nonpayable",
      "type": "function"
    },
    {
      "constant": false,
      "inputs": [
        {
          "name": "_vote",
          "type": "uint256"
        }
      ],
      "name": "voteOnArticle",
      "outputs": [],
      "payable": false,
      "stateMutability": "nonpayable",
      "type": "function"
    }
  ],
  "bytecode": "0x608060405234801561001057600080fd5b5061028d806100206000396000f30060806040526004361061004c576000357c0100000000000000000000000000000000000000000000000000000000900463ffffffff168063278086c214610051578063c5f58056146100ba575b600080fd5b34801561005d57600080fd5b506100b8600480360381019080803590602001908201803590602001908080601f01602080910402602001604051908101604052809392919081815260200183838082843782019150505050505091929192905050506100e7565b005b3480156100c657600080fd5b506100e5600480360381019080803590602001909291905050506101a4565b005b33600160006101000a81548173ffffffffffffffffffffffffffffffffffffffff021916908373ffffffffffffffffffffffffffffffffffffffff160217905550806040518082805190602001908083835b60208310151561015e5780518252602082019150602081019050602083039250610139565b6001836020036101000a03801982511681845116808217855250505050505090500191505060405180910390206002816000191690555062015180420160038190555050565b600081101580156101b55750600381105b15156101c057600080fd5b600160009054906101000a900473ffffffffffffffffffffffffffffffffffffffff1673ffffffffffffffffffffffffffffffffffffffff163373ffffffffffffffffffffffffffffffffffffffff161415151561021d57600080fd5b806000803373ffffffffffffffffffffffffffffffffffffffff1673ffffffffffffffffffffffffffffffffffffffff1681526020019081526020016000205050505600a165627a7a723058209efab4c663a4a5309526b9b4a2da885f0676f87998cc9b704c699389a518d6020029",
  "source": "pragma solidity ^0.4.21;\n\ncontract FakeNewsMarketDeprecated {\n mapping (address => uint256) votes;\n address creator;\n bytes32 article;\n uint256 votingPeriod;\n\n function FakeNewsMarket(string _article) public {\n   creator = msg.sender;\n   article = keccak256(_article);\n   votingPeriod = now + 1 days; //arbitrarily set to one day\n }\n\n function voteOnArticle(uint256 _vote) public{\n   require(_vote >= 0 && _vote < 3);\n   require(msg.sender != creator);\n   votes[msg.sender] == _vote;\n\n }\n}\n",
  "sourcePath": "/home/avgupta/spring_1718/cs359B/cs359b-fake-news-detector/fnd/contracts/fnd.sol",
  "compiler": {
    "name": "solc",
    "version": "0.4.23+commit.124ca40d.Emscripten.clang"
  },
  "schemaVersion": "2.0.0",
  "updatedAt": "2018-05-10T03:52:39.517Z"
}