{
  "contractName": "FakeNewsMarket",
  "abi": [
    {
      "constant": true,
      "inputs": [
        {
          "name": "",
          "type": "bytes32"
        }
      ],
      "name": "markets",
      "outputs": [
        {
          "name": "creator",
          "type": "address"
        },
        {
          "name": "deadline",
          "type": "uint256"
        },
        {
          "name": "is_open",
          "type": "bool"
        }
      ],
      "payable": false,
      "stateMutability": "view",
      "type": "function"
    },
    {
      "constant": false,
      "inputs": [
        {
          "name": "_article",
          "type": "string"
        },
        {
          "name": "_deadline",
          "type": "uint256"
        }
      ],
      "name": "createArticleMarket",
      "outputs": [
        {
          "name": "",
          "type": "uint256"
        }
      ],
      "payable": false,
      "stateMutability": "nonpayable",
      "type": "function"
    },
    {
      "constant": false,
      "inputs": [
        {
          "name": "_article",
          "type": "string"
        },
        {
          "name": "_vote",
          "type": "uint256"
        }
      ],
      "name": "vote",
      "outputs": [
        {
          "name": "success",
          "type": "bool"
        }
      ],
      "payable": true,
      "stateMutability": "payable",
      "type": "function"
    },
    {
      "constant": false,
      "inputs": [
        {
          "name": "_article",
          "type": "string"
        },
        {
          "name": "_vote",
          "type": "uint256"
        },
        {
          "name": "_rep",
          "type": "uint256"
        }
      ],
      "name": "report",
      "outputs": [],
      "payable": false,
      "stateMutability": "nonpayable",
      "type": "function"
    },
    {
      "constant": false,
      "inputs": [
        {
          "name": "_address",
          "type": "address"
        },
        {
          "name": "email",
          "type": "string"
        }
      ],
      "name": "addReporter",
      "outputs": [],
      "payable": false,
      "stateMutability": "nonpayable",
      "type": "function"
    },
    {
      "constant": false,
      "inputs": [],
      "name": "assignReporters",
      "outputs": [
        {
          "name": "assigned",
          "type": "address[10]"
        }
      ],
      "payable": false,
      "stateMutability": "nonpayable",
      "type": "function"
    },
    {
      "constant": false,
      "inputs": [
        {
          "name": "_article",
          "type": "string"
        }
      ],
      "name": "closeMarket",
      "outputs": [],
      "payable": false,
      "stateMutability": "nonpayable",
      "type": "function"
    },
    {
      "constant": true,
      "inputs": [
        {
          "name": "_article",
          "type": "string"
        }
      ],
      "name": "articleExists",
      "outputs": [
        {
          "name": "exists",
          "type": "bool"
        }
      ],
      "payable": false,
      "stateMutability": "view",
      "type": "function"
    },
    {
      "constant": true,
      "inputs": [
        {
          "name": "_article",
          "type": "string"
        }
      ],
      "name": "getVotes",
      "outputs": [
        {
          "name": "sum_votes",
          "type": "uint256[3]"
        }
      ],
      "payable": false,
      "stateMutability": "view",
      "type": "function"
    },
    {
      "constant": true,
      "inputs": [
        {
          "name": "_article",
          "type": "string"
        }
      ],
      "name": "getBets",
      "outputs": [
        {
          "name": "sum_bets",
          "type": "uint256[3]"
        }
      ],
      "payable": false,
      "stateMutability": "view",
      "type": "function"
    }
  ],
  "bytecode": "0x608060405234801561001057600080fd5b506115fe806100206000396000f3006080604052600436106100a4576000357c0100000000000000000000000000000000000000000000000000000000900463ffffffff1680630fc26347146100a95780633717ebc2146101125780636b46dadc1461019b5780637564912b14610240578063805265e5146102c357806398617d9c146103685780639c1f4ef7146103e55780639d945dc414610438578063a6385803146104b9578063e7feba5c14610537575b600080fd5b3480156100b557600080fd5b50610110600480360381019080803590602001908201803590602001908080601f01602080910402602001604051908101604052809392919081815260200183838082843782019150505050505091929192905050506105be565b005b34801561011e57600080fd5b50610199600480360381019080803573ffffffffffffffffffffffffffffffffffffffff169060200190929190803590602001908201803590602001908080601f0160208091040260200160405190810160405280939291908181526020018383808284378201915050505050509192919290505050610658565b005b3480156101a757600080fd5b50610202600480360381019080803590602001908201803590602001908080601f0160208091040260200160405190810160405280939291908181526020018383808284378201915050505050509192919290505050610771565b6040518082600360200280838360005b8381101561022d578082015181840152602081019050610212565b5050505090500191505060405180910390f35b34801561024c57600080fd5b5061026f60048036038101908080356000191690602001909291905050506108a5565b604051808473ffffffffffffffffffffffffffffffffffffffff1673ffffffffffffffffffffffffffffffffffffffff16815260200183815260200182151515158152602001935050505060405180910390f35b3480156102cf57600080fd5b5061032a600480360381019080803590602001908201803590602001908080601f01602080910402602001604051908101604052809392919081815260200183838082843782019150505050505091929192905050506108fc565b6040518082600360200280838360005b8381101561035557808201518184015260208101905061033a565b5050505090500191505060405180910390f35b34801561037457600080fd5b506103e3600480360381019080803590602001908201803590602001908080601f01602080910402602001604051908101604052809392919081815260200183838082843782019150505050505091929192908035906020019092919080359060200190929190505050610a30565b005b3480156103f157600080fd5b506103fa610bcc565b6040518082600a60200280838360005b8381101561042557808201518184015260208101905061040a565b5050505090500191505060405180910390f35b34801561044457600080fd5b5061049f600480360381019080803590602001908201803590602001908080601f0160208091040260200160405190810160405280939291908181526020018383808284378201915050505050509192919290505050610db7565b604051808215151515815260200191505060405180910390f35b61051d600480360381019080803590602001908201803590602001908080601f016020809104026020016040519081016040528093929190818152602001838380828437820191505050505050919291929080359060200190929190505050610e8c565b604051808215151515815260200191505060405180910390f35b34801561054357600080fd5b506105a8600480360381019080803590602001908201803590602001908080601f016020809104026020016040519081016040528093929190818152602001838380828437820191505050505050919291929080359060200190929190505050611115565b6040518082815260200191505060405180910390f35b600080826040518082805190602001908083835b6020831015156105f757805182526020820191506020810190506020830392506105d2565b6001836020036101000a0380198251168184511680821785525050505050509050019150506040518091039020915060026000836000191660001916815260200190815260200160002090508060020160009054906101000a905050505050565b6000816040518082805190602001908083835b602083101515610690578051825260208201915060208101905060208303925061066b565b6001836020036101000a0380198251168184511680821785525050505050509050019150506040518091039020905060018390806001815401808255809150509060018203906000526020600020016000909192909190916101000a81548173ffffffffffffffffffffffffffffffffffffffff021916908373ffffffffffffffffffffffffffffffffffffffff16021790555050806000808573ffffffffffffffffffffffffffffffffffffffff1673ffffffffffffffffffffffffffffffffffffffff1681526020019081526020016000208160001916905550505050565b610779611459565b6000826040518082805190602001908083835b6020831015156107b1578051825260208201915060208101905060208303925061078c565b6001836020036101000a03801982511681845116808217855250505050505090500191505060405180910390209050600060026000836000191660001916815260200190815260200160002060000160009054906101000a900473ffffffffffffffffffffffffffffffffffffffff1673ffffffffffffffffffffffffffffffffffffffff16111561089e57600260008260001916600019168152602001908152602001600020600b01600380602002604051908101604052809291908260038015610892576020028201915b81548152602001906001019080831161087e575b5050505050915061089f565b5b50919050565b60026020528060005260406000206000915090508060000160009054906101000a900473ffffffffffffffffffffffffffffffffffffffff16908060010154908060020160009054906101000a900460ff16905083565b610904611459565b6000826040518082805190602001908083835b60208310151561093c5780518252602082019150602081019050602083039250610917565b6001836020036101000a03801982511681845116808217855250505050505090500191505060405180910390209050600060026000836000191660001916815260200190815260200160002060000160009054906101000a900473ffffffffffffffffffffffffffffffffffffffff1673ffffffffffffffffffffffffffffffffffffffff161115610a2957600260008260001916600019168152602001908152602001600020600501600380602002604051908101604052809291908260038015610a1d576020028201915b815481526020019060010190808311610a09575b50505050509150610a2a565b5b50919050565b6000836040518082805190602001908083835b602083101515610a685780518252602082019150602081019050602083039250610a43565b6001836020036101000a038019825116818451168082178552505050505050905001915050604051809103902090506001151560026000836000191660001916815260200190815260200160002060040160003373ffffffffffffffffffffffffffffffffffffffff1673ffffffffffffffffffffffffffffffffffffffff16815260200190815260200160002060020160009054906101000a900460ff161515141515610b1557600080fd5b6060604051908101604052808481526020018381526020016001151581525060026000836000191660001916815260200190815260200160002060040160003373ffffffffffffffffffffffffffffffffffffffff1673ffffffffffffffffffffffffffffffffffffffff168152602001908152602001600020600082015181600001556020820151816001015560408201518160020160006101000a81548160ff02191690831515021790555090505050505050565b610bd461147c565b610bdc6114a0565b6000806000806000600a6001805490501015610c9857600094505b600180549050851015610c9057600185815481101515610c1357fe5b9060005260206000200160009054906101000a900473ffffffffffffffffffffffffffffffffffffffff168786600a81101515610c4c57fe5b602002019073ffffffffffffffffffffffffffffffffffffffff16908173ffffffffffffffffffffffffffffffffffffffff16815250508480600101955050610bf7565b869650610dae565b600093505b600a841015610daa5760018080549050600143034060019004811515610cbf57fe5b0601925060009150600090505b83811015610d0057828682600a81101515610ce357fe5b60200201511415610cf357600191505b8080600101915050610ccc565b811515610da557828685600a81101515610d1657fe5b602002018181525050600183815481101515610d2e57fe5b9060005260206000200160009054906101000a900473ffffffffffffffffffffffffffffffffffffffff168785600a81101515610d6757fe5b602002019073ffffffffffffffffffffffffffffffffffffffff16908173ffffffffffffffffffffffffffffffffffffffff16815250506001840193505b610c9d565b8696505b50505050505090565b600080826040518082805190602001908083835b602083101515610df05780518252602082019150602081019050602083039250610dcb565b6001836020036101000a03801982511681845116808217855250505050505090500191505060405180910390209050600060026000836000191660001916815260200190815260200160002060000160009054906101000a900473ffffffffffffffffffffffffffffffffffffffff1673ffffffffffffffffffffffffffffffffffffffff161115610e855760019150610e86565b5b50919050565b600080600080600080341415610ea5576000945061110b565b866040518082805190602001908083835b602083101515610edb5780518252602082019150602081019050602083039250610eb6565b6001836020036101000a03801982511681845116808217855250505050505090500191505060405180910390209350600260008560001916600019168152602001908152602001600020925060008360000160009054906101000a900473ffffffffffffffffffffffffffffffffffffffff1673ffffffffffffffffffffffffffffffffffffffff16141515611106578260030160003373ffffffffffffffffffffffffffffffffffffffff1673ffffffffffffffffffffffffffffffffffffffff16815260200190815260200160002091506000826001015411156110b157600090508160010154341115610fd957816001015434039050611005565b8160010154341015610ff357348260010154039050611004565b8160010154341415611003573490505b5b5b85826000015414151561107b57600183600501836000015460038110151561102957fe5b0160008282540392505081905550816001015483600b01836000015460038110151561105157fe5b01600082825403925050819055503483600b018760038110151561107157fe5b01819055506110a2565b80340383600b01836000015460038110151561109357fe5b01600082825401925050819055505b6110ac338261140e565b6110d2565b3483600b01876003811015156110c357fe5b01600082825401925050819055505b600183600501876003811015156110e557fe5b01600082825401925050819055503482600101819055508582600001819055505b600194505b5050505092915050565b6000806111206114c4565b61112861147c565b611130611526565b6000876040518082805190602001908083835b6020831015156111685780518252602082019150602081019050602083039250611143565b6001836020036101000a0380198251168184511680821785525050505050509050019150506040518091039020945060c0604051908101604052803373ffffffffffffffffffffffffffffffffffffffff1681526020018881526020016001151581526020016060604051908101604052806000815260200160008152602001600081525081526020016060604051908101604052806000815260200160008152602001600081525081526020016060604051908101604052806000815260200160008152602001600081525081525093508360026000876000191660001916815260200190815260200160002060008201518160000160006101000a81548173ffffffffffffffffffffffffffffffffffffffff021916908373ffffffffffffffffffffffffffffffffffffffff1602179055506020820151816001015560408201518160020160006101000a81548160ff0219169083151502179055506060820151816005019060036112de92919061154a565b506080820151816008019060036112f692919061154a565b5060a082015181600b0190600361130e92919061154a565b5090505061131a610bcc565b92506060604051908101604052806000815260200160008152602001600115158152509150600090505b600a8110156113ff578160026000876000191660001916815260200190815260200160002060040160008584600a8110151561137c57fe5b602002015173ffffffffffffffffffffffffffffffffffffffff1673ffffffffffffffffffffffffffffffffffffffff168152602001908152602001600020600082015181600001556020820151816001015560408201518160020160006101000a81548160ff0219169083151502179055509050508080600101915050611344565b60019550505050505092915050565b8173ffffffffffffffffffffffffffffffffffffffff166108fc829081150290604051600060405180830381858888f19350505050158015611454573d6000803e3d6000fd5b505050565b606060405190810160405280600390602082028038833980820191505090505090565b61014060405190810160405280600a90602082028038833980820191505090505090565b61014060405190810160405280600a90602082028038833980820191505090505090565b61018060405190810160405280600073ffffffffffffffffffffffffffffffffffffffff1681526020016000815260200160001515815260200161150661158a565b815260200161151361158a565b815260200161152061158a565b81525090565b60606040519081016040528060008152602001600081526020016000151581525090565b8260038101928215611579579160200282015b8281111561157857825182559160200191906001019061155d565b5b50905061158691906115ad565b5090565b606060405190810160405280600390602082028038833980820191505090505090565b6115cf91905b808211156115cb5760008160009055506001016115b3565b5090565b905600a165627a7a723058202ae7f5c9efa0fdc383db68e218a991f4d707a36a464c426d34f013e672b455330029",
  "source": "pragma solidity ^0.4.22;\n\ncontract FakeNewsMarket {\n\n    mapping(address => bytes32) reportersEmails; //address to email\n    address[] reporters;\n\n    struct Bet {\n        uint vote;   // 0,1,2\n        uint amount;\n    }\n\n    struct Report {\n        uint vote;   // 0,1,2\n        uint reputation;\n        bool valid;\n    }\n\n    struct ArticleMarket{\n        address creator;\n        uint256 deadline;\n        bool is_open;\n        mapping(address => Bet) votes;\n        mapping(address => Report) reporters;\n        uint[3] sum_votes;\n        uint[3] sum_reports;\n        uint[3] sum_bets;\n    }\n\n    /*event ArticleCreated(address indexed _creator, uint indexed _numberInArray, bytes32 indexed _articleHash);*/\n\n    mapping(bytes32 => ArticleMarket) public markets;\n\n    function createArticleMarket(string _article, uint256 _deadline) public returns (uint256){\n      bytes32 article_hash = keccak256(_article);\n      ArticleMarket memory new_market = ArticleMarket({\n          creator: msg.sender,\n          deadline: _deadline,\n          is_open: true,\n          sum_votes: [uint(0),uint(0),uint(0)],\n          sum_reports: [uint(0),uint(0),uint(0)],\n          sum_bets: [uint(0),uint(0),uint(0)]\n      });\n      markets[article_hash] = new_market;\n      address[10] memory reporterAddresses = assignReporters();\n      Report memory report = Report({\n         valid: true,\n         vote: 0,\n         reputation: 0\n      });\n      for (uint i = 0; i < 10; i++){\n        markets[article_hash].reporters[reporterAddresses[i]]= report; //initialize reports\n      }\n\n    /*  emit ArticleCreated(msg.sender, initLen, article_hash);*/\n      return 1;\n    }\n\n    function vote(string _article, uint _vote) public payable returns (bool success) {\n        // vote function\n        // check if sender's address is already in array, if so, change existing\n        // add address and money to map\n        if (msg.value == 0) {\n            return false;\n        }\n        bytes32 article_hash = keccak256(_article);\n        ArticleMarket storage market = markets[article_hash];\n        if (market.creator != 0) { //market exists\n            Bet storage curr_bet = market.votes[msg.sender];\n            if (curr_bet.amount > 0) {\n                //voter has already bet/voted\n                uint refund = 0;\n                if (msg.value > curr_bet.amount) {\n                    //send back difference (msg.value - curr_bet.amount)\n                    refund = msg.value - curr_bet.amount;\n\n                } else if (msg.value < curr_bet.amount) {\n                    //send back difference (curr_bet.amount - msg.value)\n                    refund = curr_bet.amount - msg.value;\n                } else if (msg.value == curr_bet.amount) {\n                    //reject new money\n                    refund = msg.value;\n                }\n                if (curr_bet.vote != _vote) { //voter is changing previous vote\n                    market.sum_votes[curr_bet.vote] -= 1;\n                    market.sum_bets[curr_bet.vote] -= curr_bet.amount;\n                    market.sum_bets[_vote] = msg.value;\n                } else {\n                    market.sum_bets[curr_bet.vote] += (msg.value - refund);\n                }\n                refund_voter(msg.sender, refund);\n\n            } else {\n                market.sum_bets[_vote] += msg.value;\n            }\n            market.sum_votes[_vote] += 1;\n            curr_bet.amount = msg.value;\n            curr_bet.vote = _vote;\n        }\n        return true;\n        }\n\n    function refund_voter(address _to, uint _amount) private {\n        _to.transfer(_amount);\n    }\n\n    function report(string _article, uint _vote, uint _rep) {\n      bytes32 hash = keccak256(_article);\n      require(markets[hash].reporters[msg.sender].valid == true);\n      markets[hash].reporters[msg.sender] = Report({\n        vote : _vote,\n        reputation : _rep,\n        valid: true\n      });\n      //what to do if updating reputation?\n    }\n\n    function addReporter(address _address, string email) {\n      bytes32 hash = keccak256(email);\n      reporters.push(_address);\n      reportersEmails[_address] = hash;\n    }\n\n    function assignReporters() public returns (address[10] assigned){\n        uint[10] memory indices;\n        if (reporters.length < 10) {\n            for (uint r = 0; r < reporters.length; r++){\n              assigned[r] = reporters[r]; //copy whatever reporters exist into addresses\n            }\n            return assigned;\n        }\n        uint i = 0;\n        while (i < 10) {\n          uint random_number = uint(blockhash(block.number-1))%reporters.length + 1;\n          bool exists = false;\n          for (uint j = 0; j < i; j++) {\n            if(indices[j] == random_number) {\n              exists = true;\n            }\n          }\n          if (!exists){\n            indices[i] = random_number;\n            assigned[i] = reporters[random_number];\n            i += 1;\n          }\n        }\n        return assigned;\n    }\n\n    function closeMarket(string _article) {\n        //check deadline\n        bytes32 hash = keccak256(_article);\n        ArticleMarket storage market = markets[hash];\n        if (market.is_open) {\n        //determine winning answer from reporters\n\n        //redistribute money\n\n        //close market\n        }\n    }\n\n    function articleExists(string _article) public view returns (bool exists) {\n    bytes32 hash = keccak256(_article);\n    if (markets[hash].creator > 0) {\n        return true;\n    }\n    }\n\n    function getVotes(string _article) public view returns (uint[3] sum_votes) {\n        bytes32 hash = keccak256(_article);\n        if (markets[hash].creator > 0) {\n            return markets[hash].sum_votes;\n        }\n    }\n\n    function getBets(string _article) public view returns (uint[3] sum_bets) {\n        bytes32 hash = keccak256(_article);\n        if (markets[hash].creator > 0) {\n            return markets[hash].sum_bets;\n        }\n    }\n\n\n  }\n",
  "sourcePath": "/home/avgupta/spring_1718/cs359B/cs359b-fake-news-detector/contracts/contracts/FakeNewsMarket.sol",
  "compiler": {
    "name": "solc",
    "version": "0.4.23+commit.124ca40d.Emscripten.clang"
  },
  "schemaVersion": "2.0.0",
  "updatedAt": "2018-05-27T09:04:51.692Z"
}