{
  "contractName": "FakeNewsMarket",
  "abi": [
    {
      "constant": true,
      "inputs": [],
      "name": "numArticles",
      "outputs": [
        {
          "name": "",
          "type": "uint256"
        }
      ],
      "payable": false,
      "stateMutability": "view",
      "type": "function"
    },
    {
      "constant": true,
      "inputs": [
        {
          "name": "",
          "type": "bytes32"
        }
      ],
      "name": "markets",
      "outputs": [
        {
          "name": "creator",
          "type": "address"
        },
        {
          "name": "deadline",
          "type": "uint256"
        },
        {
          "name": "is_open",
          "type": "bool"
        }
      ],
      "payable": false,
      "stateMutability": "view",
      "type": "function"
    },
    {
      "anonymous": false,
      "inputs": [
        {
          "indexed": true,
          "name": "_creator",
          "type": "address"
        },
        {
          "indexed": true,
          "name": "_numberInArray",
          "type": "uint256"
        },
        {
          "indexed": true,
          "name": "_articleHash",
          "type": "bytes32"
        }
      ],
      "name": "ArticleCreated",
      "type": "event"
    },
    {
      "constant": false,
      "inputs": [
        {
          "name": "_article",
          "type": "string"
        },
        {
          "name": "_deadline",
          "type": "uint256"
        }
      ],
      "name": "createArticleMarket",
      "outputs": [
        {
          "name": "",
          "type": "uint256"
        }
      ],
      "payable": false,
      "stateMutability": "nonpayable",
      "type": "function"
    },
    {
      "constant": false,
      "inputs": [
        {
          "name": "_article",
          "type": "string"
        },
        {
          "name": "_vote",
          "type": "uint256"
        }
      ],
      "name": "vote",
      "outputs": [
        {
          "name": "success",
          "type": "bool"
        }
      ],
      "payable": true,
      "stateMutability": "payable",
      "type": "function"
    },
    {
      "constant": false,
      "inputs": [
        {
          "name": "_article",
          "type": "string"
        },
        {
          "name": "_vote",
          "type": "uint256"
        },
        {
          "name": "_rep",
          "type": "uint256"
        }
      ],
      "name": "report",
      "outputs": [],
      "payable": false,
      "stateMutability": "nonpayable",
      "type": "function"
    },
    {
      "constant": false,
      "inputs": [
        {
          "name": "_address",
          "type": "address"
        },
        {
          "name": "email",
          "type": "string"
        }
      ],
      "name": "addReporter",
      "outputs": [],
      "payable": false,
      "stateMutability": "nonpayable",
      "type": "function"
    },
    {
      "constant": false,
      "inputs": [
        {
          "name": "_article",
          "type": "string"
        }
      ],
      "name": "closeMarket",
      "outputs": [],
      "payable": false,
      "stateMutability": "nonpayable",
      "type": "function"
    },
    {
      "constant": false,
      "inputs": [
        {
          "name": "_reporter",
          "type": "address"
        }
      ],
      "name": "removeReporter",
      "outputs": [],
      "payable": false,
      "stateMutability": "nonpayable",
      "type": "function"
    },
    {
      "constant": true,
      "inputs": [
        {
          "name": "_article",
          "type": "string"
        }
      ],
      "name": "articleExists",
      "outputs": [
        {
          "name": "exists",
          "type": "bool"
        }
      ],
      "payable": false,
      "stateMutability": "view",
      "type": "function"
    },
    {
      "constant": true,
      "inputs": [
        {
          "name": "_article",
          "type": "string"
        }
      ],
      "name": "getVotes",
      "outputs": [
        {
          "name": "sum_votes",
          "type": "uint256[3]"
        }
      ],
      "payable": false,
      "stateMutability": "view",
      "type": "function"
    },
    {
      "constant": true,
      "inputs": [
        {
          "name": "_article",
          "type": "string"
        }
      ],
      "name": "getBets",
      "outputs": [
        {
          "name": "sum_bets",
          "type": "uint256[3]"
        }
      ],
      "payable": false,
      "stateMutability": "view",
      "type": "function"
    },
    {
      "constant": true,
      "inputs": [
        {
          "name": "_article",
          "type": "string"
        }
      ],
      "name": "getReports",
      "outputs": [
        {
          "name": "sum_reports",
          "type": "uint256[3]"
        }
      ],
      "payable": false,
      "stateMutability": "view",
      "type": "function"
    },
    {
      "constant": true,
      "inputs": [
        {
          "name": "_reporter",
          "type": "address"
        }
      ],
      "name": "getReporterRep",
      "outputs": [
        {
          "name": "rep",
          "type": "uint256"
        }
      ],
      "payable": false,
      "stateMutability": "view",
      "type": "function"
    },
    {
      "constant": true,
      "inputs": [
        {
          "name": "_article",
          "type": "string"
        }
      ],
      "name": "getRep",
      "outputs": [
        {
          "name": "sum_rep",
          "type": "uint256[3]"
        }
      ],
      "payable": false,
      "stateMutability": "view",
      "type": "function"
    }
  ],
  "bytecode": "0x6080604052600a600255600060045534801561001a57600080fd5b50612b298061002a6000396000f3006080604052600436106100d0576000357c0100000000000000000000000000000000000000000000000000000000900463ffffffff1680630fc26347146100d55780631a68638a1461013e5780633717ebc2146101e35780635de5c2121461026c5780636b46dadc146102af578063734f8482146103545780637564912b1461037f578063805265e5146104025780639779dedd146104a757806398617d9c1461054c5780639bf01b16146105c95780639d945dc414610620578063a6385803146106a1578063e7feba5c1461071f575b600080fd5b3480156100e157600080fd5b5061013c600480360381019080803590602001908201803590602001908080601f01602080910402602001604051908101604052809392919081815260200183838082843782019150505050505091929192905050506107a6565b005b34801561014a57600080fd5b506101a5600480360381019080803590602001908201803590602001908080601f0160208091040260200160405190810160405280939291908181526020018383808284378201915050505050509192919290505050610a71565b6040518082600360200280838360005b838110156101d05780820151818401526020810190506101b5565b5050505090500191505060405180910390f35b3480156101ef57600080fd5b5061026a600480360381019080803573ffffffffffffffffffffffffffffffffffffffff169060200190929190803590602001908201803590602001908080601f0160208091040260200160405190810160405280939291908181526020018383808284378201915050505050509192919290505050610c11565b005b34801561027857600080fd5b506102ad600480360381019080803573ffffffffffffffffffffffffffffffffffffffff169060200190929190505050610dee565b005b3480156102bb57600080fd5b50610316600480360381019080803590602001908201803590602001908080601f0160208091040260200160405190810160405280939291908181526020018383808284378201915050505050509192919290505050610ff4565b6040518082600360200280838360005b83811015610341578082015181840152602081019050610326565b5050505090500191505060405180910390f35b34801561036057600080fd5b50610369611194565b6040518082815260200191505060405180910390f35b34801561038b57600080fd5b506103ae600480360381019080803560001916906020019092919050505061119a565b604051808473ffffffffffffffffffffffffffffffffffffffff1673ffffffffffffffffffffffffffffffffffffffff16815260200183815260200182151515158152602001935050505060405180910390f35b34801561040e57600080fd5b50610469600480360381019080803590602001908201803590602001908080601f01602080910402602001604051908101604052809392919081815260200183838082843782019150505050505091929192905050506111f1565b6040518082600360200280838360005b83811015610494578082015181840152602081019050610479565b5050505090500191505060405180910390f35b3480156104b357600080fd5b5061050e600480360381019080803590602001908201803590602001908080601f0160208091040260200160405190810160405280939291908181526020018383808284378201915050505050509192919290505050611391565b6040518082600360200280838360005b8381101561053957808201518184015260208101905061051e565b5050505090500191505060405180910390f35b34801561055857600080fd5b506105c7600480360381019080803590602001908201803590602001908080601f01602080910402602001604051908101604052809392919081815260200183838082843782019150505050505091929192908035906020019092919080359060200190929190505050611531565b005b3480156105d557600080fd5b5061060a600480360381019080803573ffffffffffffffffffffffffffffffffffffffff169060200190929190505050611773565b6040518082815260200191505060405180910390f35b34801561062c57600080fd5b50610687600480360381019080803590602001908201803590602001908080601f0160208091040260200160405190810160405280939291908181526020018383808284378201915050505050509192919290505050611818565b604051808215151515815260200191505060405180910390f35b610705600480360381019080803590602001908201803590602001908080601f016020809104026020016040519081016040528093929190818152602001838380828437820191505050505050919291929080359060200190929190505050611959565b604051808215151515815260200191505060405180910390f35b34801561072b57600080fd5b50610790600480360381019080803590602001908201803590602001908080601f016020809104026020016040519081016040528093929190818152602001838380828437820191505050505050919291929080359060200190929190505050611cb6565b6040518082815260200191505060405180910390f35b60008060008060008060008060008060008b6040516020018082805190602001908083835b6020831015156107f057805182526020820191506020810190506020830392506107cb565b6001836020036101000a0380198251168184511680821785525050505050509050019150506040516020818303038152906040526040518082805190602001908083835b6020831015156108595780518252602082019150602081019050602083039250610834565b6001836020036101000a03801982511681845116808217855250505050505090500191505060405180910390209a50600360008c600019166000191681526020019081526020016000209950428a600101541080156108c657508960020160009054906101000a900460ff165b15610a635789600a0160006003811015156108dd57fe5b0154985089600a0160016003811015156108f357fe5b0154975089600a01600260038110151561090957fe5b015496506000955088945089601001600260038110151561092657fe5b01548a601001600160038110151561093a57fe5b0154019350878510801561094d57508688105b15610989576002955086945089601001600160038110151561096b57fe5b01548a601001600060038110151561097f57fe5b01540193506109d0565b878510801561099757508688115b156109cf57600195508794508960100160026003811015156109b557fe5b01548a60100160006003811015156109c957fe5b01540193505b5b89600d0160026003811015156109e257fe5b01548a600d0160016003811015156109f657fe5b01548b600d016000600381101515610a0a57fe5b015401019250600a83811515610a1c57fe5b0491508183039050610a2f8a87846121ef565b610a3a8a8783612323565b610a458a878661245e565b60008a60020160006101000a81548160ff0219169083151502179055505b505050505050505050505050565b610a7961289c565b6000826040516020018082805190602001908083835b602083101515610ab45780518252602082019150602081019050602083039250610a8f565b6001836020036101000a0380198251168184511680821785525050505050509050019150506040516020818303038152906040526040518082805190602001908083835b602083101515610b1d5780518252602082019150602081019050602083039250610af8565b6001836020036101000a03801982511681845116808217855250505050505090500191505060405180910390209050600060036000836000191660001916815260200190815260200160002060000160009054906101000a900473ffffffffffffffffffffffffffffffffffffffff1673ffffffffffffffffffffffffffffffffffffffff161115610c0a57600360008260001916600019168152602001908152602001600020600a01600380602002604051908101604052809291908260038015610bfe576020028201915b815481526020019060010190808311610bea575b50505050509150610c0b565b5b50919050565b6000816040516020018082805190602001908083835b602083101515610c4c5780518252602082019150602081019050602083039250610c27565b6001836020036101000a0380198251168184511680821785525050505050509050019150506040516020818303038152906040526040518082805190602001908083835b602083101515610cb55780518252602082019150602081019050602083039250610c90565b6001836020036101000a0380198251168184511680821785525050505050509050019150506040518091039020905060018390806001815401808255809150509060018203906000526020600020016000909192909190916101000a81548173ffffffffffffffffffffffffffffffffffffffff021916908373ffffffffffffffffffffffffffffffffffffffff1602179055505060606040519081016040528082600019168152602001600f8152602001600115158152506000808573ffffffffffffffffffffffffffffffffffffffff1673ffffffffffffffffffffffffffffffffffffffff168152602001908152602001600020600082015181600001906000191690556020820151816001015560408201518160020160006101000a81548160ff021916908315150217905550905050505050565b60008060008060008573ffffffffffffffffffffffffffffffffffffffff1673ffffffffffffffffffffffffffffffffffffffff16815260200190815260200160002060020160006101000a81548160ff0219169083151502179055506001805490509150600090505b600180549050811015610f1e578273ffffffffffffffffffffffffffffffffffffffff16600182815481101515610e8b57fe5b9060005260206000200160009054906101000a900473ffffffffffffffffffffffffffffffffffffffff1673ffffffffffffffffffffffffffffffffffffffff161415610f1357600181815481101515610ee157fe5b9060005260206000200160006101000a81549073ffffffffffffffffffffffffffffffffffffffff0219169055610f1e565b600181019050610e58565b6001808303815481101515610f2f57fe5b9060005260206000200160009054906101000a900473ffffffffffffffffffffffffffffffffffffffff16600182815481101515610f6957fe5b9060005260206000200160006101000a81548173ffffffffffffffffffffffffffffffffffffffff021916908373ffffffffffffffffffffffffffffffffffffffff1602179055506001808303815481101515610fc257fe5b9060005260206000200160006101000a81549073ffffffffffffffffffffffffffffffffffffffff0219169055505050565b610ffc61289c565b6000826040516020018082805190602001908083835b6020831015156110375780518252602082019150602081019050602083039250611012565b6001836020036101000a0380198251168184511680821785525050505050509050019150506040516020818303038152906040526040518082805190602001908083835b6020831015156110a0578051825260208201915060208101905060208303925061107b565b6001836020036101000a03801982511681845116808217855250505050505090500191505060405180910390209050600060036000836000191660001916815260200190815260200160002060000160009054906101000a900473ffffffffffffffffffffffffffffffffffffffff1673ffffffffffffffffffffffffffffffffffffffff16111561118d57600360008260001916600019168152602001908152602001600020600d01600380602002604051908101604052809291908260038015611181576020028201915b81548152602001906001019080831161116d575b5050505050915061118e565b5b50919050565b60045481565b60036020528060005260406000206000915090508060000160009054906101000a900473ffffffffffffffffffffffffffffffffffffffff16908060010154908060020160009054906101000a900460ff16905083565b6111f961289c565b6000826040516020018082805190602001908083835b602083101515611234578051825260208201915060208101905060208303925061120f565b6001836020036101000a0380198251168184511680821785525050505050509050019150506040516020818303038152906040526040518082805190602001908083835b60208310151561129d5780518252602082019150602081019050602083039250611278565b6001836020036101000a03801982511681845116808217855250505050505090500191505060405180910390209050600060036000836000191660001916815260200190815260200160002060000160009054906101000a900473ffffffffffffffffffffffffffffffffffffffff1673ffffffffffffffffffffffffffffffffffffffff16111561138a5760036000826000191660001916815260200190815260200160002060070160038060200260405190810160405280929190826003801561137e576020028201915b81548152602001906001019080831161136a575b5050505050915061138b565b5b50919050565b61139961289c565b6000826040516020018082805190602001908083835b6020831015156113d457805182526020820191506020810190506020830392506113af565b6001836020036101000a0380198251168184511680821785525050505050509050019150506040516020818303038152906040526040518082805190602001908083835b60208310151561143d5780518252602082019150602081019050602083039250611418565b6001836020036101000a03801982511681845116808217855250505050505090500191505060405180910390209050600060036000836000191660001916815260200190815260200160002060000160009054906101000a900473ffffffffffffffffffffffffffffffffffffffff1673ffffffffffffffffffffffffffffffffffffffff16111561152a5760036000826000191660001916815260200190815260200160002060100160038060200260405190810160405280929190826003801561151e576020028201915b81548152602001906001019080831161150a575b5050505050915061152b565b5b50919050565b6000836040516020018082805190602001908083835b60208310151561156c5780518252602082019150602081019050602083039250611547565b6001836020036101000a0380198251168184511680821785525050505050509050019150506040516020818303038152906040526040518082805190602001908083835b6020831015156115d557805182526020820191506020810190506020830392506115b0565b6001836020036101000a038019825116818451168082178552505050505050905001915050604051809103902090506001151560036000836000191660001916815260200190815260200160002060040160003373ffffffffffffffffffffffffffffffffffffffff1673ffffffffffffffffffffffffffffffffffffffff16815260200190815260200160002060020160009054906101000a900460ff16151514151561168257600080fd5b6060604051908101604052808481526020018381526020016001151581525060036000836000191660001916815260200190815260200160002060040160003373ffffffffffffffffffffffffffffffffffffffff1673ffffffffffffffffffffffffffffffffffffffff168152602001908152602001600020600082015181600001556020820151816001015560408201518160020160006101000a81548160ff021916908315150217905550905050816003600083600019166000191681526020019081526020016000206010018460038110151561175f57fe5b016000828254019250508190555050505050565b60008060008373ffffffffffffffffffffffffffffffffffffffff1673ffffffffffffffffffffffffffffffffffffffff16815260200190815260200160002060020160009054906101000a900460ff1615611812576000808373ffffffffffffffffffffffffffffffffffffffff1673ffffffffffffffffffffffffffffffffffffffff168152602001908152602001600020600101549050611813565b5b919050565b600080826040516020018082805190602001908083835b602083101515611854578051825260208201915060208101905060208303925061182f565b6001836020036101000a0380198251168184511680821785525050505050509050019150506040516020818303038152906040526040518082805190602001908083835b6020831015156118bd5780518252602082019150602081019050602083039250611898565b6001836020036101000a03801982511681845116808217855250505050505090500191505060405180910390209050600060036000836000191660001916815260200190815260200160002060000160009054906101000a900473ffffffffffffffffffffffffffffffffffffffff1673ffffffffffffffffffffffffffffffffffffffff1611156119525760019150611953565b5b50919050565b6000806000806000803414156119725760009450611cac565b866040516020018082805190602001908083835b6020831015156119ab5780518252602082019150602081019050602083039250611986565b6001836020036101000a0380198251168184511680821785525050505050509050019150506040516020818303038152906040526040518082805190602001908083835b602083101515611a1457805182526020820191506020810190506020830392506119ef565b6001836020036101000a03801982511681845116808217855250505050505090500191505060405180910390209350600360008560001916600019168152602001908152602001600020925060008360000160009054906101000a900473ffffffffffffffffffffffffffffffffffffffff1673ffffffffffffffffffffffffffffffffffffffff16141515611ca7578260030160003373ffffffffffffffffffffffffffffffffffffffff1673ffffffffffffffffffffffffffffffffffffffff1681526020019081526020016000209150600082600101541115611bea57600090508160010154341115611b1257816001015434039050611b3e565b8160010154341015611b2c57348260010154039050611b3d565b8160010154341415611b3c573490505b5b5b858260000154141515611bb4576001836007018360000154600381101515611b6257fe5b0160008282540392505081905550816001015483600d018360000154600381101515611b8a57fe5b01600082825403925050819055503483600d0187600381101515611baa57fe5b0181905550611bdb565b80340383600d018360000154600381101515611bcc57fe5b01600082825401925050819055505b611be53382612666565b611c73565b3483600d0187600381101515611bfc57fe5b0160008282540192505081905550826005013390806001815401808255809150509060018203906000526020600020016000909192909190916101000a81548173ffffffffffffffffffffffffffffffffffffffff021916908373ffffffffffffffffffffffffffffffffffffffff160217905550505b60018360070187600381101515611c8657fe5b01600082825401925050819055503482600101819055508582600001819055505b600194505b5050505092915050565b600080611cc16128bf565b611cc961293c565b611cd1612960565b6000876040516020018082805190602001908083835b602083101515611d0c5780518252602082019150602081019050602083039250611ce7565b6001836020036101000a0380198251168184511680821785525050505050509050019150506040516020818303038152906040526040518082805190602001908083835b602083101515611d755780518252602082019150602081019050602083039250611d50565b6001836020036101000a03801982511681845116808217855250505050505090500191505060405180910390209450610120604051908101604052803373ffffffffffffffffffffffffffffffffffffffff1681526020018881526020016001151581526020016000604051908082528060200260200182016040528015611e0c5781602001602082028038833980820191505090505b5081526020016000604051908082528060200260200182016040528015611e425781602001602082028038833980820191505090505b5081526020016060604051908101604052806000815260200160008152602001600081525081526020016060604051908101604052806000815260200160008152602001600081525081526020016060604051908101604052806000815260200160008152602001600081525081526020016060604051908101604052806000815260200160008152602001600081525081525093508360036000876000191660001916815260200190815260200160002060008201518160000160006101000a81548173ffffffffffffffffffffffffffffffffffffffff021916908373ffffffffffffffffffffffffffffffffffffffff1602179055506020820151816001015560408201518160020160006101000a81548160ff0219169083151502179055506060820151816005019080519060200190611f81929190612984565b506080820151816006019080519060200190611f9e929190612984565b5060a082015181600701906003611fb6929190612a0e565b5060c082015181600a01906003611fce929190612a0e565b5060e082015181600d01906003611fe6929190612a0e565b5061010082015181601001906003611fff929190612a0e565b5090505061200b6126b1565b92506060604051908101604052806000815260200160008152602001600115158152509150600090505b600a811015612184576003600086600019166000191681526020019081526020016000206006018382600a8110151561206a57fe5b602002015190806001815401808255809150509060018203906000526020600020016000909192909190916101000a81548173ffffffffffffffffffffffffffffffffffffffff021916908373ffffffffffffffffffffffffffffffffffffffff160217905550508160036000876000191660001916815260200190815260200160002060040160008584600a8110151561210157fe5b602002015173ffffffffffffffffffffffffffffffffffffffff1673ffffffffffffffffffffffffffffffffffffffff168152602001908152602001600020600082015181600001556020820151816001015560408201518160020160006101000a81548160ff0219169083151502179055509050508080600101915050612035565b84600019166004543373ffffffffffffffffffffffffffffffffffffffff167f1ebb59267ec489d735c87beeaa0db77365ddcfdf4d260f7a3fcc9d8baa2c1e6260405160405180910390a4600160046000828254019250508190555060019550505050505092915050565b600080600080866006018054905093505b8383101561231a57866006018381548110151561221957fe5b9060005260206000200160009054906101000a900473ffffffffffffffffffffffffffffffffffffffff1691508660040160008373ffffffffffffffffffffffffffffffffffffffff1673ffffffffffffffffffffffffffffffffffffffff16815260200190815260200160002090508060020160009054906101000a900460ff1680156122ad57508560ff168160000154145b15612305578173ffffffffffffffffffffffffffffffffffffffff166108fc85878115156122d757fe5b049081150290604051600060405180830381858888f19350505050158015612303573d6000803e3d6000fd5b505b82806001019350508280600101935050612200565b50505050505050565b6000806000806000876005018054905094505b8484101561245457876005018481548110151561234f57fe5b9060005260206000200160009054906101000a900473ffffffffffffffffffffffffffffffffffffffff1692508760030160008473ffffffffffffffffffffffffffffffffffffffff1673ffffffffffffffffffffffffffffffffffffffff16815260200190815260200160002091508660ff168260000154141561243f5787600d018760ff166003811015156123e257fe5b0154826001015487028115156123f457fe5b0490508273ffffffffffffffffffffffffffffffffffffffff166108fc829081150290604051600060405180830381858888f1935050505015801561243d573d6000803e3d6000fd5b505b83806001019450508380600101945050612336565b5050505050505050565b6000806000806000876006018054905094505b8484101561265c57876006018481548110151561248a57fe5b9060005260206000200160009054906101000a900473ffffffffffffffffffffffffffffffffffffffff1692508760040160008473ffffffffffffffffffffffffffffffffffffffff1673ffffffffffffffffffffffffffffffffffffffff16815260200190815260200160002091508160020160009054906101000a900460ff1615612647578660ff168260000154141561259d57876010018760ff1660038110151561253457fe5b01548260010154870281151561254657fe5b049050806000808573ffffffffffffffffffffffffffffffffffffffff1673ffffffffffffffffffffffffffffffffffffffff16815260200190815260200160002060010160008282540192505081905550612646565b81600101546000808573ffffffffffffffffffffffffffffffffffffffff1673ffffffffffffffffffffffffffffffffffffffff168152602001908152602001600020600101600082825403925050819055506002546000808573ffffffffffffffffffffffffffffffffffffffff1673ffffffffffffffffffffffffffffffffffffffff1681526020019081526020016000206001015410156126455761264483610dee565b5b5b5b83806001019450508380600101945050612471565b5050505050505050565b8173ffffffffffffffffffffffffffffffffffffffff166108fc829081150290604051600060405180830381858888f193505050501580156126ac573d6000803e3d6000fd5b505050565b6126b961293c565b6126c1612a4e565b6000806000806000600a600180549050101561277d57600094505b600180549050851015612775576001858154811015156126f857fe5b9060005260206000200160009054906101000a900473ffffffffffffffffffffffffffffffffffffffff168786600a8110151561273157fe5b602002019073ffffffffffffffffffffffffffffffffffffffff16908173ffffffffffffffffffffffffffffffffffffffff168152505084806001019550506126dc565b869650612893565b600093505b600a84101561288f57600180805490506001430340600190048115156127a457fe5b0601925060009150600090505b838110156127e557828682600a811015156127c857fe5b602002015114156127d857600191505b80806001019150506127b1565b81151561288a57828685600a811015156127fb57fe5b60200201818152505060018381548110151561281357fe5b9060005260206000200160009054906101000a900473ffffffffffffffffffffffffffffffffffffffff168785600a8110151561284c57fe5b602002019073ffffffffffffffffffffffffffffffffffffffff16908173ffffffffffffffffffffffffffffffffffffffff16815250506001840193505b612782565b8696505b50505050505090565b606060405190810160405280600390602082028038833980820191505090505090565b61022060405190810160405280600073ffffffffffffffffffffffffffffffffffffffff16815260200160008152602001600015158152602001606081526020016060815260200161290f612a72565b815260200161291c612a72565b8152602001612929612a72565b8152602001612936612a72565b81525090565b61014060405190810160405280600a90602082028038833980820191505090505090565b60606040519081016040528060008152602001600081526020016000151581525090565b8280548282559060005260206000209081019282156129fd579160200282015b828111156129fc5782518260006101000a81548173ffffffffffffffffffffffffffffffffffffffff021916908373ffffffffffffffffffffffffffffffffffffffff160217905550916020019190600101906129a4565b5b509050612a0a9190612a95565b5090565b8260038101928215612a3d579160200282015b82811115612a3c578251825591602001919060010190612a21565b5b509050612a4a9190612ad8565b5090565b61014060405190810160405280600a90602082028038833980820191505090505090565b606060405190810160405280600390602082028038833980820191505090505090565b612ad591905b80821115612ad157600081816101000a81549073ffffffffffffffffffffffffffffffffffffffff021916905550600101612a9b565b5090565b90565b612afa91905b80821115612af6576000816000905550600101612ade565b5090565b905600a165627a7a7230582040a8e20d4df53db7b4bcfd091fbbe6d31ad3ac4f5242a98a513ac9f580db4ee20029",
  "source": "pragma solidity ^0.4.22;\n\ncontract FakeNewsMarket {\n\n    mapping(address => Reporter) reportersData; //address to email\n    address[] reporters;\n    uint256 minRep = 10;\n\n    struct Reporter {\n        bytes32 email;\n        uint reputation;\n        bool is_valid;\n    }\n\n    struct Bet {\n        uint vote;   // 0,1,2\n        uint amount;\n    }\n\n    struct Report {\n        uint vote;   // 0,1,2\n        uint reputation;\n        bool is_valid;\n    }\n\n    struct ArticleMarket{\n        address creator;\n        uint256 deadline;\n        bool is_open;\n        mapping(address => Bet) votes;\n        mapping(address => Report) reports;\n        address[] voters;\n        address[] reporters;\n        uint[3] sum_votes;\n        uint[3] sum_reports;\n        uint[3] sum_bets;\n        uint[3] sum_rep; //sum of reputation\n    }\n\n    event ArticleCreated(address indexed _creator, uint indexed _numberInArray, bytes32 indexed _articleHash);\n\n    mapping(bytes32 => ArticleMarket) public markets;\n    uint public numArticles = 0;\n\n    function createArticleMarket(string _article, uint256 _deadline) public returns (uint256){\n      bytes32 article_hash = keccak256(abi.encodePacked(_article));\n      ArticleMarket memory new_market = ArticleMarket({\n          creator: msg.sender,\n          deadline: _deadline,\n          is_open: true,\n          sum_votes: [uint(0),uint(0),uint(0)],\n          sum_reports: [uint(0),uint(0),uint(0)],\n          sum_bets: [uint(0),uint(0),uint(0)],\n          sum_rep: [uint(0), uint(0), uint(0)],\n          voters: new address[](0),\n          reporters: new address[](0)\n      });\n      markets[article_hash] = new_market;\n      address[10] memory reporterAddresses = assignReporters();\n      Report memory report = Report({\n         is_valid: true,\n         vote: 0,\n         reputation: 0\n      });\n      for (uint i = 0; i < 10; i++){\n        markets[article_hash].reporters.push(reporterAddresses[i]);\n        markets[article_hash].reports[reporterAddresses[i]]= report; //initialize reports\n      }\n\n      emit ArticleCreated(msg.sender, numArticles, article_hash);\n      numArticles += 1;\n      return 1;\n    }\n\n    function vote(string _article, uint _vote) public payable returns (bool success) {\n        // vote function\n        // check if sender's address is already in array, if so, change existing\n        // add address and money to map\n        if (msg.value == 0) {\n            return false;\n        }\n        bytes32 article_hash = keccak256(abi.encodePacked(_article));\n        ArticleMarket storage market = markets[article_hash];\n        if (market.creator != 0) { //market exists\n            Bet storage curr_bet = market.votes[msg.sender];\n            if (curr_bet.amount > 0) {\n                //voter has already bet/voted\n                uint refund = 0;\n                if (msg.value > curr_bet.amount) {\n                    //send back difference (msg.value - curr_bet.amount)\n                    refund = msg.value - curr_bet.amount;\n\n                } else if (msg.value < curr_bet.amount) {\n                    //send back difference (curr_bet.amount - msg.value)\n                    refund = curr_bet.amount - msg.value;\n                } else if (msg.value == curr_bet.amount) {\n                    //reject new money\n                    refund = msg.value;\n                }\n                if (curr_bet.vote != _vote) { //voter is changing previous vote\n                    market.sum_votes[curr_bet.vote] -= 1;\n                    market.sum_bets[curr_bet.vote] -= curr_bet.amount;\n                    market.sum_bets[_vote] = msg.value;\n                } else {\n                    market.sum_bets[curr_bet.vote] += (msg.value - refund);\n                }\n                refund_voter(msg.sender, refund);\n\n            } else {\n                market.sum_bets[_vote] += msg.value;\n                market.voters.push(msg.sender);\n            }\n            market.sum_votes[_vote] += 1;\n            curr_bet.amount = msg.value;\n            curr_bet.vote = _vote;\n        }\n        return true;\n        }\n\n    function refund_voter(address _to, uint _amount) private {\n        _to.transfer(_amount);\n    }\n\n    function report(string _article, uint _vote, uint _rep) {\n      bytes32 hash = keccak256(abi.encodePacked(_article));\n      require(markets[hash].reports[msg.sender].is_valid == true);\n      markets[hash].reports[msg.sender] = Report({\n        vote : _vote,\n        reputation : _rep,\n        is_valid: true\n      });\n      markets[hash].sum_rep[_vote] += _rep;\n    }\n\n    function addReporter(address _address, string email) {\n      bytes32 hash = keccak256(abi.encodePacked(email));\n      reporters.push(_address);\n      reportersData[_address] = Reporter({\n        email : hash,\n        reputation: 15, //starting reputation\n        is_valid: true\n      });\n    }\n\n    function assignReporters() private returns (address[10] assigned){\n        uint[10] memory indices;\n        if (reporters.length < 10) {\n            for (uint r = 0; r < reporters.length; r++){\n              assigned[r] = reporters[r]; //copy whatever reporters exist into addresses\n            }\n            return assigned;\n        }\n        uint i = 0;\n        while (i < 10) {\n          uint random_number = uint(blockhash(block.number-1))%reporters.length + 1;\n          bool exists = false;\n          for (uint j = 0; j < i; j++) {\n            if(indices[j] == random_number) {\n              exists = true;\n            }\n          }\n          if (!exists){\n            indices[i] = random_number;\n            assigned[i] = reporters[random_number];\n            i += 1;\n          }\n        }\n        return assigned;\n    }\n\n    function closeMarket(string _article) {\n        //TODO: check deadline\n        bytes32 hash = keccak256(abi.encodePacked(_article));\n        ArticleMarket storage market = markets[hash];\n        if (market.deadline < now && market.is_open) {\n          //determine winning answer from reporters\n          uint256 reports_0 = market.sum_reports[0];\n          uint256 reports_1 = market.sum_reports[1];\n          uint256 reports_2 = market.sum_reports[2];\n          //set vote 0 to be the winner\n          uint8 consensus = 0;\n          uint256 max_reports = reports_0;\n          uint256 rep_redistribute = market.sum_rep[1] + market.sum_rep[2];\n          if (max_reports < reports_1 && reports_1 < reports_2) {\n              //vote 2 is the winner\n              consensus = 2;\n              max_reports = reports_2;\n              rep_redistribute = market.sum_rep[0] + market.sum_rep[1];\n          } else if (max_reports < reports_1 && reports_1 > reports_2) {\n              //vote 1 is the winner\n              consensus = 1;\n              max_reports = reports_1;\n              rep_redistribute = market.sum_rep[0] + market.sum_rep[2];\n          }\n          //TODO: handle case where some of the # reports is equal\n          uint256 winnings = market.sum_bets[0] + market.sum_bets[1] + market.sum_bets[2];\n          uint256 reporter_winnings = winnings/10;\n          uint256 correct_voter_winnings = winnings - reporter_winnings;\n\n          distributeWinningsToReporters(market, consensus, reporter_winnings);\n          distributeWinningsToVoters(market, consensus, correct_voter_winnings);\n          distributeReputation(market, consensus, rep_redistribute);\n          //close market\n          market.is_open = false;\n          }\n    }\n\n    function distributeWinningsToReporters(ArticleMarket storage _market, uint8 _consensus, uint256 _reporterWinnings) private {\n        uint256 num_reporters = _market.reporters.length;\n        for(uint i;i<num_reporters;i++) {\n            address reporter = _market.reporters[i];\n            Report storage inReport = _market.reports[reporter];\n            if (inReport.is_valid && inReport.vote == _consensus) {\n                reporter.transfer(_reporterWinnings/num_reporters);\n            }\n            i++;\n        }\n    }\n\n    function distributeWinningsToVoters(ArticleMarket storage _market, uint8 _consensus, uint256 _correctVoterWinnings) private {\n        uint256 num_voters = _market.voters.length;\n        for(uint i;i<num_voters;i++) {\n            address voter = _market.voters[i];\n            Bet storage voter_bet = _market.votes[voter];\n            if (voter_bet.vote == _consensus) {\n                uint256 voter_winnings = _correctVoterWinnings * voter_bet.amount / _market.sum_bets[_consensus];\n                voter.transfer(voter_winnings);\n            }\n            i++;\n        }\n    }\n\n    function removeReporter(address _reporter){\n      reportersData[_reporter].is_valid = false;\n      uint initLen = reporters.length;\n      uint idx  = 0;\n      while (idx < reporters.length){\n        if (reporters[idx] == _reporter) {\n          delete reporters[idx];\n          break;\n        }\n        idx += 1;\n      }\n      reporters[idx] = reporters[initLen-1];\n      delete reporters[initLen-1]; //copy last element into the empty spot and delete it\n    }\n\n    function distributeReputation(ArticleMarket storage _market, uint8 _consensus, uint256 _correctReporterWinnings) private {\n      uint256 num_reporters = _market.reporters.length;\n      for(uint i; i<num_reporters; i++) {\n          address reporter = _market.reporters[i];\n          Report storage inReport = _market.reports[reporter];\n          if (inReport.is_valid) {\n            if (inReport.vote == _consensus) {\n              uint256 rep_winnings = _correctReporterWinnings * inReport.reputation / _market.sum_rep[_consensus];\n              reportersData[reporter].reputation += rep_winnings;\n            }\n            else {\n              reportersData[reporter].reputation -= inReport.reputation;\n              if (reportersData[reporter].reputation < minRep){\n                removeReporter(reporter);\n              }\n            }\n          }\n          i++;\n      }\n    }\n\n    function articleExists(string _article) public view returns (bool exists) {\n    bytes32 hash = keccak256(abi.encodePacked(_article));\n    if (markets[hash].creator > 0) {\n        return true;\n    }\n    }\n\n    function getVotes(string _article) public view returns (uint[3] sum_votes) {\n        bytes32 hash = keccak256(abi.encodePacked(_article));\n        if (markets[hash].creator > 0) {\n            return markets[hash].sum_votes;\n        }\n    }\n\n    function getBets(string _article) public view returns (uint[3] sum_bets) {\n        bytes32 hash = keccak256(abi.encodePacked(_article));\n        if (markets[hash].creator > 0) {\n            return markets[hash].sum_bets;\n        }\n    }\n\n    function getReports(string _article) public view returns (uint[3] sum_reports) {\n        bytes32 hash = keccak256(abi.encodePacked(_article));\n        if (markets[hash].creator > 0) {\n            return markets[hash].sum_reports;\n        }\n    }\n\n    function getReporterRep(address _reporter) public view returns (uint rep){\n      if (reportersData[_reporter].is_valid) {\n            return reportersData[_reporter].reputation;\n      }\n    }\n\n    function getRep(string _article) public view returns (uint[3] sum_rep) {\n        bytes32 hash = keccak256(abi.encodePacked(_article));\n        if (markets[hash].creator > 0) {\n            return markets[hash].sum_rep;\n        }\n    }\n\n  }\n",
  "sourcePath": "/home/avgupta/spring_1718/cs359B/cs359b-fake-news-detector/contracts/contracts/FakeNewsMarket.sol",
  "compiler": {
    "name": "solc",
    "version": "0.4.23+commit.124ca40d.Emscripten.clang"
  },
  "schemaVersion": "2.0.0",
  "updatedAt": "2018-06-05T22:10:43.520Z"
}