{
  "contractName": "FakeNewsMarket",
  "abi": [
    {
      "constant": true,
      "inputs": [],
      "name": "numArticles",
      "outputs": [
        {
          "name": "",
          "type": "uint256"
        }
      ],
      "payable": false,
      "stateMutability": "view",
      "type": "function"
    },
    {
      "constant": true,
      "inputs": [
        {
          "name": "",
          "type": "bytes32"
        }
      ],
      "name": "markets",
      "outputs": [
        {
          "name": "creator",
          "type": "address"
        },
        {
          "name": "deadline",
          "type": "uint256"
        },
        {
          "name": "is_open",
          "type": "bool"
        }
      ],
      "payable": false,
      "stateMutability": "view",
      "type": "function"
    },
    {
      "anonymous": false,
      "inputs": [
        {
          "indexed": true,
          "name": "_creator",
          "type": "address"
        },
        {
          "indexed": true,
          "name": "_numberInArray",
          "type": "uint256"
        },
        {
          "indexed": true,
          "name": "_articleHash",
          "type": "bytes32"
        }
      ],
      "name": "ArticleCreated",
      "type": "event"
    },
    {
      "constant": false,
      "inputs": [
        {
          "name": "_article",
          "type": "string"
        },
        {
          "name": "_deadline",
          "type": "uint256"
        }
      ],
      "name": "createArticleMarket",
      "outputs": [
        {
          "name": "",
          "type": "uint256"
        }
      ],
      "payable": false,
      "stateMutability": "nonpayable",
      "type": "function"
    },
    {
      "constant": false,
      "inputs": [
        {
          "name": "_article",
          "type": "string"
        },
        {
          "name": "_vote",
          "type": "uint256"
        }
      ],
      "name": "vote",
      "outputs": [
        {
          "name": "success",
          "type": "bool"
        }
      ],
      "payable": true,
      "stateMutability": "payable",
      "type": "function"
    },
    {
      "constant": false,
      "inputs": [
        {
          "name": "_article",
          "type": "string"
        },
        {
          "name": "_vote",
          "type": "uint256"
        },
        {
          "name": "_rep",
          "type": "uint256"
        }
      ],
      "name": "report",
      "outputs": [],
      "payable": false,
      "stateMutability": "nonpayable",
      "type": "function"
    },
    {
      "constant": false,
      "inputs": [
        {
          "name": "_address",
          "type": "address"
        },
        {
          "name": "email",
          "type": "string"
        }
      ],
      "name": "addReporter",
      "outputs": [],
      "payable": false,
      "stateMutability": "nonpayable",
      "type": "function"
    },
    {
      "constant": false,
      "inputs": [],
      "name": "assignReporters",
      "outputs": [
        {
          "name": "assigned",
          "type": "address[10]"
        }
      ],
      "payable": false,
      "stateMutability": "nonpayable",
      "type": "function"
    },
    {
      "constant": false,
      "inputs": [
        {
          "name": "_article",
          "type": "string"
        }
      ],
      "name": "closeMarket",
      "outputs": [],
      "payable": false,
      "stateMutability": "nonpayable",
      "type": "function"
    },
    {
      "constant": true,
      "inputs": [
        {
          "name": "_article",
          "type": "string"
        }
      ],
      "name": "articleExists",
      "outputs": [
        {
          "name": "exists",
          "type": "bool"
        }
      ],
      "payable": false,
      "stateMutability": "view",
      "type": "function"
    },
    {
      "constant": true,
      "inputs": [
        {
          "name": "_article",
          "type": "string"
        }
      ],
      "name": "getVotes",
      "outputs": [
        {
          "name": "sum_votes",
          "type": "uint256[3]"
        }
      ],
      "payable": false,
      "stateMutability": "view",
      "type": "function"
    },
    {
      "constant": true,
      "inputs": [
        {
          "name": "_article",
          "type": "string"
        }
      ],
      "name": "getBets",
      "outputs": [
        {
          "name": "sum_bets",
          "type": "uint256[3]"
        }
      ],
      "payable": false,
      "stateMutability": "view",
      "type": "function"
    }
  ],
  "bytecode": "0x6080604052600060035534801561001557600080fd5b50612019806100256000396000f3006080604052600436106100af576000357c0100000000000000000000000000000000000000000000000000000000900463ffffffff1680630fc26347146100b45780633717ebc21461011d5780636b46dadc146101a6578063734f84821461024b5780637564912b14610276578063805265e5146102f957806398617d9c1461039e5780639c1f4ef71461041b5780639d945dc41461046e578063a6385803146104ef578063e7feba5c1461056d575b600080fd5b3480156100c057600080fd5b5061011b600480360381019080803590602001908201803590602001908080601f01602080910402602001604051908101604052809392919081815260200183838082843782019150505050505091929192905050506105f4565b005b34801561012957600080fd5b506101a4600480360381019080803573ffffffffffffffffffffffffffffffffffffffff169060200190929190803590602001908201803590602001908080601f0160208091040260200160405190810160405280939291908181526020018383808284378201915050505050509192919290505050610830565b005b3480156101b257600080fd5b5061020d600480360381019080803590602001908201803590602001908080601f01602080910402602001604051908101604052809392919081815260200183838082843782019150505050505091929192905050506109b5565b6040518082600360200280838360005b8381101561023857808201518184015260208101905061021d565b5050505090500191505060405180910390f35b34801561025757600080fd5b50610260610b55565b6040518082815260200191505060405180910390f35b34801561028257600080fd5b506102a56004803603810190808035600019169060200190929190505050610b5b565b604051808473ffffffffffffffffffffffffffffffffffffffff1673ffffffffffffffffffffffffffffffffffffffff16815260200183815260200182151515158152602001935050505060405180910390f35b34801561030557600080fd5b50610360600480360381019080803590602001908201803590602001908080601f0160208091040260200160405190810160405280939291908181526020018383808284378201915050505050509192919290505050610bb2565b6040518082600360200280838360005b8381101561038b578082015181840152602081019050610370565b5050505090500191505060405180910390f35b3480156103aa57600080fd5b50610419600480360381019080803590602001908201803590602001908080601f01602080910402602001604051908101604052809392919081815260200183838082843782019150505050505091929192908035906020019092919080359060200190929190505050610d52565b005b34801561042757600080fd5b50610430610f5a565b6040518082600a60200280838360005b8381101561045b578082015181840152602081019050610440565b5050505090500191505060405180910390f35b34801561047a57600080fd5b506104d5600480360381019080803590602001908201803590602001908080601f0160208091040260200160405190810160405280939291908181526020018383808284378201915050505050509192919290505050611145565b604051808215151515815260200191505060405180910390f35b610553600480360381019080803590602001908201803590602001908080601f016020809104026020016040519081016040528093929190818152602001838380828437820191505050505050919291929080359060200190929190505050611286565b604051808215151515815260200191505060405180910390f35b34801561057957600080fd5b506105de600480360381019080803590602001908201803590602001908080601f0160208091040260200160405190810160405280939291908181526020018383808284378201915050505050509192919290803590602001909291905050506115e3565b6040518082815260200191505060405180910390f35b6000806000806000806000806000808a6040516020018082805190602001908083835b60208310151561063c5780518252602082019150602081019050602083039250610617565b6001836020036101000a0380198251168184511680821785525050505050509050019150506040516020818303038152906040526040518082805190602001908083835b6020831015156106a55780518252602082019150602081019050602083039250610680565b6001836020036101000a03801982511681845116808217855250505050505090500191505060405180910390209950600260008b60001916600019168152602001908152602001600020985042896001015410801561071257508860020160009054906101000a900460ff165b156108235788600a01600060038110151561072957fe5b0154975088600a01600160038110151561073f57fe5b0154965088600a01600260038110151561075557fe5b0154955060009450879350868410801561076e57508587105b1561077f576002945085935061079b565b868410801561078d57508587115b1561079a57600194508693505b5b88600d0160026003811015156107ad57fe5b015489600d0160016003811015156107c157fe5b01548a600d0160006003811015156107d557fe5b015401019250600a838115156107e757fe5b04915081830390506107fa898684611adf565b610805898683611c13565b60008960020160006101000a81548160ff0219169083151502179055505b5050505050505050505050565b6000816040516020018082805190602001908083835b60208310151561086b5780518252602082019150602081019050602083039250610846565b6001836020036101000a0380198251168184511680821785525050505050509050019150506040516020818303038152906040526040518082805190602001908083835b6020831015156108d457805182526020820191506020810190506020830392506108af565b6001836020036101000a0380198251168184511680821785525050505050509050019150506040518091039020905060018390806001815401808255809150509060018203906000526020600020016000909192909190916101000a81548173ffffffffffffffffffffffffffffffffffffffff021916908373ffffffffffffffffffffffffffffffffffffffff16021790555050806000808573ffffffffffffffffffffffffffffffffffffffff1673ffffffffffffffffffffffffffffffffffffffff1681526020019081526020016000208160001916905550505050565b6109bd611d99565b6000826040516020018082805190602001908083835b6020831015156109f857805182526020820191506020810190506020830392506109d3565b6001836020036101000a0380198251168184511680821785525050505050509050019150506040516020818303038152906040526040518082805190602001908083835b602083101515610a615780518252602082019150602081019050602083039250610a3c565b6001836020036101000a03801982511681845116808217855250505050505090500191505060405180910390209050600060026000836000191660001916815260200190815260200160002060000160009054906101000a900473ffffffffffffffffffffffffffffffffffffffff1673ffffffffffffffffffffffffffffffffffffffff161115610b4e57600260008260001916600019168152602001908152602001600020600d01600380602002604051908101604052809291908260038015610b42576020028201915b815481526020019060010190808311610b2e575b50505050509150610b4f565b5b50919050565b60035481565b60026020528060005260406000206000915090508060000160009054906101000a900473ffffffffffffffffffffffffffffffffffffffff16908060010154908060020160009054906101000a900460ff16905083565b610bba611d99565b6000826040516020018082805190602001908083835b602083101515610bf55780518252602082019150602081019050602083039250610bd0565b6001836020036101000a0380198251168184511680821785525050505050509050019150506040516020818303038152906040526040518082805190602001908083835b602083101515610c5e5780518252602082019150602081019050602083039250610c39565b6001836020036101000a03801982511681845116808217855250505050505090500191505060405180910390209050600060026000836000191660001916815260200190815260200160002060000160009054906101000a900473ffffffffffffffffffffffffffffffffffffffff1673ffffffffffffffffffffffffffffffffffffffff161115610d4b57600260008260001916600019168152602001908152602001600020600701600380602002604051908101604052809291908260038015610d3f576020028201915b815481526020019060010190808311610d2b575b50505050509150610d4c565b5b50919050565b6000836040516020018082805190602001908083835b602083101515610d8d5780518252602082019150602081019050602083039250610d68565b6001836020036101000a0380198251168184511680821785525050505050509050019150506040516020818303038152906040526040518082805190602001908083835b602083101515610df65780518252602082019150602081019050602083039250610dd1565b6001836020036101000a038019825116818451168082178552505050505050905001915050604051809103902090506001151560026000836000191660001916815260200190815260200160002060040160003373ffffffffffffffffffffffffffffffffffffffff1673ffffffffffffffffffffffffffffffffffffffff16815260200190815260200160002060020160009054906101000a900460ff161515141515610ea357600080fd5b6060604051908101604052808481526020018381526020016001151581525060026000836000191660001916815260200190815260200160002060040160003373ffffffffffffffffffffffffffffffffffffffff1673ffffffffffffffffffffffffffffffffffffffff168152602001908152602001600020600082015181600001556020820151816001015560408201518160020160006101000a81548160ff02191690831515021790555090505050505050565b610f62611dbc565b610f6a611de0565b6000806000806000600a600180549050101561102657600094505b60018054905085101561101e57600185815481101515610fa157fe5b9060005260206000200160009054906101000a900473ffffffffffffffffffffffffffffffffffffffff168786600a81101515610fda57fe5b602002019073ffffffffffffffffffffffffffffffffffffffff16908173ffffffffffffffffffffffffffffffffffffffff16815250508480600101955050610f85565b86965061113c565b600093505b600a841015611138576001808054905060014303406001900481151561104d57fe5b0601925060009150600090505b8381101561108e57828682600a8110151561107157fe5b6020020151141561108157600191505b808060010191505061105a565b81151561113357828685600a811015156110a457fe5b6020020181815250506001838154811015156110bc57fe5b9060005260206000200160009054906101000a900473ffffffffffffffffffffffffffffffffffffffff168785600a811015156110f557fe5b602002019073ffffffffffffffffffffffffffffffffffffffff16908173ffffffffffffffffffffffffffffffffffffffff16815250506001840193505b61102b565b8696505b50505050505090565b600080826040516020018082805190602001908083835b602083101515611181578051825260208201915060208101905060208303925061115c565b6001836020036101000a0380198251168184511680821785525050505050509050019150506040516020818303038152906040526040518082805190602001908083835b6020831015156111ea57805182526020820191506020810190506020830392506111c5565b6001836020036101000a03801982511681845116808217855250505050505090500191505060405180910390209050600060026000836000191660001916815260200190815260200160002060000160009054906101000a900473ffffffffffffffffffffffffffffffffffffffff1673ffffffffffffffffffffffffffffffffffffffff16111561127f5760019150611280565b5b50919050565b60008060008060008034141561129f57600094506115d9565b866040516020018082805190602001908083835b6020831015156112d857805182526020820191506020810190506020830392506112b3565b6001836020036101000a0380198251168184511680821785525050505050509050019150506040516020818303038152906040526040518082805190602001908083835b602083101515611341578051825260208201915060208101905060208303925061131c565b6001836020036101000a03801982511681845116808217855250505050505090500191505060405180910390209350600260008560001916600019168152602001908152602001600020925060008360000160009054906101000a900473ffffffffffffffffffffffffffffffffffffffff1673ffffffffffffffffffffffffffffffffffffffff161415156115d4578260030160003373ffffffffffffffffffffffffffffffffffffffff1673ffffffffffffffffffffffffffffffffffffffff16815260200190815260200160002091506000826001015411156115175760009050816001015434111561143f5781600101543403905061146b565b81600101543410156114595734826001015403905061146a565b8160010154341415611469573490505b5b5b8582600001541415156114e157600183600701836000015460038110151561148f57fe5b0160008282540392505081905550816001015483600d0183600001546003811015156114b757fe5b01600082825403925050819055503483600d01876003811015156114d757fe5b0181905550611508565b80340383600d0183600001546003811015156114f957fe5b01600082825401925050819055505b6115123382611d4e565b6115a0565b3483600d018760038110151561152957fe5b0160008282540192505081905550826005013390806001815401808255809150509060018203906000526020600020016000909192909190916101000a81548173ffffffffffffffffffffffffffffffffffffffff021916908373ffffffffffffffffffffffffffffffffffffffff160217905550505b600183600701876003811015156115b357fe5b01600082825401925050819055503482600101819055508582600001819055505b600194505b5050505092915050565b6000806115ee611e04565b6115f6611dbc565b6115fe611e74565b6000876040516020018082805190602001908083835b6020831015156116395780518252602082019150602081019050602083039250611614565b6001836020036101000a0380198251168184511680821785525050505050509050019150506040516020818303038152906040526040518082805190602001908083835b6020831015156116a2578051825260208201915060208101905060208303925061167d565b6001836020036101000a03801982511681845116808217855250505050505090500191505060405180910390209450610100604051908101604052803373ffffffffffffffffffffffffffffffffffffffff16815260200188815260200160011515815260200160006040519080825280602002602001820160405280156117395781602001602082028038833980820191505090505b508152602001600060405190808252806020026020018201604052801561176f5781602001602082028038833980820191505090505b5081526020016060604051908101604052806000815260200160008152602001600081525081526020016060604051908101604052806000815260200160008152602001600081525081526020016060604051908101604052806000815260200160008152602001600081525081525093508360026000876000191660001916815260200190815260200160002060008201518160000160006101000a81548173ffffffffffffffffffffffffffffffffffffffff021916908373ffffffffffffffffffffffffffffffffffffffff1602179055506020820151816001015560408201518160020160006101000a81548160ff021916908315150217905550606082015181600501908051906020019061188a929190611e98565b5060808201518160060190805190602001906118a7929190611e98565b5060a0820151816007019060036118bf929190611f22565b5060c082015181600a019060036118d7929190611f22565b5060e082015181600d019060036118ef929190611f22565b509050506118fb610f5a565b92506060604051908101604052806000815260200160008152602001600115158152509150600090505b600a811015611a74576002600086600019166000191681526020019081526020016000206006018382600a8110151561195a57fe5b602002015190806001815401808255809150509060018203906000526020600020016000909192909190916101000a81548173ffffffffffffffffffffffffffffffffffffffff021916908373ffffffffffffffffffffffffffffffffffffffff160217905550508160026000876000191660001916815260200190815260200160002060040160008584600a811015156119f157fe5b602002015173ffffffffffffffffffffffffffffffffffffffff1673ffffffffffffffffffffffffffffffffffffffff168152602001908152602001600020600082015181600001556020820151816001015560408201518160020160006101000a81548160ff0219169083151502179055509050508080600101915050611925565b84600019166003543373ffffffffffffffffffffffffffffffffffffffff167f1ebb59267ec489d735c87beeaa0db77365ddcfdf4d260f7a3fcc9d8baa2c1e6260405160405180910390a4600160036000828254019250508190555060019550505050505092915050565b600080600080866006018054905093505b83831015611c0a578660060183815481101515611b0957fe5b9060005260206000200160009054906101000a900473ffffffffffffffffffffffffffffffffffffffff1691508660040160008373ffffffffffffffffffffffffffffffffffffffff1673ffffffffffffffffffffffffffffffffffffffff16815260200190815260200160002090508060020160009054906101000a900460ff168015611b9d57508560ff168160000154145b15611bf5578173ffffffffffffffffffffffffffffffffffffffff166108fc8587811515611bc757fe5b049081150290604051600060405180830381858888f19350505050158015611bf3573d6000803e3d6000fd5b505b82806001019350508280600101935050611af0565b50505050505050565b6000806000806000876005018054905094505b84841015611d44578760050184815481101515611c3f57fe5b9060005260206000200160009054906101000a900473ffffffffffffffffffffffffffffffffffffffff1692508760030160008473ffffffffffffffffffffffffffffffffffffffff1673ffffffffffffffffffffffffffffffffffffffff16815260200190815260200160002091508660ff1682600001541415611d2f5787600d018760ff16600381101515611cd257fe5b015482600101548702811515611ce457fe5b0490508273ffffffffffffffffffffffffffffffffffffffff166108fc829081150290604051600060405180830381858888f19350505050158015611d2d573d6000803e3d6000fd5b505b83806001019450508380600101945050611c26565b5050505050505050565b8173ffffffffffffffffffffffffffffffffffffffff166108fc829081150290604051600060405180830381858888f19350505050158015611d94573d6000803e3d6000fd5b505050565b606060405190810160405280600390602082028038833980820191505090505090565b61014060405190810160405280600a90602082028038833980820191505090505090565b61014060405190810160405280600a90602082028038833980820191505090505090565b6101c060405190810160405280600073ffffffffffffffffffffffffffffffffffffffff168152602001600081526020016000151581526020016060815260200160608152602001611e54611f62565b8152602001611e61611f62565b8152602001611e6e611f62565b81525090565b60606040519081016040528060008152602001600081526020016000151581525090565b828054828255906000526020600020908101928215611f11579160200282015b82811115611f105782518260006101000a81548173ffffffffffffffffffffffffffffffffffffffff021916908373ffffffffffffffffffffffffffffffffffffffff16021790555091602001919060010190611eb8565b5b509050611f1e9190611f85565b5090565b8260038101928215611f51579160200282015b82811115611f50578251825591602001919060010190611f35565b5b509050611f5e9190611fc8565b5090565b606060405190810160405280600390602082028038833980820191505090505090565b611fc591905b80821115611fc157600081816101000a81549073ffffffffffffffffffffffffffffffffffffffff021916905550600101611f8b565b5090565b90565b611fea91905b80821115611fe6576000816000905550600101611fce565b5090565b905600a165627a7a723058208945a10a4f17fed0f6a358b1c3e893e33b917d504812e468c3e87af27f3971a30029",
  "source": "pragma solidity ^0.4.22;\n\ncontract FakeNewsMarket {\n\n    mapping(address => bytes32) reportersEmails; //address to email\n    address[] reporters;\n\n    struct Bet {\n        uint vote;   // 0,1,2\n        uint amount;\n    }\n\n    struct Report {\n        uint vote;   // 0,1,2\n        uint reputation;\n        bool is_valid;\n    }\n\n    struct ArticleMarket{\n        address creator;\n        uint256 deadline;\n        bool is_open;\n        mapping(address => Bet) votes;\n        mapping(address => Report) reports;\n        address[] voters;\n        address[] reporters;\n        uint[3] sum_votes;\n        uint[3] sum_reports;\n        uint[3] sum_bets;\n    }\n\n    event ArticleCreated(address indexed _creator, uint indexed _numberInArray, bytes32 indexed _articleHash);\n\n    mapping(bytes32 => ArticleMarket) public markets;\n    uint public numArticles = 0;\n\n    function createArticleMarket(string _article, uint256 _deadline) public returns (uint256){\n      bytes32 article_hash = keccak256(abi.encodePacked(_article));\n      ArticleMarket memory new_market = ArticleMarket({\n          creator: msg.sender,\n          deadline: _deadline,\n          is_open: true,\n          sum_votes: [uint(0),uint(0),uint(0)],\n          sum_reports: [uint(0),uint(0),uint(0)],\n          sum_bets: [uint(0),uint(0),uint(0)],\n          voters: new address[](0),\n          reporters: new address[](0)\n      });\n      markets[article_hash] = new_market;\n      address[10] memory reporterAddresses = assignReporters();\n      Report memory report = Report({\n         is_valid: true,\n         vote: 0,\n         reputation: 0\n      });\n      for (uint i = 0; i < 10; i++){\n        markets[article_hash].reporters.push(reporterAddresses[i]);\n        markets[article_hash].reports[reporterAddresses[i]]= report; //initialize reports\n      }\n\n      emit ArticleCreated(msg.sender, numArticles, article_hash);\n      numArticles += 1;\n      return 1;\n    }\n\n    function vote(string _article, uint _vote) public payable returns (bool success) {\n        // vote function\n        // check if sender's address is already in array, if so, change existing\n        // add address and money to map\n        if (msg.value == 0) {\n            return false;\n        }\n        bytes32 article_hash = keccak256(abi.encodePacked(_article));\n        ArticleMarket storage market = markets[article_hash];\n        if (market.creator != 0) { //market exists\n            Bet storage curr_bet = market.votes[msg.sender];\n            if (curr_bet.amount > 0) {\n                //voter has already bet/voted\n                uint refund = 0;\n                if (msg.value > curr_bet.amount) {\n                    //send back difference (msg.value - curr_bet.amount)\n                    refund = msg.value - curr_bet.amount;\n\n                } else if (msg.value < curr_bet.amount) {\n                    //send back difference (curr_bet.amount - msg.value)\n                    refund = curr_bet.amount - msg.value;\n                } else if (msg.value == curr_bet.amount) {\n                    //reject new money\n                    refund = msg.value;\n                }\n                if (curr_bet.vote != _vote) { //voter is changing previous vote\n                    market.sum_votes[curr_bet.vote] -= 1;\n                    market.sum_bets[curr_bet.vote] -= curr_bet.amount;\n                    market.sum_bets[_vote] = msg.value;\n                } else {\n                    market.sum_bets[curr_bet.vote] += (msg.value - refund);\n                }\n                refund_voter(msg.sender, refund);\n\n            } else {\n                market.sum_bets[_vote] += msg.value;\n                market.voters.push(msg.sender);\n            }\n            market.sum_votes[_vote] += 1;\n            curr_bet.amount = msg.value;\n            curr_bet.vote = _vote;\n        }\n        return true;\n        }\n\n    function refund_voter(address _to, uint _amount) private {\n        _to.transfer(_amount);\n    }\n\n    function report(string _article, uint _vote, uint _rep) {\n      bytes32 hash = keccak256(abi.encodePacked(_article));\n      require(markets[hash].reports[msg.sender].is_valid == true);\n      markets[hash].reports[msg.sender] = Report({\n        vote : _vote,\n        reputation : _rep,\n        is_valid: true\n      });\n      //what to do if updating reputation?\n    }\n\n    function addReporter(address _address, string email) {\n      bytes32 hash = keccak256(abi.encodePacked(email));\n      reporters.push(_address);\n      reportersEmails[_address] = hash;\n    }\n\n    function assignReporters() public returns (address[10] assigned){\n        uint[10] memory indices;\n        if (reporters.length < 10) {\n            for (uint r = 0; r < reporters.length; r++){\n              assigned[r] = reporters[r]; //copy whatever reporters exist into addresses\n            }\n            return assigned;\n        }\n        uint i = 0;\n        while (i < 10) {\n          uint random_number = uint(blockhash(block.number-1))%reporters.length + 1;\n          bool exists = false;\n          for (uint j = 0; j < i; j++) {\n            if(indices[j] == random_number) {\n              exists = true;\n            }\n          }\n          if (!exists){\n            indices[i] = random_number;\n            assigned[i] = reporters[random_number];\n            i += 1;\n          }\n        }\n        return assigned;\n    }\n\n    function closeMarket(string _article) {\n        //TODO: check deadline\n        bytes32 hash = keccak256(abi.encodePacked(_article));\n        ArticleMarket storage market = markets[hash];\n        if (market.deadline < now && market.is_open) {\n        //determine winning answer from reporters\n        uint256 reports_0 = market.sum_reports[0];\n        uint256 reports_1 = market.sum_reports[1];\n        uint256 reports_2 = market.sum_reports[2];\n        //set vote 0 to be the winner\n        uint8 consensus = 0;\n        uint256 max_reports = reports_0;\n        if (max_reports < reports_1 && reports_1 < reports_2) {\n            //vote 2 is the winner\n            consensus = 2;\n            max_reports = reports_2;\n        } else if (max_reports < reports_1 && reports_1 > reports_2) {\n            //vote 1 is the winner\n            consensus = 1;\n            max_reports = reports_1;\n        }\n        //TODO: handle case where some of the # reports is equal\n        uint256 winnings = market.sum_bets[0] + market.sum_bets[1] + market.sum_bets[2];\n        uint256 reporter_winnings = winnings/10;\n        uint256 correct_voter_winnings = winnings - reporter_winnings;\n        distributeWinningsToReporters(market, consensus, reporter_winnings);\n        distributeWinningsToVoters(market, consensus, correct_voter_winnings);\n        //close market\n        market.is_open = false;\n        }\n    }\n\n    function distributeWinningsToReporters(ArticleMarket storage _market, uint8 _consensus, uint256 _reporterWinnings) private {\n        uint256 num_reporters = _market.reporters.length;\n        for(uint i;i<num_reporters;i++) {\n            address reporter = _market.reporters[i];\n            Report storage inReport = _market.reports[reporter];\n            if (inReport.is_valid && inReport.vote == _consensus) {\n                reporter.transfer(_reporterWinnings/num_reporters);\n            }\n            i++;\n        }\n    }\n\n    function distributeWinningsToVoters(ArticleMarket storage _market, uint8 _consensus, uint256 _correctVoterWinnings) private {\n        uint256 num_voters = _market.voters.length;\n        for(uint i;i<num_voters;i++) {\n            address voter = _market.voters[i];\n            Bet storage voter_bet = _market.votes[voter];\n            if (voter_bet.vote == _consensus) {\n                uint256 voter_winnings = _correctVoterWinnings * voter_bet.amount / _market.sum_bets[_consensus];\n                voter.transfer(voter_winnings);\n            }\n            i++;\n        }\n    }\n\n    function articleExists(string _article) public view returns (bool exists) {\n    bytes32 hash = keccak256(abi.encodePacked(_article));\n    if (markets[hash].creator > 0) {\n        return true;\n    }\n    }\n\n    function getVotes(string _article) public view returns (uint[3] sum_votes) {\n        bytes32 hash = keccak256(abi.encodePacked(_article));\n        if (markets[hash].creator > 0) {\n            return markets[hash].sum_votes;\n        }\n    }\n\n    function getBets(string _article) public view returns (uint[3] sum_bets) {\n        bytes32 hash = keccak256(abi.encodePacked(_article));\n        if (markets[hash].creator > 0) {\n            return markets[hash].sum_bets;\n        }\n    }\n\n\n  }\n",
  "sourcePath": "/home/avgupta/spring_1718/cs359B/cs359b-fake-news-detector/contracts/contracts/FakeNewsMarket.sol",
  "compiler": {
    "name": "solc",
    "version": "0.4.23+commit.124ca40d.Emscripten.clang"
  },
  "schemaVersion": "2.0.0",
  "updatedAt": "2018-06-01T06:30:12.850Z"
}