{
  "contractName": "FakeNewsMarket",
  "abi": [
    {
      "constant": true,
      "inputs": [],
      "name": "numArticles",
      "outputs": [
        {
          "name": "",
          "type": "uint256"
        }
      ],
      "payable": false,
      "stateMutability": "view",
      "type": "function"
    },
    {
      "constant": true,
      "inputs": [
        {
          "name": "",
          "type": "bytes32"
        }
      ],
      "name": "markets",
      "outputs": [
        {
          "name": "creator",
          "type": "address"
        },
        {
          "name": "deadline",
          "type": "uint256"
        },
        {
          "name": "is_open",
          "type": "bool"
        },
        {
          "name": "consensus",
          "type": "uint256"
        }
      ],
      "payable": false,
      "stateMutability": "view",
      "type": "function"
    },
    {
      "anonymous": false,
      "inputs": [
        {
          "indexed": true,
          "name": "_creator",
          "type": "address"
        },
        {
          "indexed": true,
          "name": "_numberInArray",
          "type": "uint256"
        },
        {
          "indexed": true,
          "name": "_articleHash",
          "type": "bytes32"
        }
      ],
      "name": "ArticleCreated",
      "type": "event"
    },
    {
      "constant": false,
      "inputs": [
        {
          "name": "_article",
          "type": "string"
        },
        {
          "name": "_deadline",
          "type": "uint256"
        }
      ],
      "name": "createArticleMarket",
      "outputs": [
        {
          "name": "added",
          "type": "uint256"
        }
      ],
      "payable": false,
      "stateMutability": "nonpayable",
      "type": "function"
    },
    {
      "constant": true,
      "inputs": [
        {
          "name": "_article",
          "type": "string"
        }
      ],
      "name": "getAssignedReporters",
      "outputs": [
        {
          "name": "assigned",
          "type": "address[50]"
        }
      ],
      "payable": false,
      "stateMutability": "view",
      "type": "function"
    },
    {
      "constant": false,
      "inputs": [
        {
          "name": "_article",
          "type": "string"
        },
        {
          "name": "_vote",
          "type": "uint256"
        }
      ],
      "name": "vote",
      "outputs": [
        {
          "name": "success",
          "type": "bool"
        }
      ],
      "payable": true,
      "stateMutability": "payable",
      "type": "function"
    },
    {
      "constant": false,
      "inputs": [
        {
          "name": "_article",
          "type": "string"
        },
        {
          "name": "_vote",
          "type": "uint256"
        },
        {
          "name": "_rep",
          "type": "uint256"
        }
      ],
      "name": "report",
      "outputs": [],
      "payable": false,
      "stateMutability": "nonpayable",
      "type": "function"
    },
    {
      "constant": false,
      "inputs": [
        {
          "name": "_address",
          "type": "address"
        },
        {
          "name": "email",
          "type": "string"
        }
      ],
      "name": "addReporter",
      "outputs": [],
      "payable": false,
      "stateMutability": "nonpayable",
      "type": "function"
    },
    {
      "constant": false,
      "inputs": [
        {
          "name": "_article",
          "type": "string"
        }
      ],
      "name": "closeMarket",
      "outputs": [],
      "payable": false,
      "stateMutability": "nonpayable",
      "type": "function"
    },
    {
      "constant": false,
      "inputs": [
        {
          "name": "_reporter",
          "type": "address"
        }
      ],
      "name": "removeReporter",
      "outputs": [],
      "payable": false,
      "stateMutability": "nonpayable",
      "type": "function"
    },
    {
      "constant": true,
      "inputs": [
        {
          "name": "_article",
          "type": "string"
        }
      ],
      "name": "articleExists",
      "outputs": [
        {
          "name": "exists",
          "type": "bool"
        }
      ],
      "payable": false,
      "stateMutability": "view",
      "type": "function"
    },
    {
      "constant": true,
      "inputs": [
        {
          "name": "_reporter",
          "type": "address"
        }
      ],
      "name": "reporterExists",
      "outputs": [
        {
          "name": "exists",
          "type": "bool"
        }
      ],
      "payable": false,
      "stateMutability": "view",
      "type": "function"
    },
    {
      "constant": true,
      "inputs": [
        {
          "name": "_reporter",
          "type": "address"
        }
      ],
      "name": "reporterBlacklisted",
      "outputs": [
        {
          "name": "exists",
          "type": "bool"
        }
      ],
      "payable": false,
      "stateMutability": "view",
      "type": "function"
    },
    {
      "constant": true,
      "inputs": [
        {
          "name": "_article",
          "type": "string"
        }
      ],
      "name": "getVotes",
      "outputs": [
        {
          "name": "sum_votes",
          "type": "uint256[3]"
        }
      ],
      "payable": false,
      "stateMutability": "view",
      "type": "function"
    },
    {
      "constant": true,
      "inputs": [
        {
          "name": "_article",
          "type": "string"
        }
      ],
      "name": "getBets",
      "outputs": [
        {
          "name": "sum_bets",
          "type": "uint256[3]"
        }
      ],
      "payable": false,
      "stateMutability": "view",
      "type": "function"
    },
    {
      "constant": true,
      "inputs": [
        {
          "name": "_article",
          "type": "string"
        }
      ],
      "name": "getReports",
      "outputs": [
        {
          "name": "sum_reports",
          "type": "uint256[3]"
        }
      ],
      "payable": false,
      "stateMutability": "view",
      "type": "function"
    },
    {
      "constant": true,
      "inputs": [
        {
          "name": "_reporter",
          "type": "address"
        }
      ],
      "name": "getReporterRep",
      "outputs": [
        {
          "name": "rep",
          "type": "uint256"
        }
      ],
      "payable": false,
      "stateMutability": "view",
      "type": "function"
    },
    {
      "constant": true,
      "inputs": [
        {
          "name": "_article",
          "type": "string"
        }
      ],
      "name": "getRep",
      "outputs": [
        {
          "name": "sum_rep",
          "type": "uint256[3]"
        }
      ],
      "payable": false,
      "stateMutability": "view",
      "type": "function"
    },
    {
      "constant": true,
      "inputs": [
        {
          "name": "_article",
          "type": "string"
        }
      ],
      "name": "getConsensus",
      "outputs": [
        {
          "name": "consensus",
          "type": "uint256"
        }
      ],
      "payable": false,
      "stateMutability": "view",
      "type": "function"
    }
  ],
  "bytecode": "0x6080604052600f600355600060055534801561001a57600080fd5b506133928061002a6000396000f3006080604052600436106100fc576000357c0100000000000000000000000000000000000000000000000000000000900463ffffffff1680630fc26347146101015780631a68638a1461016a57806336a6702f1461020f5780633717ebc21461026a5780634155868f146102f35780635de5c212146103705780636b46dadc146103b3578063734f8482146104585780637564912b14610483578063805265e51461050d5780638057fef8146105b25780639779dedd1461060d57806398617d9c146106b25780639bf01b161461072f5780639d945dc414610786578063a638580314610807578063c845c15514610885578063e7feba5c1461092a575b600080fd5b34801561010d57600080fd5b50610168600480360381019080803590602001908201803590602001908080601f01602080910402602001604051908101604052809392919081815260200183838082843782019150505050505091929192905050506109b1565b005b34801561017657600080fd5b506101d1600480360381019080803590602001908201803590602001908080601f0160208091040260200160405190810160405280939291908181526020018383808284378201915050505050509192919290505050610c88565b6040518082600360200280838360005b838110156101fc5780820151818401526020810190506101e1565b5050505090500191505060405180910390f35b34801561021b57600080fd5b50610250600480360381019080803573ffffffffffffffffffffffffffffffffffffffff169060200190929190505050610e28565b604051808215151515815260200191505060405180910390f35b34801561027657600080fd5b506102f1600480360381019080803573ffffffffffffffffffffffffffffffffffffffff169060200190929190803590602001908201803590602001908080601f0160208091040260200160405190810160405280939291908181526020018383808284378201915050505050509192919290505050610ecb565b005b3480156102ff57600080fd5b5061035a600480360381019080803590602001908201803590602001908080601f01602080910402602001604051908101604052809392919081815260200183838082843782019150505050505091929192905050506110c3565b6040518082815260200191505060405180910390f35b34801561037c57600080fd5b506103b1600480360381019080803573ffffffffffffffffffffffffffffffffffffffff169060200190929190505050611221565b005b3480156103bf57600080fd5b5061041a600480360381019080803590602001908201803590602001908080601f016020809104026020016040519081016040528093929190818152602001838380828437820191505050505050919291929050505061148d565b6040518082600360200280838360005b8381101561044557808201518184015260208101905061042a565b5050505090500191505060405180910390f35b34801561046457600080fd5b5061046d61162d565b6040518082815260200191505060405180910390f35b34801561048f57600080fd5b506104b26004803603810190808035600019169060200190929190505050611633565b604051808573ffffffffffffffffffffffffffffffffffffffff1673ffffffffffffffffffffffffffffffffffffffff1681526020018481526020018315151515815260200182815260200194505050505060405180910390f35b34801561051957600080fd5b50610574600480360381019080803590602001908201803590602001908080601f0160208091040260200160405190810160405280939291908181526020018383808284378201915050505050509192919290505050611690565b6040518082600360200280838360005b8381101561059f578082015181840152602081019050610584565b5050505090500191505060405180910390f35b3480156105be57600080fd5b506105f3600480360381019080803573ffffffffffffffffffffffffffffffffffffffff169060200190929190505050611830565b604051808215151515815260200191505060405180910390f35b34801561061957600080fd5b50610674600480360381019080803590602001908201803590602001908080601f01602080910402602001604051908101604052809392919081815260200183838082843782019150505050505091929192905050506118a0565b6040518082600360200280838360005b8381101561069f578082015181840152602081019050610684565b5050505090500191505060405180910390f35b3480156106be57600080fd5b5061072d600480360381019080803590602001908201803590602001908080601f01602080910402602001604051908101604052809392919081815260200183838082843782019150505050505091929192908035906020019092919080359060200190929190505050611a40565b005b34801561073b57600080fd5b50610770600480360381019080803573ffffffffffffffffffffffffffffffffffffffff169060200190929190505050611dc9565b6040518082815260200191505060405180910390f35b34801561079257600080fd5b506107ed600480360381019080803590602001908201803590602001908080601f0160208091040260200160405190810160405280939291908181526020018383808284378201915050505050509192919290505050611e6e565b604051808215151515815260200191505060405180910390f35b61086b600480360381019080803590602001908201803590602001908080601f016020809104026020016040519081016040528093929190818152602001838380828437820191505050505050919291929080359060200190929190505050611faf565b604051808215151515815260200191505060405180910390f35b34801561089157600080fd5b506108ec600480360381019080803590602001908201803590602001908080601f016020809104026020016040519081016040528093929190818152602001838380828437820191505050505050919291929050505061230c565b6040518082603260200280838360005b838110156109175780820151818401526020810190506108fc565b5050505090500191505060405180910390f35b34801561093657600080fd5b5061099b600480360381019080803590602001908201803590602001908080601f01602080910402602001604051908101604052809392919081815260200183838082843782019150505050505091929192908035906020019092919050505061247f565b6040518082815260200191505060405180910390f35b60008060008060008060008060008060008b6040516020018082805190602001908083835b6020831015156109fb57805182526020820191506020810190506020830392506109d6565b6001836020036101000a0380198251168184511680821785525050505050509050019150506040516020818303038152906040526040518082805190602001908083835b602083101515610a645780518252602082019150602081019050602083039250610a3f565b6001836020036101000a03801982511681845116808217855250505050505090500191505060405180910390209a50600460008c600019166000191681526020019081526020016000209950428a60010154108015610ad157508960020160009054906101000a900460ff165b15610c7a5789603b016000600381101515610ae857fe5b0154985089603b016001600381101515610afe57fe5b0154975089603b016002600381101515610b1457fe5b0154965060009550889450896041016002600381101515610b3157fe5b01548a6041016001600381101515610b4557fe5b01540193508785108015610b5857508688105b15610b945760029550869450896041016001600381101515610b7657fe5b01548a6041016000600381101515610b8a57fe5b0154019350610bdb565b8785108015610ba257508688115b15610bda5760019550879450896041016002600381101515610bc057fe5b01548a6041016000600381101515610bd457fe5b01540193505b5b89603e016002600381101515610bed57fe5b01548a603e016001600381101515610c0157fe5b01548b603e016000600381101515610c1557fe5b015401019250600a83811515610c2757fe5b0491508183039050610c3a8a8784612902565b610c458a8783612a27565b610c508a8786612b62565b60008a60020160006101000a81548160ff0219169083151502179055508560ff168a604401819055505b505050505050505050505050565b610c90613057565b6000826040516020018082805190602001908083835b602083101515610ccb5780518252602082019150602081019050602083039250610ca6565b6001836020036101000a0380198251168184511680821785525050505050509050019150506040516020818303038152906040526040518082805190602001908083835b602083101515610d345780518252602082019150602081019050602083039250610d0f565b6001836020036101000a03801982511681845116808217855250505050505090500191505060405180910390209050600060046000836000191660001916815260200190815260200160002060000160009054906101000a900473ffffffffffffffffffffffffffffffffffffffff1673ffffffffffffffffffffffffffffffffffffffff161115610e2157600460008260001916600019168152602001908152602001600020603b01600380602002604051908101604052809291908260038015610e15576020028201915b815481526020019060010190808311610e01575b50505050509150610e22565b5b50919050565b600080600090505b600280549050811015610ec0578273ffffffffffffffffffffffffffffffffffffffff16600282815481101515610e6357fe5b9060005260206000200160009054906101000a900473ffffffffffffffffffffffffffffffffffffffff1673ffffffffffffffffffffffffffffffffffffffff161415610eb35760019150610ec5565b8080600101915050610e30565b600091505b50919050565b6000816040516020018082805190602001908083835b602083101515610f065780518252602082019150602081019050602083039250610ee1565b6001836020036101000a0380198251168184511680821785525050505050509050019150506040516020818303038152906040526040518082805190602001908083835b602083101515610f6f5780518252602082019150602081019050602083039250610f4a565b6001836020036101000a0380198251168184511680821785525050505050509050019150506040518091039020905060001515610fab84610e28565b1515141515610fb957600080fd5b60018390806001815401808255809150509060018203906000526020600020016000909192909190916101000a81548173ffffffffffffffffffffffffffffffffffffffff021916908373ffffffffffffffffffffffffffffffffffffffff1602179055505060606040519081016040528082600019168152602001600f8152602001600115158152506000808573ffffffffffffffffffffffffffffffffffffffff1673ffffffffffffffffffffffffffffffffffffffff168152602001908152602001600020600082015181600001906000191690556020820151816001015560408201518160020160006101000a81548160ff021916908315150217905550905050505050565b600080826040516020018082805190602001908083835b6020831015156110ff57805182526020820191506020810190506020830392506110da565b6001836020036101000a0380198251168184511680821785525050505050509050019150506040516020818303038152906040526040518082805190602001908083835b6020831015156111685780518252602082019150602081019050602083039250611143565b6001836020036101000a03801982511681845116808217855250505050505090500191505060405180910390209050600060046000836000191660001916815260200190815260200160002060000160009054906101000a900473ffffffffffffffffffffffffffffffffffffffff1673ffffffffffffffffffffffffffffffffffffffff16111561121a5760046000826000191660001916815260200190815260200160002060440154915061121b565b5b50919050565b60008060008060008573ffffffffffffffffffffffffffffffffffffffff1673ffffffffffffffffffffffffffffffffffffffff16815260200190815260200160002060020160006101000a81548160ff0219169083151502179055506001805490509150600090505b600180549050811015611351578273ffffffffffffffffffffffffffffffffffffffff166001828154811015156112be57fe5b9060005260206000200160009054906101000a900473ffffffffffffffffffffffffffffffffffffffff1673ffffffffffffffffffffffffffffffffffffffff1614156113465760018181548110151561131457fe5b9060005260206000200160006101000a81549073ffffffffffffffffffffffffffffffffffffffff0219169055611351565b60018101905061128b565b600180830381548110151561136257fe5b9060005260206000200160009054906101000a900473ffffffffffffffffffffffffffffffffffffffff1660018281548110151561139c57fe5b9060005260206000200160006101000a81548173ffffffffffffffffffffffffffffffffffffffff021916908373ffffffffffffffffffffffffffffffffffffffff16021790555060018083038154811015156113f557fe5b9060005260206000200160006101000a81549073ffffffffffffffffffffffffffffffffffffffff021916905560028390806001815401808255809150509060018203906000526020600020016000909192909190916101000a81548173ffffffffffffffffffffffffffffffffffffffff021916908373ffffffffffffffffffffffffffffffffffffffff16021790555050505050565b611495613057565b6000826040516020018082805190602001908083835b6020831015156114d057805182526020820191506020810190506020830392506114ab565b6001836020036101000a0380198251168184511680821785525050505050509050019150506040516020818303038152906040526040518082805190602001908083835b6020831015156115395780518252602082019150602081019050602083039250611514565b6001836020036101000a03801982511681845116808217855250505050505090500191505060405180910390209050600060046000836000191660001916815260200190815260200160002060000160009054906101000a900473ffffffffffffffffffffffffffffffffffffffff1673ffffffffffffffffffffffffffffffffffffffff16111561162657600460008260001916600019168152602001908152602001600020603e0160038060200260405190810160405280929190826003801561161a576020028201915b815481526020019060010190808311611606575b50505050509150611627565b5b50919050565b60055481565b60046020528060005260406000206000915090508060000160009054906101000a900473ffffffffffffffffffffffffffffffffffffffff16908060010154908060020160009054906101000a900460ff16908060440154905084565b611698613057565b6000826040516020018082805190602001908083835b6020831015156116d357805182526020820191506020810190506020830392506116ae565b6001836020036101000a0380198251168184511680821785525050505050509050019150506040516020818303038152906040526040518082805190602001908083835b60208310151561173c5780518252602082019150602081019050602083039250611717565b6001836020036101000a03801982511681845116808217855250505050505090500191505060405180910390209050600060046000836000191660001916815260200190815260200160002060000160009054906101000a900473ffffffffffffffffffffffffffffffffffffffff1673ffffffffffffffffffffffffffffffffffffffff1611156118295760046000826000191660001916815260200190815260200160002060380160038060200260405190810160405280929190826003801561181d576020028201915b815481526020019060010190808311611809575b5050505050915061182a565b5b50919050565b6000600115156000808473ffffffffffffffffffffffffffffffffffffffff1673ffffffffffffffffffffffffffffffffffffffff16815260200190815260200160002060020160009054906101000a900460ff1615151415611896576001905061189b565b600090505b919050565b6118a8613057565b6000826040516020018082805190602001908083835b6020831015156118e357805182526020820191506020810190506020830392506118be565b6001836020036101000a0380198251168184511680821785525050505050509050019150506040516020818303038152906040526040518082805190602001908083835b60208310151561194c5780518252602082019150602081019050602083039250611927565b6001836020036101000a03801982511681845116808217855250505050505090500191505060405180910390209050600060046000836000191660001916815260200190815260200160002060000160009054906101000a900473ffffffffffffffffffffffffffffffffffffffff1673ffffffffffffffffffffffffffffffffffffffff161115611a3957600460008260001916600019168152602001908152602001600020604101600380602002604051908101604052809291908260038015611a2d576020028201915b815481526020019060010190808311611a19575b50505050509150611a3a565b5b50919050565b6000836040516020018082805190602001908083835b602083101515611a7b5780518252602082019150602081019050602083039250611a56565b6001836020036101000a0380198251168184511680821785525050505050509050019150506040516020818303038152906040526040518082805190602001908083835b602083101515611ae45780518252602082019150602081019050602083039250611abf565b6001836020036101000a038019825116818451168082178552505050505050905001915050604051809103902090506001151560046000836000191660001916815260200190815260200160002060040160003373ffffffffffffffffffffffffffffffffffffffff1673ffffffffffffffffffffffffffffffffffffffff16815260200190815260200160002060020160009054906101000a900460ff161515141515611b9157600080fd5b600060046000836000191660001916815260200190815260200160002060040160003373ffffffffffffffffffffffffffffffffffffffff1673ffffffffffffffffffffffffffffffffffffffff16815260200190815260200160002060010154141515611bfe57600080fd5b816000803373ffffffffffffffffffffffffffffffffffffffff1673ffffffffffffffffffffffffffffffffffffffff1681526020019081526020016000206001015410151515611c4e57600080fd5b816000803373ffffffffffffffffffffffffffffffffffffffff1673ffffffffffffffffffffffffffffffffffffffff168152602001908152602001600020600101600082825403925050819055506060604051908101604052808481526020018381526020016001151581525060046000836000191660001916815260200190815260200160002060040160003373ffffffffffffffffffffffffffffffffffffffff1673ffffffffffffffffffffffffffffffffffffffff168152602001908152602001600020600082015181600001556020820151816001015560408201518160020160006101000a81548160ff0219169083151502179055509050506001600460008360001916600019168152602001908152602001600020603b0184600381101515611d7b57fe5b01600082825401925050819055508160046000836000191660001916815260200190815260200160002060410184600381101515611db557fe5b016000828254019250508190555050505050565b60008060008373ffffffffffffffffffffffffffffffffffffffff1673ffffffffffffffffffffffffffffffffffffffff16815260200190815260200160002060020160009054906101000a900460ff1615611e68576000808373ffffffffffffffffffffffffffffffffffffffff1673ffffffffffffffffffffffffffffffffffffffff168152602001908152602001600020600101549050611e69565b5b919050565b600080826040516020018082805190602001908083835b602083101515611eaa5780518252602082019150602081019050602083039250611e85565b6001836020036101000a0380198251168184511680821785525050505050509050019150506040516020818303038152906040526040518082805190602001908083835b602083101515611f135780518252602082019150602081019050602083039250611eee565b6001836020036101000a03801982511681845116808217855250505050505090500191505060405180910390209050600060046000836000191660001916815260200190815260200160002060000160009054906101000a900473ffffffffffffffffffffffffffffffffffffffff1673ffffffffffffffffffffffffffffffffffffffff161115611fa85760019150611fa9565b5b50919050565b600080600080600080341415611fc85760009450612302565b866040516020018082805190602001908083835b6020831015156120015780518252602082019150602081019050602083039250611fdc565b6001836020036101000a0380198251168184511680821785525050505050509050019150506040516020818303038152906040526040518082805190602001908083835b60208310151561206a5780518252602082019150602081019050602083039250612045565b6001836020036101000a03801982511681845116808217855250505050505090500191505060405180910390209350600460008560001916600019168152602001908152602001600020925060008360000160009054906101000a900473ffffffffffffffffffffffffffffffffffffffff1673ffffffffffffffffffffffffffffffffffffffff161415156122fd578260030160003373ffffffffffffffffffffffffffffffffffffffff1673ffffffffffffffffffffffffffffffffffffffff16815260200190815260200160002091506000826001015411156122405760009050816001015434111561216857816001015434039050612194565b816001015434101561218257348260010154039050612193565b8160010154341415612192573490505b5b5b85826000015414151561220a5760018360380183600001546003811015156121b857fe5b0160008282540392505081905550816001015483603e0183600001546003811015156121e057fe5b01600082825403925050819055503483603e018760038110151561220057fe5b0181905550612231565b80340383603e01836000015460038110151561222257fe5b01600082825401925050819055505b61223b3382612d0e565b6122c9565b3483603e018760038110151561225257fe5b0160008282540192505081905550826005013390806001815401808255809150509060018203906000526020600020016000909192909190916101000a81548173ffffffffffffffffffffffffffffffffffffffff021916908373ffffffffffffffffffffffffffffffffffffffff160217905550505b600183603801876003811015156122dc57fe5b01600082825401925050819055503482600101819055508582600001819055505b600194505b5050505092915050565b61231461307a565b6000826040516020018082805190602001908083835b60208310151561234f578051825260208201915060208101905060208303925061232a565b6001836020036101000a0380198251168184511680821785525050505050509050019150506040516020818303038152906040526040518082805190602001908083835b6020831015156123b85780518252602082019150602081019050602083039250612393565b6001836020036101000a03801982511681845116808217855250505050505090500191505060405180910390209050600460008260001916600019168152602001908152602001600020600601603280602002604051908101604052809291908260328015612472576020028201915b8160009054906101000a900473ffffffffffffffffffffffffffffffffffffffff1673ffffffffffffffffffffffffffffffffffffffff1681526020019060010190808311612428575b5050505050915050919050565b60008061248a61307a565b61249261309e565b61249a613128565b6000876040516020018082805190602001908083835b6020831015156124d557805182526020820191506020810190506020830392506124b0565b6001836020036101000a0380198251168184511680821785525050505050509050019150506040516020818303038152906040526040518082805190602001908083835b60208310151561253e5780518252602082019150602081019050602083039250612519565b6001836020036101000a03801982511681845116808217855250505050505090500191505060405180910390209450612575612d59565b9350610140604051908101604052803373ffffffffffffffffffffffffffffffffffffffff16815260200188815260200160011515815260200160006040519080825280602002602001820160405280156125df5781602001602082028038833980820191505090505b50815260200185815260200160606040519081016040528060008152602001600081526020016000815250815260200160606040519081016040528060008152602001600081526020016000815250815260200160606040519081016040528060008152602001600081526020016000815250815260200160606040519081016040528060008152602001600081526020016000815250815260200161010081525092508260046000876000191660001916815260200190815260200160002060008201518160000160006101000a81548173ffffffffffffffffffffffffffffffffffffffff021916908373ffffffffffffffffffffffffffffffffffffffff1602179055506020820151816001015560408201518160020160006101000a81548160ff021916908315150217905550606082015181600501908051906020019061272c92919061314c565b506080820151816006019060326127449291906131d6565b5060a08201518160380190600361275c929190613253565b5060c082015181603b01906003612774929190613253565b5060e082015181603e0190600361278c929190613253565b50610100820151816041019060036127a5929190613253565b5061012082015181604401559050506060604051908101604052806000815260200160008152602001600115158152509150600090505b603281101561289757816004600087600019166000191681526020019081526020016000206004016000868460328110151561281457fe5b602002015173ffffffffffffffffffffffffffffffffffffffff1673ffffffffffffffffffffffffffffffffffffffff168152602001908152602001600020600082015181600001556020820151816001015560408201518160020160006101000a81548160ff02191690831515021790555090505080806001019150506127dc565b84600019166005543373ffffffffffffffffffffffffffffffffffffffff167f1ebb59267ec489d735c87beeaa0db77365ddcfdf4d260f7a3fcc9d8baa2c1e6260405160405180910390a4600160056000828254019250508190555060019550505050505092915050565b600080600080603293505b83831015612a1e57866006018360328110151561292657fe5b0160009054906101000a900473ffffffffffffffffffffffffffffffffffffffff1691508660040160008373ffffffffffffffffffffffffffffffffffffffff1673ffffffffffffffffffffffffffffffffffffffff16815260200190815260200160002090508060020160009054906101000a900460ff1680156129b157508560ff168160000154145b15612a09578173ffffffffffffffffffffffffffffffffffffffff166108fc85878115156129db57fe5b049081150290604051600060405180830381858888f19350505050158015612a07573d6000803e3d6000fd5b505b8280600101935050828060010193505061290d565b50505050505050565b6000806000806000876005018054905094505b84841015612b58578760050184815481101515612a5357fe5b9060005260206000200160009054906101000a900473ffffffffffffffffffffffffffffffffffffffff1692508760030160008473ffffffffffffffffffffffffffffffffffffffff1673ffffffffffffffffffffffffffffffffffffffff16815260200190815260200160002091508660ff1682600001541415612b435787603e018760ff16600381101515612ae657fe5b015482600101548702811515612af857fe5b0490508273ffffffffffffffffffffffffffffffffffffffff166108fc829081150290604051600060405180830381858888f19350505050158015612b41573d6000803e3d6000fd5b505b83806001019450508380600101945050612a3a565b5050505050505050565b6000806000806000603294505b84841015612d04578760060184603281101515612b8857fe5b0160009054906101000a900473ffffffffffffffffffffffffffffffffffffffff1692508760040160008473ffffffffffffffffffffffffffffffffffffffff1673ffffffffffffffffffffffffffffffffffffffff16815260200190815260200160002091508160020160009054906101000a900460ff1615612cef578660ff1682600001541415612c9857876041018760ff16600381101515612c2957fe5b015482600101548702811515612c3b57fe5b048260010154019050806000808573ffffffffffffffffffffffffffffffffffffffff1673ffffffffffffffffffffffffffffffffffffffff16815260200190815260200160002060010160008282540192505081905550612cee565b6003546000808573ffffffffffffffffffffffffffffffffffffffff1673ffffffffffffffffffffffffffffffffffffffff168152602001908152602001600020600101541015612ced57612cec83611221565b5b5b5b83806001019450508380600101945050612b6f565b5050505050505050565b8173ffffffffffffffffffffffffffffffffffffffff166108fc829081150290604051600060405180830381858888f19350505050158015612d54573d6000803e3d6000fd5b505050565b612d6161307a565b612d69613293565b600080600080600060326001805490501015612e2557600094505b600180549050851015612e1d57600185815481101515612da057fe5b9060005260206000200160009054906101000a900473ffffffffffffffffffffffffffffffffffffffff168786603281101515612dd957fe5b602002019073ffffffffffffffffffffffffffffffffffffffff16908173ffffffffffffffffffffffffffffffffffffffff16815250508480600101955050612d84565b86965061304e565b600093505b603284101561304a57600180805490506002600143034033426040516020018084600019166000191681526020018373ffffffffffffffffffffffffffffffffffffffff1673ffffffffffffffffffffffffffffffffffffffff166c0100000000000000000000000002815260140182815260200193505050506040516020818303038152906040526040518082805190602001908083835b602083101515612ee85780518252602082019150602081019050602083039250612ec3565b6001836020036101000a0380198251168184511680821785525050505050509050019150506020604051808303816000865af1158015612f2c573d6000803e3d6000fd5b5050506040513d6020811015612f4157600080fd5b810190808051906020019092919050505060019004811515612f5f57fe5b0601925060009150600090505b83811015612fa057828682603281101515612f8357fe5b60200201511415612f9357600191505b8080600101915050612f6c565b81151561304557828685603281101515612fb657fe5b602002018181525050600183815481101515612fce57fe5b9060005260206000200160009054906101000a900473ffffffffffffffffffffffffffffffffffffffff16878560328110151561300757fe5b602002019073ffffffffffffffffffffffffffffffffffffffff16908173ffffffffffffffffffffffffffffffffffffffff16815250506001840193505b612e2a565b8696505b50505050505090565b606060405190810160405280600390602082028038833980820191505090505090565b61064060405190810160405280603290602082028038833980820191505090505090565b61086060405190810160405280600073ffffffffffffffffffffffffffffffffffffffff16815260200160008152602001600015158152602001606081526020016130e76132b7565b81526020016130f46132db565b81526020016131016132db565b815260200161310e6132db565b815260200161311b6132db565b8152602001600081525090565b60606040519081016040528060008152602001600081526020016000151581525090565b8280548282559060005260206000209081019282156131c5579160200282015b828111156131c45782518260006101000a81548173ffffffffffffffffffffffffffffffffffffffff021916908373ffffffffffffffffffffffffffffffffffffffff1602179055509160200191906001019061316c565b5b5090506131d291906132fe565b5090565b8260328101928215613242579160200282015b828111156132415782518260006101000a81548173ffffffffffffffffffffffffffffffffffffffff021916908373ffffffffffffffffffffffffffffffffffffffff160217905550916020019190600101906131e9565b5b50905061324f91906132fe565b5090565b8260038101928215613282579160200282015b82811115613281578251825591602001919060010190613266565b5b50905061328f9190613341565b5090565b61064060405190810160405280603290602082028038833980820191505090505090565b61064060405190810160405280603290602082028038833980820191505090505090565b606060405190810160405280600390602082028038833980820191505090505090565b61333e91905b8082111561333a57600081816101000a81549073ffffffffffffffffffffffffffffffffffffffff021916905550600101613304565b5090565b90565b61336391905b8082111561335f576000816000905550600101613347565b5090565b905600a165627a7a723058203b1d284bf15d0f6fb837a8f3d26949086b541dce3c5ac4d0f13737851b2b20ec0029",
  "source": "pragma solidity ^0.4.22;\n\ncontract FakeNewsMarket {\n\n    mapping(address => Reporter) reportersData; //address to email\n    address[] reporters;\n    address[] blacklisted;\n    uint256 minRep = 15;\n\n    struct Reporter {\n        bytes32 email;\n        uint reputation;\n        bool is_valid;\n    }\n\n    struct Bet {\n        uint vote;   // 0,1,2\n        uint amount;\n    }\n\n    struct Report {\n        uint vote;   // 0,1,2\n        uint reputation;\n        bool is_valid;\n    }\n\n    struct ArticleMarket{\n        address creator;\n        uint256 deadline;\n        bool is_open;\n        mapping(address => Bet) votes;\n        mapping(address => Report) reports;\n        address[] voters;\n        address[50] reporters;\n        uint[3] sum_votes;\n        uint[3] sum_reports;\n        uint[3] sum_bets;\n        uint[3] sum_rep; //sum of reputation\n        uint consensus;\n    }\n\n    event ArticleCreated(address indexed _creator, uint indexed _numberInArray, bytes32 indexed _articleHash);\n\n    mapping(bytes32 => ArticleMarket) public markets;\n    uint public numArticles = 0;\n\n    function createArticleMarket(string _article, uint256 _deadline) public returns (uint added){\n      bytes32 article_hash = keccak256(abi.encodePacked(_article));\n      address[50] memory reporterAddresses = assignReporters();\n      ArticleMarket memory new_market = ArticleMarket({\n          creator: msg.sender,\n          deadline: _deadline,\n          is_open: true,\n          sum_votes: [uint(0),uint(0),uint(0)],\n          sum_reports: [uint(0),uint(0),uint(0)],\n          sum_bets: [uint(0),uint(0),uint(0)],\n          sum_rep: [uint(0), uint(0), uint(0)],\n          voters: new address[](0),\n          reporters: reporterAddresses,\n          consensus: 256\n      });\n      markets[article_hash] = new_market;\n      Report memory report = Report({\n         is_valid: true,\n         vote: 0,\n         reputation: 0\n      });\n      for (uint i = 0; i < 50; i++){\n        markets[article_hash].reports[reporterAddresses[i]]= report; //initialize reports\n      }\n      emit ArticleCreated(msg.sender, numArticles, article_hash);\n      numArticles += 1;\n      return 1;\n    }\n\n\n    function getAssignedReporters(string _article) public view returns (address[50] assigned){\n      bytes32 article_hash = keccak256(abi.encodePacked(_article));\n      return markets[article_hash].reporters;\n    }\n\n    function vote(string _article, uint _vote) public payable returns (bool success) {\n        // vote function\n        // check if sender's address is already in array, if so, change existing\n        // add address and money to map\n        if (msg.value == 0) {\n            return false;\n        }\n        bytes32 article_hash = keccak256(abi.encodePacked(_article));\n        ArticleMarket storage market = markets[article_hash];\n        if (market.creator != 0) { //market exists\n            Bet storage curr_bet = market.votes[msg.sender];\n            if (curr_bet.amount > 0) {\n                //voter has already bet/voted\n                uint refund = 0;\n                if (msg.value > curr_bet.amount) {\n                    //send back difference (msg.value - curr_bet.amount)\n                    refund = msg.value - curr_bet.amount;\n\n                } else if (msg.value < curr_bet.amount) {\n                    //send back difference (curr_bet.amount - msg.value)\n                    refund = curr_bet.amount - msg.value;\n                } else if (msg.value == curr_bet.amount) {\n                    //reject new money\n                    refund = msg.value;\n                }\n                if (curr_bet.vote != _vote) { //voter is changing previous vote\n                    market.sum_votes[curr_bet.vote] -= 1;\n                    market.sum_bets[curr_bet.vote] -= curr_bet.amount;\n                    market.sum_bets[_vote] = msg.value;\n                } else {\n                    market.sum_bets[curr_bet.vote] += (msg.value - refund);\n                }\n                refund_voter(msg.sender, refund);\n\n            } else {\n                market.sum_bets[_vote] += msg.value;\n                market.voters.push(msg.sender);\n            }\n            market.sum_votes[_vote] += 1;\n            curr_bet.amount = msg.value;\n            curr_bet.vote = _vote;\n        }\n        return true;\n        }\n\n    function refund_voter(address _to, uint _amount) private {\n        _to.transfer(_amount);\n    }\n\n    function report(string _article, uint _vote, uint _rep) {\n      bytes32 hash = keccak256(abi.encodePacked(_article));\n      require(markets[hash].reports[msg.sender].is_valid == true);\n      require(markets[hash].reports[msg.sender].reputation == 0); //not reported yet\n      require(reportersData[msg.sender].reputation >= _rep);\n      reportersData[msg.sender].reputation -= _rep;\n      markets[hash].reports[msg.sender] = Report({\n        vote : _vote,\n        reputation : _rep,\n        is_valid: true\n      });\n      markets[hash].sum_reports[_vote] += 1;\n      markets[hash].sum_rep[_vote] += _rep;\n    }\n\n    function addReporter(address _address, string email) {\n      bytes32 hash = keccak256(abi.encodePacked(email));\n      require(reporterBlacklisted(_address) == false);\n      reporters.push(_address);\n      reportersData[_address] = Reporter({\n        email : hash,\n        reputation: 15, //starting reputation\n        is_valid: true\n      });\n    }\n\n    function assignReporters() private view returns (address[50] assigned){\n        uint[50] memory indices;\n        if (reporters.length < 50) {\n            for (uint r = 0; r < reporters.length; r++){\n              assigned[r] = reporters[r]; //copy whatever reporters exist into addresses\n            }\n            return assigned;\n        }\n        uint i = 0;\n        while (i < 50) {\n          uint rep_idx = uint(sha256(abi.encodePacked(blockhash(block.number-1), msg.sender, now)))%reporters.length + 1;\n          bool exists = false;\n          for (uint j = 0; j < i; j++) {\n            if(indices[j] == rep_idx) {\n              exists = true;\n            }\n          }\n          if (!exists){\n            indices[i] = rep_idx;\n            assigned[i] = reporters[rep_idx];\n            i += 1;\n          }\n        }\n        return assigned;\n    }\n\n    function closeMarket(string _article) {\n        //TODO: check deadline\n        bytes32 hash = keccak256(abi.encodePacked(_article));\n        ArticleMarket storage market = markets[hash];\n        if (market.deadline < now && market.is_open) {\n          //determine winning answer from reporters\n          uint256 reports_0 = market.sum_reports[0];\n          uint256 reports_1 = market.sum_reports[1];\n          uint256 reports_2 = market.sum_reports[2];\n          //set vote 0 to be the winner\n          uint8 consensus = 0;\n          uint256 max_reports = reports_0;\n          uint256 rep_redistribute = market.sum_rep[1] + market.sum_rep[2];\n          if (max_reports < reports_1 && reports_1 < reports_2) {\n              //vote 2 is the winner\n              consensus = 2;\n              max_reports = reports_2;\n              rep_redistribute = market.sum_rep[0] + market.sum_rep[1];\n          } else if (max_reports < reports_1 && reports_1 > reports_2) {\n              //vote 1 is the winner\n              consensus = 1;\n              max_reports = reports_1;\n              rep_redistribute = market.sum_rep[0] + market.sum_rep[2];\n          }\n          //TODO: handle case where some of the # reports is equal\n          uint256 winnings = market.sum_bets[0] + market.sum_bets[1] + market.sum_bets[2];\n          uint256 reporter_winnings = winnings/10;\n          uint256 correct_voter_winnings = winnings - reporter_winnings;\n\n          distributeWinningsToReporters(market, consensus, reporter_winnings);\n          distributeWinningsToVoters(market, consensus, correct_voter_winnings);\n          distributeReputation(market, consensus, rep_redistribute);\n          //close market\n          market.is_open = false;\n          market.consensus = consensus;\n          }\n    }\n\n    function distributeWinningsToReporters(ArticleMarket storage _market, uint8 _consensus, uint256 _reporterWinnings) private {\n        uint256 num_reporters = _market.reporters.length;\n        for(uint i;i<num_reporters;i++) {\n            address reporter = _market.reporters[i];\n            Report storage inReport = _market.reports[reporter];\n            if (inReport.is_valid && inReport.vote == _consensus) {\n                reporter.transfer(_reporterWinnings/num_reporters);\n            }\n            i++;\n        }\n    }\n\n    function distributeWinningsToVoters(ArticleMarket storage _market, uint8 _consensus, uint256 _correctVoterWinnings) private {\n        uint256 num_voters = _market.voters.length;\n        for(uint i;i<num_voters;i++) {\n            address voter = _market.voters[i];\n            Bet storage voter_bet = _market.votes[voter];\n            if (voter_bet.vote == _consensus) {\n                uint256 voter_winnings = _correctVoterWinnings * voter_bet.amount / _market.sum_bets[_consensus];\n                voter.transfer(voter_winnings);\n            }\n            i++;\n        }\n    }\n\n    function removeReporter(address _reporter){\n      reportersData[_reporter].is_valid = false;\n      uint initLen = reporters.length;\n      uint idx  = 0;\n      while (idx < reporters.length){\n        if (reporters[idx] == _reporter) {\n          delete reporters[idx];\n          break;\n        }\n        idx += 1;\n      }\n      reporters[idx] = reporters[initLen-1];\n      delete reporters[initLen-1]; //copy last element into the empty spot and delete it\n      blacklisted.push(_reporter); //so can't sign up again :)\n    }\n\n    function distributeReputation(ArticleMarket storage _market, uint8 _consensus, uint256 _correctReporterWinnings) private {\n      uint256 num_reporters = _market.reporters.length;\n      for(uint i; i<num_reporters; i++) {\n          address reporter = _market.reporters[i];\n          Report storage inReport = _market.reports[reporter];\n          if (inReport.is_valid) {\n            if (inReport.vote == _consensus) {\n              uint256 rep_winnings = inReport.reputation + _correctReporterWinnings*inReport.reputation/_market.sum_rep[_consensus];\n              reportersData[reporter].reputation += rep_winnings;\n            }\n            else {\n              if (reportersData[reporter].reputation < minRep){\n                removeReporter(reporter);\n              }\n            }\n          }\n          i++;\n      }\n    }\n\n    function articleExists(string _article) public view returns (bool exists) {\n    bytes32 hash = keccak256(abi.encodePacked(_article));\n    if (markets[hash].creator > 0) {\n        return true;\n    }\n    }\n\n    function reporterExists(address _reporter) public view returns (bool exists) {\n      if (reportersData[_reporter].is_valid == true) {\n        return true;\n      }\n      return false;\n    }\n\n    function reporterBlacklisted(address _reporter) public view returns (bool exists) {\n      for (uint i = 0; i < blacklisted.length; i++){\n        if (blacklisted[i] == _reporter){\n          return true;\n        }\n      }\n      return false;\n    }\n\n    function getVotes(string _article) public view returns (uint[3] sum_votes) {\n        bytes32 hash = keccak256(abi.encodePacked(_article));\n        if (markets[hash].creator > 0) {\n            return markets[hash].sum_votes;\n        }\n    }\n\n    function getBets(string _article) public view returns (uint[3] sum_bets) {\n        bytes32 hash = keccak256(abi.encodePacked(_article));\n        if (markets[hash].creator > 0) {\n            return markets[hash].sum_bets;\n        }\n    }\n\n    function getReports(string _article) public view returns (uint[3] sum_reports) {\n        bytes32 hash = keccak256(abi.encodePacked(_article));\n        if (markets[hash].creator > 0) {\n            return markets[hash].sum_reports;\n        }\n    }\n\n    function getReporterRep(address _reporter) public view returns (uint rep){\n      if (reportersData[_reporter].is_valid) {\n            return reportersData[_reporter].reputation;\n      }\n    }\n\n    function getRep(string _article) public view returns (uint[3] sum_rep) {\n        bytes32 hash = keccak256(abi.encodePacked(_article));\n        if (markets[hash].creator > 0) {\n            return markets[hash].sum_rep;\n        }\n    }\n\n    function getConsensus(string _article) public view returns (uint consensus) {\n      bytes32 hash = keccak256(abi.encodePacked(_article));\n      if (markets[hash].creator > 0) {\n          return markets[hash].consensus;\n      }\n    }\n\n  }\n",
  "sourcePath": "/Users/alicehau/CS359b/class_github/cs359b-fake-news-detector/contracts/contracts/FakeNewsMarket.sol",
  "compiler": {
    "name": "solc",
    "version": "0.4.23+commit.124ca40d.Emscripten.clang"
  },
  "schemaVersion": "2.0.0",
  "updatedAt": "2018-06-13T03:51:26.048Z"
}