{
  "contractName": "FakeNewsMarket",
  "abi": [
    {
      "constant": true,
      "inputs": [
        {
          "name": "",
          "type": "bytes32"
        }
      ],
      "name": "markets",
      "outputs": [
        {
          "name": "creator",
          "type": "address"
        }
      ],
      "payable": false,
      "stateMutability": "view",
      "type": "function"
    },
    {
      "constant": false,
      "inputs": [
        {
          "name": "_article",
          "type": "string"
        }
      ],
      "name": "createArticleMarket",
      "outputs": [
        {
          "name": "",
          "type": "uint256"
        }
      ],
      "payable": false,
      "stateMutability": "nonpayable",
      "type": "function"
    },
    {
      "constant": false,
      "inputs": [
        {
          "name": "_article",
          "type": "string"
        },
        {
          "name": "_vote",
          "type": "uint256"
        },
        {
          "name": "_amount",
          "type": "uint256"
        }
      ],
      "name": "vote",
      "outputs": [
        {
          "name": "success",
          "type": "bool"
        }
      ],
      "payable": true,
      "stateMutability": "payable",
      "type": "function"
    },
    {
      "constant": false,
      "inputs": [
        {
          "name": "_article",
          "type": "string"
        },
        {
          "name": "_vote",
          "type": "uint256"
        },
        {
          "name": "_rep",
          "type": "uint256"
        }
      ],
      "name": "report",
      "outputs": [],
      "payable": false,
      "stateMutability": "nonpayable",
      "type": "function"
    },
    {
      "constant": false,
      "inputs": [],
      "name": "assignReporters",
      "outputs": [
        {
          "name": "assigned",
          "type": "address[10]"
        }
      ],
      "payable": false,
      "stateMutability": "nonpayable",
      "type": "function"
    },
    {
      "constant": true,
      "inputs": [
        {
          "name": "_article",
          "type": "string"
        }
      ],
      "name": "articleExists",
      "outputs": [
        {
          "name": "exists",
          "type": "bool"
        }
      ],
      "payable": false,
      "stateMutability": "view",
      "type": "function"
    }
  ],
  "bytecode": "0x608060405234801561001057600080fd5b50610dea806100206000396000f300608060405260043610610078576000357c0100000000000000000000000000000000000000000000000000000000900463ffffffff1680630891d3581461007d5780637564912b1461010557806398617d9c146101765780639c1f4ef7146101f35780639d945dc414610246578063ab592769146102c7575b600080fd5b6100eb600480360381019080803590602001908201803590602001908080601f01602080910402602001604051908101604052809392919081815260200183838082843782019150505050505091929192908035906020019092919080359060200190929190505050610344565b604051808215151515815260200191505060405180910390f35b34801561011157600080fd5b5061013460048036038101908080356000191690602001909291905050506105bc565b604051808273ffffffffffffffffffffffffffffffffffffffff1673ffffffffffffffffffffffffffffffffffffffff16815260200191505060405180910390f35b34801561018257600080fd5b506101f1600480360381019080803590602001908201803590602001908080601f016020809104026020016040519081016040528093929190818152602001838380828437820191505050505050919291929080359060200190929190803590602001909291905050506105fa565b005b3480156101ff57600080fd5b50610208610796565b6040518082600a60200280838360005b83811015610233578082015181840152602081019050610218565b5050505090500191505060405180910390f35b34801561025257600080fd5b506102ad600480360381019080803590602001908201803590602001908080601f01602080910402602001604051908101604052809392919081815260200183838082843782019150505050505091929192905050506108c9565b604051808215151515815260200191505060405180910390f35b3480156102d357600080fd5b5061032e600480360381019080803590602001908201803590602001908080601f016020809104026020016040519081016040528093929190818152602001838380828437820191505050505050919291929050505061099e565b6040518082815260200191505060405180910390f35b6000806000806000876040518082805190602001908083835b602083101515610382578051825260208201915060208101905060208303925061035d565b6001836020036101000a03801982511681845116808217855250505050505090500191505060405180910390209350600260008560001916600019168152602001908152602001600020925060008360000160009054906101000a900473ffffffffffffffffffffffffffffffffffffffff1673ffffffffffffffffffffffffffffffffffffffff161415156105ad578260010160003373ffffffffffffffffffffffffffffffffffffffff1673ffffffffffffffffffffffffffffffffffffffff168152602001908152602001600020915060008260010154111561055857600090508160010154341115610480578160010154340390506104ac565b816001015434101561049a573482600101540390506104ab565b81600101543414156104aa573490505b5b5b8682600001541415156105225760018360030183600001546003811015156104d057fe5b016000828254039250508190555081600101548360090183600001546003811015156104f857fe5b016000828254039250508190555085836009018860038110151561051857fe5b0181905550610549565b80860383600901836000015460038110151561053a57fe5b01600082825401925050819055505b6105533382610c51565b610579565b85836009018860038110151561056a57fe5b01600082825401925050819055505b6001836003018860038110151561058c57fe5b01600082825401925050819055508582600101819055508682600001819055505b60019450505050509392505050565b60026020528060005260406000206000915090508060000160009054906101000a900473ffffffffffffffffffffffffffffffffffffffff16905081565b6000836040518082805190602001908083835b602083101515610632578051825260208201915060208101905060208303925061060d565b6001836020036101000a038019825116818451168082178552505050505050905001915050604051809103902090506001151560026000836000191660001916815260200190815260200160002060020160003373ffffffffffffffffffffffffffffffffffffffff1673ffffffffffffffffffffffffffffffffffffffff16815260200190815260200160002060020160009054906101000a900460ff1615151415156106df57600080fd5b6060604051908101604052808481526020018381526020016001151581525060026000836000191660001916815260200190815260200160002060020160003373ffffffffffffffffffffffffffffffffffffffff1673ffffffffffffffffffffffffffffffffffffffff168152602001908152602001600020600082015181600001556020820151816001015560408201518160020160006101000a81548160ff02191690831515021790555090505050505050565b61079e610c9c565b6107a6610cc0565b600080600080600093505b600a8410156108be57600180805490506001430340600190048115156107d357fe5b0601925060009150600090505b8381101561081457828582600a811015156107f757fe5b6020020151141561080757600191505b80806001019150506107e0565b8115156108b957828585600a8110151561082a57fe5b60200201818152505060018381548110151561084257fe5b9060005260206000200160009054906101000a900473ffffffffffffffffffffffffffffffffffffffff168685600a8110151561087b57fe5b602002019073ffffffffffffffffffffffffffffffffffffffff16908173ffffffffffffffffffffffffffffffffffffffff16815250506001840193505b6107b1565b859550505050505090565b600080826040518082805190602001908083835b60208310151561090257805182526020820191506020810190506020830392506108dd565b6001836020036101000a03801982511681845116808217855250505050505090500191505060405180910390209050600060026000836000191660001916815260200190815260200160002060000160009054906101000a900473ffffffffffffffffffffffffffffffffffffffff1673ffffffffffffffffffffffffffffffffffffffff1611156109975760019150610998565b5b50919050565b6000806109a9610ce4565b6109b1610c9c565b6000856040518082805190602001908083835b6020831015156109e957805182526020820191506020810190506020830392506109c4565b6001836020036101000a038019825116818451168082178552505050505050905001915050604051809103902093506080604051908101604052803373ffffffffffffffffffffffffffffffffffffffff1681526020016060604051908101604052806000815260200160008152602001600081525081526020016060604051908101604052806000815260200160008152602001600081525081526020016060604051908101604052806000815260200160008152602001600081525081525092508260026000866000191660001916815260200190815260200160002060008201518160000160006101000a81548173ffffffffffffffffffffffffffffffffffffffff021916908373ffffffffffffffffffffffffffffffffffffffff160217905550602082015181600301906003610b26929190610d36565b50604082015181600601906003610b3e929190610d36565b50606082015181600901906003610b56929190610d36565b50905050610b62610796565b9150600090505b600a811015610c445760606040519081016040528060008152602001600081526020016001151581525060026000866000191660001916815260200190815260200160002060020160008484600a81101515610bc157fe5b602002015173ffffffffffffffffffffffffffffffffffffffff1673ffffffffffffffffffffffffffffffffffffffff168152602001908152602001600020600082015181600001556020820151816001015560408201518160020160006101000a81548160ff0219169083151502179055509050508080600101915050610b69565b6001945050505050919050565b8173ffffffffffffffffffffffffffffffffffffffff166108fc829081150290604051600060405180830381858888f19350505050158015610c97573d6000803e3d6000fd5b505050565b61014060405190810160405280600a90602082028038833980820191505090505090565b61014060405190810160405280600a90602082028038833980820191505090505090565b61014060405190810160405280600073ffffffffffffffffffffffffffffffffffffffff168152602001610d16610d76565b8152602001610d23610d76565b8152602001610d30610d76565b81525090565b8260038101928215610d65579160200282015b82811115610d64578251825591602001919060010190610d49565b5b509050610d729190610d99565b5090565b606060405190810160405280600390602082028038833980820191505090505090565b610dbb91905b80821115610db7576000816000905550600101610d9f565b5090565b905600a165627a7a723058200d7606fc7f958451eb8e0b4f2d0990b728772e2443c69c023e511204e8c1f5b60029",
  "source": "pragma solidity ^0.4.22;\n\ncontract FakeNewsMarket {\n\n    mapping(address => bytes32) reportersEmails; //address to email\n    address[] reporters;\n\n    struct Bet {\n        uint vote;   // 0,1,2\n        uint amount;\n    }\n\n    struct Report {\n        uint vote;   // 0,1,2\n        uint reputation;\n        bool valid;\n    }\n\n    struct ArticleMarket{\n        address creator;\n        //uint256 votingPeriod;\n        mapping(address => Bet) votes;\n        mapping(address => Report) reporters;\n        uint[3] sum_votes;\n        uint[3] sum_reports;\n        uint[3] sum_bets;\n    }\n\n    /*event ArticleCreated(address indexed _creator, uint indexed _numberInArray, bytes32 indexed _articleHash);*/\n\n    mapping(bytes32 => ArticleMarket) public markets;\n\n    function createArticleMarket(string _article) public returns (uint256){\n    /*  uint256 initLen = markets.length;*/\n      bytes32 article_hash = keccak256(_article);\n      ArticleMarket memory new_market = ArticleMarket({\n          creator: msg.sender,\n          sum_votes: [uint(0),uint(0),uint(0)],\n          sum_reports: [uint(0),uint(0),uint(0)],\n          sum_bets: [uint(0),uint(0),uint(0)]\n      });\n      markets[article_hash] = new_market;\n      address[10] memory reporterAddresses = assignReporters();\n      for (uint i = 0; i < 10; i++){\n        markets[article_hash].reporters[reporterAddresses[i]] = Report({valid: true, vote: 0, reputation: 0}); //initialize reports\n      }\n\n    /*  emit ArticleCreated(msg.sender, initLen, article_hash);*/\n      return 1;\n    }\n\n    function vote(string _article, uint _vote, uint _amount) public payable returns (bool success) {\n        // vote function\n        // check if sender's address is already in array, if so, change existing\n        // add address and money to map\n        bytes32 article_hash = keccak256(_article);\n        ArticleMarket storage market = markets[article_hash];\n        if (market.creator != 0) { //market exists\n            Bet storage curr_bet = market.votes[msg.sender];\n            if (curr_bet.amount > 0) {\n                //voter has already bet/voted\n                uint refund = 0;\n                if (msg.value > curr_bet.amount) {\n                    //send back difference (msg.value - curr_bet.amount)\n                    refund = msg.value - curr_bet.amount;\n\n                } else if (msg.value < curr_bet.amount) {\n                    //send back difference (curr_bet.amount - msg.value)\n                    refund = curr_bet.amount - msg.value;\n                } else if (msg.value == curr_bet.amount) {\n                    //reject new money\n                    refund = msg.value;\n                }\n                if (curr_bet.vote != _vote) { //voter is changing previous vote\n                    market.sum_votes[curr_bet.vote] -= 1;\n                    market.sum_bets[curr_bet.vote] -= curr_bet.amount;\n                    market.sum_bets[_vote] = _amount;\n                } else {\n                    market.sum_bets[curr_bet.vote] += (_amount - refund);\n                }\n                refund_voter(msg.sender, refund);\n            } else {\n                market.sum_bets[_vote] += _amount;\n            }\n            market.sum_votes[_vote] += 1;\n            curr_bet.amount = _amount;\n            curr_bet.vote = _vote;\n        }\n        return true;\n        }\n\n        function refund_voter(address _to, uint _amount) private {\n            _to.transfer(_amount);\n        }\n\n    function report(string _article, uint _vote, uint _rep) public {\n      bytes32 hash = keccak256(_article);\n      require(markets[hash].reporters[msg.sender].valid == true);\n      markets[hash].reporters[msg.sender] = Report({\n        vote : _vote,\n        reputation : _rep,\n        valid: true\n      });\n      //what to do if updating reputation?\n    }\n\n    // assign reporters\n    function assignReporters() public returns (address[10] assigned){\n        uint[10] memory indices;\n        uint i = 0;\n        while (i < 10) {\n          uint random_number = uint(blockhash(block.number-1))%reporters.length + 1;\n          bool exists = false;\n          for (uint j = 0; j < i; j++) {\n            if(indices[j] == random_number) {\n              exists = true;\n            }\n          }\n          if (!exists){\n            indices[i] = random_number;\n            assigned[i] = reporters[random_number];\n            i += 1;\n          }\n        }\n        return assigned;\n    }\n\n    // close market and distribute money\n\n    function articleExists(string _article) public view returns (bool exists) {\n    bytes32 hash = keccak256(_article);\n    if (markets[hash].creator > 0) {\n        return true;\n    }\n  }\n\n\n  }\n",
  "sourcePath": "/Users/alicehau/CS359b/class_github/cs359b-fake-news-detector/contracts/contracts/FakeNewsMarket.sol",
  "compiler": {
    "name": "solc",
    "version": "0.4.23+commit.124ca40d.Emscripten.clang"
  },
  "schemaVersion": "2.0.0",
  "updatedAt": "2018-05-25T17:25:47.372Z"
}