{
  "contractName": "FakeNewsMarket",
  "abi": [
    {
      "constant": true,
      "inputs": [
        {
          "name": "",
          "type": "bytes32"
        }
      ],
      "name": "markets",
      "outputs": [
        {
          "name": "creator",
          "type": "address"
        }
      ],
      "payable": false,
      "stateMutability": "view",
      "type": "function"
    },
    {
      "constant": false,
      "inputs": [
        {
          "name": "_article",
          "type": "string"
        }
      ],
      "name": "createArticleMarket",
      "outputs": [
        {
          "name": "",
          "type": "uint256"
        }
      ],
      "payable": false,
      "stateMutability": "nonpayable",
      "type": "function"
    },
    {
      "constant": false,
      "inputs": [
        {
          "name": "_article",
          "type": "string"
        },
        {
          "name": "_vote",
          "type": "uint256"
        }
      ],
      "name": "vote",
      "outputs": [
        {
          "name": "success",
          "type": "bool"
        }
      ],
      "payable": true,
      "stateMutability": "payable",
      "type": "function"
    },
    {
      "constant": false,
      "inputs": [
        {
          "name": "_article",
          "type": "string"
        },
        {
          "name": "_vote",
          "type": "uint256"
        },
        {
          "name": "_rep",
          "type": "uint256"
        }
      ],
      "name": "report",
      "outputs": [],
      "payable": false,
      "stateMutability": "nonpayable",
      "type": "function"
    },
    {
      "constant": true,
      "inputs": [],
      "name": "assignReporters",
      "outputs": [
        {
          "name": "assigned",
          "type": "address[10]"
        }
      ],
      "payable": false,
      "stateMutability": "view",
      "type": "function"
    },
    {
      "constant": true,
      "inputs": [
        {
          "name": "_article",
          "type": "string"
        }
      ],
      "name": "articleExists",
      "outputs": [
        {
          "name": "exists",
          "type": "bool"
        }
      ],
      "payable": false,
      "stateMutability": "view",
      "type": "function"
    }
  ],
  "bytecode": "0x608060405234801561001057600080fd5b50610e26806100206000396000f300608060405260043610610078576000357c0100000000000000000000000000000000000000000000000000000000900463ffffffff1680637564912b1461007d57806398617d9c146100ee5780639c1f4ef71461016b5780639d945dc4146101be578063a63858031461023f578063ab592769146102bd575b600080fd5b34801561008957600080fd5b506100ac600480360381019080803560001916906020019092919050505061033a565b604051808273ffffffffffffffffffffffffffffffffffffffff1673ffffffffffffffffffffffffffffffffffffffff16815260200191505060405180910390f35b3480156100fa57600080fd5b50610169600480360381019080803590602001908201803590602001908080601f01602080910402602001604051908101604052809392919081815260200183838082843782019150505050505091929192908035906020019092919080359060200190929190505050610378565b005b34801561017757600080fd5b50610180610514565b6040518082600a60200280838360005b838110156101ab578082015181840152602081019050610190565b5050505090500191505060405180910390f35b3480156101ca57600080fd5b50610225600480360381019080803590602001908201803590602001908080601f016020809104026020016040519081016040528093929190818152602001838380828437820191505050505050919291929050505061065e565b604051808215151515815260200191505060405180910390f35b6102a3600480360381019080803590602001908201803590602001908080601f016020809104026020016040519081016040528093929190818152602001838380828437820191505050505050919291929080359060200190929190505050610733565b604051808215151515815260200191505060405180910390f35b3480156102c957600080fd5b50610324600480360381019080803590602001908201803590602001908080601f01602080910402602001604051908101604052809392919081815260200183838082843782019150505050505091929192905050506109aa565b6040518082815260200191505060405180910390f35b60026020528060005260406000206000915090508060000160009054906101000a900473ffffffffffffffffffffffffffffffffffffffff16905081565b6000836040518082805190602001908083835b6020831015156103b0578051825260208201915060208101905060208303925061038b565b6001836020036101000a038019825116818451168082178552505050505050905001915050604051809103902090506001151560026000836000191660001916815260200190815260200160002060020160003373ffffffffffffffffffffffffffffffffffffffff1673ffffffffffffffffffffffffffffffffffffffff16815260200190815260200160002060020160009054906101000a900460ff16151514151561045d57600080fd5b6060604051908101604052808481526020018381526020016001151581525060026000836000191660001916815260200190815260200160002060020160003373ffffffffffffffffffffffffffffffffffffffff1673ffffffffffffffffffffffffffffffffffffffff168152602001908152602001600020600082015181600001556020820151816001015560408201518160020160006101000a81548160ff02191690831515021790555090505050505050565b61051c610cb4565b610524610cd8565b600080600080600093506000600180549050141561054457859550610656565b5b600a841015610652576001808054905060014303406001900481151561056757fe5b0601925060009150600090505b838110156105a857828582600a8110151561058b57fe5b6020020151141561059b57600191505b8080600101915050610574565b81151561064d57828585600a811015156105be57fe5b6020020181815250506001838154811015156105d657fe5b9060005260206000200160009054906101000a900473ffffffffffffffffffffffffffffffffffffffff168685600a8110151561060f57fe5b602002019073ffffffffffffffffffffffffffffffffffffffff16908173ffffffffffffffffffffffffffffffffffffffff16815250506001840193505b610545565b8595505b505050505090565b600080826040518082805190602001908083835b6020831015156106975780518252602082019150602081019050602083039250610672565b6001836020036101000a03801982511681845116808217855250505050505090500191505060405180910390209050600060026000836000191660001916815260200190815260200160002060000160009054906101000a900473ffffffffffffffffffffffffffffffffffffffff1673ffffffffffffffffffffffffffffffffffffffff16111561072c576001915061072d565b5b50919050565b6000806000806000866040518082805190602001908083835b602083101515610771578051825260208201915060208101905060208303925061074c565b6001836020036101000a03801982511681845116808217855250505050505090500191505060405180910390209350600260008560001916600019168152602001908152602001600020925060008360000160009054906101000a900473ffffffffffffffffffffffffffffffffffffffff1673ffffffffffffffffffffffffffffffffffffffff1614151561099c578260010160003373ffffffffffffffffffffffffffffffffffffffff1673ffffffffffffffffffffffffffffffffffffffff16815260200190815260200160002091506000826001015411156109475760009050816001015434111561086f5781600101543403905061089b565b81600101543410156108895734826001015403905061089a565b8160010154341415610899573490505b5b5b8582600001541415156109115760018360030183600001546003811015156108bf57fe5b016000828254039250508190555081600101548360090183600001546003811015156108e757fe5b016000828254039250508190555034836009018760038110151561090757fe5b0181905550610938565b80340383600901836000015460038110151561092957fe5b01600082825401925050819055505b6109423382610c69565b610968565b34836009018760038110151561095957fe5b01600082825401925050819055505b6001836003018760038110151561097b57fe5b01600082825401925050819055503482600101819055508582600001819055505b600194505050505092915050565b6000806109b5610cfc565b6109bd610cb4565b6109c5610d4e565b6000866040518082805190602001908083835b6020831015156109fd57805182526020820191506020810190506020830392506109d8565b6001836020036101000a038019825116818451168082178552505050505050905001915050604051809103902094506080604051908101604052803373ffffffffffffffffffffffffffffffffffffffff1681526020016060604051908101604052806000815260200160008152602001600081525081526020016060604051908101604052806000815260200160008152602001600081525081526020016060604051908101604052806000815260200160008152602001600081525081525093508360026000876000191660001916815260200190815260200160002060008201518160000160006101000a81548173ffffffffffffffffffffffffffffffffffffffff021916908373ffffffffffffffffffffffffffffffffffffffff160217905550602082015181600301906003610b3a929190610d72565b50604082015181600601906003610b52929190610d72565b50606082015181600901906003610b6a929190610d72565b50905050610b76610514565b92506060604051908101604052806000815260200160008152602001600115158152509150600090505b600a811015610c5b578160026000876000191660001916815260200190815260200160002060020160008584600a81101515610bd857fe5b602002015173ffffffffffffffffffffffffffffffffffffffff1673ffffffffffffffffffffffffffffffffffffffff168152602001908152602001600020600082015181600001556020820151816001015560408201518160020160006101000a81548160ff0219169083151502179055509050508080600101915050610ba0565b600195505050505050919050565b8173ffffffffffffffffffffffffffffffffffffffff166108fc829081150290604051600060405180830381858888f19350505050158015610caf573d6000803e3d6000fd5b505050565b61014060405190810160405280600a90602082028038833980820191505090505090565b61014060405190810160405280600a90602082028038833980820191505090505090565b61014060405190810160405280600073ffffffffffffffffffffffffffffffffffffffff168152602001610d2e610db2565b8152602001610d3b610db2565b8152602001610d48610db2565b81525090565b60606040519081016040528060008152602001600081526020016000151581525090565b8260038101928215610da1579160200282015b82811115610da0578251825591602001919060010190610d85565b5b509050610dae9190610dd5565b5090565b606060405190810160405280600390602082028038833980820191505090505090565b610df791905b80821115610df3576000816000905550600101610ddb565b5090565b905600a165627a7a72305820adbc9391cf9adf89fb10ab13118dcdf01d634a1b03a7c336044df2674158b5a70029",
  "source": "pragma solidity ^0.4.22;\n\ncontract FakeNewsMarket {\n\n    mapping(address => bytes32) reportersEmails; //address to email\n    address[] reporters;\n\n    struct Bet {\n        uint vote;   // 0,1,2\n        uint amount;\n    }\n\n    struct Report {\n        uint vote;   // 0,1,2\n        uint reputation;\n        bool valid;\n    }\n\n    struct ArticleMarket{\n        address creator;\n        //uint256 votingPeriod;\n        mapping(address => Bet) votes;\n        mapping(address => Report) reporters;\n        uint[3] sum_votes;\n        uint[3] sum_reports;\n        uint[3] sum_bets;\n    }\n\n    /*event ArticleCreated(address indexed _creator, uint indexed _numberInArray, bytes32 indexed _articleHash);*/\n\n    mapping(bytes32 => ArticleMarket) public markets;\n\n    function createArticleMarket(string _article) public returns (uint256){\n      bytes32 article_hash = keccak256(_article);\n      ArticleMarket memory new_market = ArticleMarket({\n          creator: msg.sender,\n          sum_votes: [uint(0),uint(0),uint(0)],\n          sum_reports: [uint(0),uint(0),uint(0)],\n          sum_bets: [uint(0),uint(0),uint(0)]\n      });\n      markets[article_hash] = new_market;\n      address[10] memory reporterAddresses = assignReporters();\n      Report memory report = Report({\n         valid: true,\n         vote: 0,\n         reputation: 0\n      });\n      for (uint i = 0; i < 10; i++){\n        markets[article_hash].reporters[reporterAddresses[i]]= report; //initialize reports\n      }\n\n    /*  emit ArticleCreated(msg.sender, initLen, article_hash);*/\n      return 1;\n    }\n\n    function vote(string _article, uint _vote) public payable returns (bool success) {\n        // vote function\n        // check if sender's address is already in array, if so, change existing\n        // add address and money to map\n        bytes32 article_hash = keccak256(_article);\n        ArticleMarket storage market = markets[article_hash];\n        if (market.creator != 0) { //market exists\n            Bet storage curr_bet = market.votes[msg.sender];\n            if (curr_bet.amount > 0) {\n                //voter has already bet/voted\n                uint refund = 0;\n                if (msg.value > curr_bet.amount) {\n                    //send back difference (msg.value - curr_bet.amount)\n                    refund = msg.value - curr_bet.amount;\n\n                } else if (msg.value < curr_bet.amount) {\n                    //send back difference (curr_bet.amount - msg.value)\n                    refund = curr_bet.amount - msg.value;\n                } else if (msg.value == curr_bet.amount) {\n                    //reject new money\n                    refund = msg.value;\n                }\n                if (curr_bet.vote != _vote) { //voter is changing previous vote\n                    market.sum_votes[curr_bet.vote] -= 1;\n                    market.sum_bets[curr_bet.vote] -= curr_bet.amount;\n                    market.sum_bets[_vote] = msg.value;\n                } else {\n                    market.sum_bets[curr_bet.vote] += (msg.value - refund);\n                }\n                refund_voter(msg.sender, refund);\n\n            } else {\n                market.sum_bets[_vote] += msg.value;\n            }\n            market.sum_votes[_vote] += 1;\n            curr_bet.amount = msg.value;\n            curr_bet.vote = _vote;\n        }\n        return true;\n        }\n\n    function refund_voter(address _to, uint _amount) private {\n        _to.transfer(_amount);\n    }\n\n    function report(string _article, uint _vote, uint _rep) {\n      bytes32 hash = keccak256(_article);\n      require(markets[hash].reporters[msg.sender].valid == true);\n      markets[hash].reporters[msg.sender] = Report({\n        vote : _vote,\n        reputation : _rep,\n        valid: true\n      });\n      //what to do if updating reputation?\n    }\n\n    // assign reporters\n    function assignReporters() public view returns (address[10] assigned){\n        uint[10] memory indices;\n        uint i = 0;\n        if (reporters.length == 0) {\n            return assigned;\n        }\n        while (i < 10) {\n          uint random_number = uint(blockhash(block.number-1))%reporters.length + 1;\n          bool exists = false;\n          for (uint j = 0; j < i; j++) {\n            if(indices[j] == random_number) {\n              exists = true;\n            }\n          }\n          if (!exists){\n            indices[i] = random_number;\n            assigned[i] = reporters[random_number];\n            i += 1;\n          }\n        }\n        return assigned;\n    }\n\n    // close market and distribute money\n\n    function articleExists(string _article) public view returns (bool exists) {\n    bytes32 hash = keccak256(_article);\n    if (markets[hash].creator > 0) {\n        return true;\n    }\n\n  }\n\n\n  }\n",
  "sourcePath": "/Users/alicehau/CS359b/class_github/cs359b-fake-news-detector/contracts/contracts/FakeNewsMarket.sol",
  "compiler": {
    "name": "solc",
    "version": "0.4.23+commit.124ca40d.Emscripten.clang"
  },
  "schemaVersion": "2.0.0",
  "updatedAt": "2018-05-25T21:54:27.476Z"
}