{
  "contractName": "FakeNewsMarket",
  "abi": [
    {
      "constant": true,
      "inputs": [
        {
          "name": "",
          "type": "bytes32"
        }
      ],
      "name": "markets",
      "outputs": [
        {
          "name": "creator",
          "type": "address"
        }
      ],
      "payable": false,
      "stateMutability": "view",
      "type": "function"
    },
    {
      "constant": false,
      "inputs": [
        {
          "name": "_article",
          "type": "string"
        }
      ],
      "name": "createArticleMarket",
      "outputs": [
        {
          "name": "",
          "type": "uint256"
        }
      ],
      "payable": false,
      "stateMutability": "nonpayable",
      "type": "function"
    },
    {
      "constant": false,
      "inputs": [
        {
          "name": "_article",
          "type": "string"
        },
        {
          "name": "_vote",
          "type": "uint256"
        }
      ],
      "name": "vote",
      "outputs": [
        {
          "name": "success",
          "type": "bool"
        }
      ],
      "payable": true,
      "stateMutability": "payable",
      "type": "function"
    },
    {
      "constant": false,
      "inputs": [
        {
          "name": "_article",
          "type": "string"
        },
        {
          "name": "_vote",
          "type": "uint256"
        },
        {
          "name": "_rep",
          "type": "uint256"
        }
      ],
      "name": "report",
      "outputs": [],
      "payable": false,
      "stateMutability": "nonpayable",
      "type": "function"
    },
    {
      "constant": false,
      "inputs": [],
      "name": "assignReporters",
      "outputs": [
        {
          "name": "assigned",
          "type": "address[10]"
        }
      ],
      "payable": false,
      "stateMutability": "nonpayable",
      "type": "function"
    },
    {
      "constant": false,
      "inputs": [],
      "name": "closeMarket",
      "outputs": [],
      "payable": false,
      "stateMutability": "nonpayable",
      "type": "function"
    },
    {
      "constant": true,
      "inputs": [
        {
          "name": "_article",
          "type": "string"
        }
      ],
      "name": "articleExists",
      "outputs": [
        {
          "name": "exists",
          "type": "bool"
        }
      ],
      "payable": false,
      "stateMutability": "view",
      "type": "function"
    },
    {
      "constant": true,
      "inputs": [
        {
          "name": "_article",
          "type": "string"
        }
      ],
      "name": "getVotes",
      "outputs": [
        {
          "name": "sum_votes",
          "type": "uint256[3]"
        }
      ],
      "payable": false,
      "stateMutability": "view",
      "type": "function"
    },
    {
      "constant": true,
      "inputs": [
        {
          "name": "_article",
          "type": "string"
        }
      ],
      "name": "getBets",
      "outputs": [
        {
          "name": "sum_bets",
          "type": "uint256[3]"
        }
      ],
      "payable": false,
      "stateMutability": "view",
      "type": "function"
    }
  ],
  "bytecode": "0x608060405234801561001057600080fd5b50611247806100206000396000f300608060405260043610610099576000357c0100000000000000000000000000000000000000000000000000000000900463ffffffff1680636b46dadc1461009e5780637564912b14610143578063805265e5146101b457806398617d9c146102595780639c1f4ef7146102d65780639d945dc414610329578063a6385803146103aa578063ab59276914610428578063c511ed5e146104a5575b600080fd5b3480156100aa57600080fd5b50610105600480360381019080803590602001908201803590602001908080601f01602080910402602001604051908101604052809392919081815260200183838082843782019150505050505091929192905050506104bc565b6040518082600360200280838360005b83811015610130578082015181840152602081019050610115565b5050505090500191505060405180910390f35b34801561014f57600080fd5b5061017260048036038101908080356000191690602001909291905050506105f0565b604051808273ffffffffffffffffffffffffffffffffffffffff1673ffffffffffffffffffffffffffffffffffffffff16815260200191505060405180910390f35b3480156101c057600080fd5b5061021b600480360381019080803590602001908201803590602001908080601f016020809104026020016040519081016040528093929190818152602001838380828437820191505050505050919291929050505061062e565b6040518082600360200280838360005b8381101561024657808201518184015260208101905061022b565b5050505090500191505060405180910390f35b34801561026557600080fd5b506102d4600480360381019080803590602001908201803590602001908080601f01602080910402602001604051908101604052809392919081815260200183838082843782019150505050505091929192908035906020019092919080359060200190929190505050610762565b005b3480156102e257600080fd5b506102eb6108fe565b6040518082600a60200280838360005b838110156103165780820151818401526020810190506102fb565b5050505090500191505060405180910390f35b34801561033557600080fd5b50610390600480360381019080803590602001908201803590602001908080601f0160208091040260200160405190810160405280939291908181526020018383808284378201915050505050509192919290505050610a48565b604051808215151515815260200191505060405180910390f35b61040e600480360381019080803590602001908201803590602001908080601f016020809104026020016040519081016040528093929190818152602001838380828437820191505050505050919291929080359060200190929190505050610b1d565b604051808215151515815260200191505060405180910390f35b34801561043457600080fd5b5061048f600480360381019080803590602001908201803590602001908080601f0160208091040260200160405190810160405280939291908181526020018383808284378201915050505050509192919290505050610da6565b6040518082815260200191505060405180910390f35b3480156104b157600080fd5b506104ba611065565b005b6104c46110b2565b6000826040518082805190602001908083835b6020831015156104fc57805182526020820191506020810190506020830392506104d7565b6001836020036101000a03801982511681845116808217855250505050505090500191505060405180910390209050600060026000836000191660001916815260200190815260200160002060000160009054906101000a900473ffffffffffffffffffffffffffffffffffffffff1673ffffffffffffffffffffffffffffffffffffffff1611156105e9576002600082600019166000191681526020019081526020016000206009016003806020026040519081016040528092919082600380156105dd576020028201915b8154815260200190600101908083116105c9575b505050505091506105ea565b5b50919050565b60026020528060005260406000206000915090508060000160009054906101000a900473ffffffffffffffffffffffffffffffffffffffff16905081565b6106366110b2565b6000826040518082805190602001908083835b60208310151561066e5780518252602082019150602081019050602083039250610649565b6001836020036101000a03801982511681845116808217855250505050505090500191505060405180910390209050600060026000836000191660001916815260200190815260200160002060000160009054906101000a900473ffffffffffffffffffffffffffffffffffffffff1673ffffffffffffffffffffffffffffffffffffffff16111561075b5760026000826000191660001916815260200190815260200160002060030160038060200260405190810160405280929190826003801561074f576020028201915b81548152602001906001019080831161073b575b5050505050915061075c565b5b50919050565b6000836040518082805190602001908083835b60208310151561079a5780518252602082019150602081019050602083039250610775565b6001836020036101000a038019825116818451168082178552505050505050905001915050604051809103902090506001151560026000836000191660001916815260200190815260200160002060020160003373ffffffffffffffffffffffffffffffffffffffff1673ffffffffffffffffffffffffffffffffffffffff16815260200190815260200160002060020160009054906101000a900460ff16151514151561084757600080fd5b6060604051908101604052808481526020018381526020016001151581525060026000836000191660001916815260200190815260200160002060020160003373ffffffffffffffffffffffffffffffffffffffff1673ffffffffffffffffffffffffffffffffffffffff168152602001908152602001600020600082015181600001556020820151816001015560408201518160020160006101000a81548160ff02191690831515021790555090505050505050565b6109066110d5565b61090e6110f9565b600080600080600093506000600180549050141561092e57859550610a40565b5b600a841015610a3c576001808054905060014303406001900481151561095157fe5b0601925060009150600090505b8381101561099257828582600a8110151561097557fe5b6020020151141561098557600191505b808060010191505061095e565b811515610a3757828585600a811015156109a857fe5b6020020181815250506001838154811015156109c057fe5b9060005260206000200160009054906101000a900473ffffffffffffffffffffffffffffffffffffffff168685600a811015156109f957fe5b602002019073ffffffffffffffffffffffffffffffffffffffff16908173ffffffffffffffffffffffffffffffffffffffff16815250506001840193505b61092f565b8595505b505050505090565b600080826040518082805190602001908083835b602083101515610a815780518252602082019150602081019050602083039250610a5c565b6001836020036101000a03801982511681845116808217855250505050505090500191505060405180910390209050600060026000836000191660001916815260200190815260200160002060000160009054906101000a900473ffffffffffffffffffffffffffffffffffffffff1673ffffffffffffffffffffffffffffffffffffffff161115610b165760019150610b17565b5b50919050565b600080600080600080341415610b365760009450610d9c565b866040518082805190602001908083835b602083101515610b6c5780518252602082019150602081019050602083039250610b47565b6001836020036101000a03801982511681845116808217855250505050505090500191505060405180910390209350600260008560001916600019168152602001908152602001600020925060008360000160009054906101000a900473ffffffffffffffffffffffffffffffffffffffff1673ffffffffffffffffffffffffffffffffffffffff16141515610d97578260010160003373ffffffffffffffffffffffffffffffffffffffff1673ffffffffffffffffffffffffffffffffffffffff1681526020019081526020016000209150600082600101541115610d4257600090508160010154341115610c6a57816001015434039050610c96565b8160010154341015610c8457348260010154039050610c95565b8160010154341415610c94573490505b5b5b858260000154141515610d0c576001836003018360000154600381101515610cba57fe5b01600082825403925050819055508160010154836009018360000154600381101515610ce257fe5b0160008282540392505081905550348360090187600381101515610d0257fe5b0181905550610d33565b803403836009018360000154600381101515610d2457fe5b01600082825401925050819055505b610d3d3382611067565b610d63565b348360090187600381101515610d5457fe5b01600082825401925050819055505b60018360030187600381101515610d7657fe5b01600082825401925050819055503482600101819055508582600001819055505b600194505b5050505092915050565b600080610db161111d565b610db96110d5565b610dc161116f565b6000866040518082805190602001908083835b602083101515610df95780518252602082019150602081019050602083039250610dd4565b6001836020036101000a038019825116818451168082178552505050505050905001915050604051809103902094506080604051908101604052803373ffffffffffffffffffffffffffffffffffffffff1681526020016060604051908101604052806000815260200160008152602001600081525081526020016060604051908101604052806000815260200160008152602001600081525081526020016060604051908101604052806000815260200160008152602001600081525081525093508360026000876000191660001916815260200190815260200160002060008201518160000160006101000a81548173ffffffffffffffffffffffffffffffffffffffff021916908373ffffffffffffffffffffffffffffffffffffffff160217905550602082015181600301906003610f36929190611193565b50604082015181600601906003610f4e929190611193565b50606082015181600901906003610f66929190611193565b50905050610f726108fe565b92506060604051908101604052806000815260200160008152602001600115158152509150600090505b600a811015611057578160026000876000191660001916815260200190815260200160002060020160008584600a81101515610fd457fe5b602002015173ffffffffffffffffffffffffffffffffffffffff1673ffffffffffffffffffffffffffffffffffffffff168152602001908152602001600020600082015181600001556020820151816001015560408201518160020160006101000a81548160ff0219169083151502179055509050508080600101915050610f9c565b600195505050505050919050565b565b8173ffffffffffffffffffffffffffffffffffffffff166108fc829081150290604051600060405180830381858888f193505050501580156110ad573d6000803e3d6000fd5b505050565b606060405190810160405280600390602082028038833980820191505090505090565b61014060405190810160405280600a90602082028038833980820191505090505090565b61014060405190810160405280600a90602082028038833980820191505090505090565b61014060405190810160405280600073ffffffffffffffffffffffffffffffffffffffff16815260200161114f6111d3565b815260200161115c6111d3565b81526020016111696111d3565b81525090565b60606040519081016040528060008152602001600081526020016000151581525090565b82600381019282156111c2579160200282015b828111156111c15782518255916020019190600101906111a6565b5b5090506111cf91906111f6565b5090565b606060405190810160405280600390602082028038833980820191505090505090565b61121891905b808211156112145760008160009055506001016111fc565b5090565b905600a165627a7a723058201bae64dac22c489f4009513d5970c08e4adaeab52f005359a192c3fbec0416240029",
  "source": "pragma solidity ^0.4.22;\n\ncontract FakeNewsMarket {\n\n    mapping(address => bytes32) reportersEmails; //address to email\n    address[] reporters;\n\n    struct Bet {\n        uint vote;   // 0,1,2\n        uint amount;\n    }\n\n    struct Report {\n        uint vote;   // 0,1,2\n        uint reputation;\n        bool valid;\n    }\n\n    struct ArticleMarket{\n        address creator;\n        //uint256 votingPeriod;\n        mapping(address => Bet) votes;\n        mapping(address => Report) reporters;\n        uint[3] sum_votes;\n        uint[3] sum_reports;\n        uint[3] sum_bets;\n    }\n\n    /*event ArticleCreated(address indexed _creator, uint indexed _numberInArray, bytes32 indexed _articleHash);*/\n\n    mapping(bytes32 => ArticleMarket) public markets;\n\n    function createArticleMarket(string _article) public returns (uint256){\n      bytes32 article_hash = keccak256(_article);\n      ArticleMarket memory new_market = ArticleMarket({\n          creator: msg.sender,\n          sum_votes: [uint(0),uint(0),uint(0)],\n          sum_reports: [uint(0),uint(0),uint(0)],\n          sum_bets: [uint(0),uint(0),uint(0)]\n      });\n      markets[article_hash] = new_market;\n      address[10] memory reporterAddresses = assignReporters();\n      Report memory report = Report({\n         valid: true,\n         vote: 0,\n         reputation: 0\n      });\n      for (uint i = 0; i < 10; i++){\n        markets[article_hash].reporters[reporterAddresses[i]]= report; //initialize reports\n      }\n\n    /*  emit ArticleCreated(msg.sender, initLen, article_hash);*/\n      return 1;\n    }\n\n    function vote(string _article, uint _vote) public payable returns (bool success) {\n        // vote function\n        // check if sender's address is already in array, if so, change existing\n        // add address and money to map\n        if (msg.value == 0) {\n            return false;\n        }\n        bytes32 article_hash = keccak256(_article);\n        ArticleMarket storage market = markets[article_hash];\n        if (market.creator != 0) { //market exists\n            Bet storage curr_bet = market.votes[msg.sender];\n            if (curr_bet.amount > 0) {\n                //voter has already bet/voted\n                uint refund = 0;\n                if (msg.value > curr_bet.amount) {\n                    //send back difference (msg.value - curr_bet.amount)\n                    refund = msg.value - curr_bet.amount;\n\n                } else if (msg.value < curr_bet.amount) {\n                    //send back difference (curr_bet.amount - msg.value)\n                    refund = curr_bet.amount - msg.value;\n                } else if (msg.value == curr_bet.amount) {\n                    //reject new money\n                    refund = msg.value;\n                }\n                if (curr_bet.vote != _vote) { //voter is changing previous vote\n                    market.sum_votes[curr_bet.vote] -= 1;\n                    market.sum_bets[curr_bet.vote] -= curr_bet.amount;\n                    market.sum_bets[_vote] = msg.value;\n                } else {\n                    market.sum_bets[curr_bet.vote] += (msg.value - refund);\n                }\n                refund_voter(msg.sender, refund);\n\n            } else {\n                market.sum_bets[_vote] += msg.value;\n            }\n            market.sum_votes[_vote] += 1;\n            curr_bet.amount = msg.value;\n            curr_bet.vote = _vote;\n        }\n        return true;\n        }\n\n    function refund_voter(address _to, uint _amount) private {\n        _to.transfer(_amount);\n    }\n\n    function report(string _article, uint _vote, uint _rep) {\n      bytes32 hash = keccak256(_article);\n      require(markets[hash].reporters[msg.sender].valid == true);\n      markets[hash].reporters[msg.sender] = Report({\n        vote : _vote,\n        reputation : _rep,\n        valid: true\n      });\n      //what to do if updating reputation?\n    }\n\n    // assign reporters\n    function assignReporters() public returns (address[10] assigned){\n        uint[10] memory indices;\n        uint i = 0;\n        if (reporters.length == 0) {\n            return assigned;\n        }\n        while (i < 10) {\n          uint random_number = uint(blockhash(block.number-1))%reporters.length + 1;\n          bool exists = false;\n          for (uint j = 0; j < i; j++) {\n            if(indices[j] == random_number) {\n              exists = true;\n            }\n          }\n          if (!exists){\n            indices[i] = random_number;\n            assigned[i] = reporters[random_number];\n            i += 1;\n          }\n        }\n        return assigned;\n    }\n\n    function closeMarket() {\n        // close market and distribute money\n\n    }\n\n    function articleExists(string _article) public view returns (bool exists) {\n    bytes32 hash = keccak256(_article);\n    if (markets[hash].creator > 0) {\n        return true;\n    }\n    }\n\n    function getVotes(string _article) public view returns (uint[3] sum_votes) {\n        bytes32 hash = keccak256(_article);\n        if (markets[hash].creator > 0) {\n            return markets[hash].sum_votes;\n        }\n    }\n\n    function getBets(string _article) public view returns (uint[3] sum_bets) {\n        bytes32 hash = keccak256(_article);\n        if (markets[hash].creator > 0) {\n            return markets[hash].sum_bets;\n        }\n    }\n  }\n",
  "sourcePath": "/Users/alicehau/CS359b/class_github/cs359b-fake-news-detector/contracts/contracts/FakeNewsMarket.sol",
  "compiler": {
    "name": "solc",
    "version": "0.4.23+commit.124ca40d.Emscripten.clang"
  },
  "schemaVersion": "2.0.0",
  "updatedAt": "2018-05-26T22:38:13.250Z"
}