{
  "contractName": "FakeNewsMarket",
  "abi": [
    {
      "constant": true,
      "inputs": [],
      "name": "numArticles",
      "outputs": [
        {
          "name": "",
          "type": "uint256"
        }
      ],
      "payable": false,
      "stateMutability": "view",
      "type": "function"
    },
    {
      "constant": true,
      "inputs": [
        {
          "name": "",
          "type": "bytes32"
        }
      ],
      "name": "markets",
      "outputs": [
        {
          "name": "creator",
          "type": "address"
        },
        {
          "name": "deadline",
          "type": "uint256"
        },
        {
          "name": "is_open",
          "type": "bool"
        },
        {
          "name": "consensus",
          "type": "uint256"
        }
      ],
      "payable": false,
      "stateMutability": "view",
      "type": "function"
    },
    {
      "anonymous": false,
      "inputs": [
        {
          "indexed": true,
          "name": "_creator",
          "type": "address"
        },
        {
          "indexed": true,
          "name": "_numberInArray",
          "type": "uint256"
        },
        {
          "indexed": true,
          "name": "_articleHash",
          "type": "bytes32"
        }
      ],
      "name": "ArticleCreated",
      "type": "event"
    },
    {
      "constant": false,
      "inputs": [
        {
          "name": "_article",
          "type": "string"
        },
        {
          "name": "_deadline",
          "type": "uint256"
        }
      ],
      "name": "createArticleMarket",
      "outputs": [
        {
          "name": "",
          "type": "address[10]"
        }
      ],
      "payable": false,
      "stateMutability": "nonpayable",
      "type": "function"
    },
    {
      "constant": false,
      "inputs": [
        {
          "name": "_article",
          "type": "string"
        },
        {
          "name": "_vote",
          "type": "uint256"
        }
      ],
      "name": "vote",
      "outputs": [
        {
          "name": "success",
          "type": "bool"
        }
      ],
      "payable": true,
      "stateMutability": "payable",
      "type": "function"
    },
    {
      "constant": false,
      "inputs": [
        {
          "name": "_article",
          "type": "string"
        },
        {
          "name": "_vote",
          "type": "uint256"
        },
        {
          "name": "_rep",
          "type": "uint256"
        }
      ],
      "name": "report",
      "outputs": [],
      "payable": false,
      "stateMutability": "nonpayable",
      "type": "function"
    },
    {
      "constant": false,
      "inputs": [
        {
          "name": "_address",
          "type": "address"
        },
        {
          "name": "email",
          "type": "string"
        }
      ],
      "name": "addReporter",
      "outputs": [],
      "payable": false,
      "stateMutability": "nonpayable",
      "type": "function"
    },
    {
      "constant": false,
      "inputs": [
        {
          "name": "_article",
          "type": "string"
        }
      ],
      "name": "closeMarket",
      "outputs": [],
      "payable": false,
      "stateMutability": "nonpayable",
      "type": "function"
    },
    {
      "constant": false,
      "inputs": [
        {
          "name": "_reporter",
          "type": "address"
        }
      ],
      "name": "removeReporter",
      "outputs": [],
      "payable": false,
      "stateMutability": "nonpayable",
      "type": "function"
    },
    {
      "constant": true,
      "inputs": [
        {
          "name": "_article",
          "type": "string"
        }
      ],
      "name": "articleExists",
      "outputs": [
        {
          "name": "exists",
          "type": "bool"
        }
      ],
      "payable": false,
      "stateMutability": "view",
      "type": "function"
    },
    {
      "constant": true,
      "inputs": [
        {
          "name": "_reporter",
          "type": "address"
        }
      ],
      "name": "reporterExists",
      "outputs": [
        {
          "name": "exists",
          "type": "bool"
        }
      ],
      "payable": false,
      "stateMutability": "view",
      "type": "function"
    },
    {
      "constant": true,
      "inputs": [
        {
          "name": "_article",
          "type": "string"
        }
      ],
      "name": "getVotes",
      "outputs": [
        {
          "name": "sum_votes",
          "type": "uint256[3]"
        }
      ],
      "payable": false,
      "stateMutability": "view",
      "type": "function"
    },
    {
      "constant": true,
      "inputs": [
        {
          "name": "_article",
          "type": "string"
        }
      ],
      "name": "getBets",
      "outputs": [
        {
          "name": "sum_bets",
          "type": "uint256[3]"
        }
      ],
      "payable": false,
      "stateMutability": "view",
      "type": "function"
    },
    {
      "constant": true,
      "inputs": [
        {
          "name": "_article",
          "type": "string"
        }
      ],
      "name": "getReports",
      "outputs": [
        {
          "name": "sum_reports",
          "type": "uint256[3]"
        }
      ],
      "payable": false,
      "stateMutability": "view",
      "type": "function"
    },
    {
      "constant": true,
      "inputs": [
        {
          "name": "_reporter",
          "type": "address"
        }
      ],
      "name": "getReporterRep",
      "outputs": [
        {
          "name": "rep",
          "type": "uint256"
        }
      ],
      "payable": false,
      "stateMutability": "view",
      "type": "function"
    },
    {
      "constant": true,
      "inputs": [
        {
          "name": "_article",
          "type": "string"
        }
      ],
      "name": "getRep",
      "outputs": [
        {
          "name": "sum_rep",
          "type": "uint256[3]"
        }
      ],
      "payable": false,
      "stateMutability": "view",
      "type": "function"
    }
  ],
  "bytecode": "0x6080604052600a600255600060045534801561001a57600080fd5b50612d4e8061002a6000396000f3006080604052600436106100db576000357c0100000000000000000000000000000000000000000000000000000000900463ffffffff1680630fc26347146100e05780631a68638a146101495780633717ebc2146101ee5780635de5c212146102775780636b46dadc146102ba578063734f84821461035f5780637564912b1461038a578063805265e5146104145780638057fef8146104b95780639779dedd1461051457806398617d9c146105b95780639bf01b16146106365780639d945dc41461068d578063a63858031461070e578063e7feba5c1461078c575b600080fd5b3480156100ec57600080fd5b50610147600480360381019080803590602001908201803590602001908080601f016020809104026020016040519081016040528093929190818152602001838380828437820191505050505050919291929050505061083b565b005b34801561015557600080fd5b506101b0600480360381019080803590602001908201803590602001908080601f0160208091040260200160405190810160405280939291908181526020018383808284378201915050505050509192919290505050610b06565b6040518082600360200280838360005b838110156101db5780820151818401526020810190506101c0565b5050505090500191505060405180910390f35b3480156101fa57600080fd5b50610275600480360381019080803573ffffffffffffffffffffffffffffffffffffffff169060200190929190803590602001908201803590602001908080601f0160208091040260200160405190810160405280939291908181526020018383808284378201915050505050509192919290505050610ca6565b005b34801561028357600080fd5b506102b8600480360381019080803573ffffffffffffffffffffffffffffffffffffffff169060200190929190505050610e83565b005b3480156102c657600080fd5b50610321600480360381019080803590602001908201803590602001908080601f0160208091040260200160405190810160405280939291908181526020018383808284378201915050505050509192919290505050611089565b6040518082600360200280838360005b8381101561034c578082015181840152602081019050610331565b5050505090500191505060405180910390f35b34801561036b57600080fd5b50610374611229565b6040518082815260200191505060405180910390f35b34801561039657600080fd5b506103b9600480360381019080803560001916906020019092919050505061122f565b604051808573ffffffffffffffffffffffffffffffffffffffff1673ffffffffffffffffffffffffffffffffffffffff1681526020018481526020018315151515815260200182815260200194505050505060405180910390f35b34801561042057600080fd5b5061047b600480360381019080803590602001908201803590602001908080601f016020809104026020016040519081016040528093929190818152602001838380828437820191505050505050919291929050505061128c565b6040518082600360200280838360005b838110156104a657808201518184015260208101905061048b565b5050505090500191505060405180910390f35b3480156104c557600080fd5b506104fa600480360381019080803573ffffffffffffffffffffffffffffffffffffffff16906020019092919050505061142c565b604051808215151515815260200191505060405180910390f35b34801561052057600080fd5b5061057b600480360381019080803590602001908201803590602001908080601f016020809104026020016040519081016040528093929190818152602001838380828437820191505050505050919291929050505061149c565b6040518082600360200280838360005b838110156105a657808201518184015260208101905061058b565b5050505090500191505060405180910390f35b3480156105c557600080fd5b50610634600480360381019080803590602001908201803590602001908080601f0160208091040260200160405190810160405280939291908181526020018383808284378201915050505050509192919290803590602001909291908035906020019092919050505061163c565b005b34801561064257600080fd5b50610677600480360381019080803573ffffffffffffffffffffffffffffffffffffffff1690602001909291905050506119c5565b6040518082815260200191505060405180910390f35b34801561069957600080fd5b506106f4600480360381019080803590602001908201803590602001908080601f0160208091040260200160405190810160405280939291908181526020018383808284378201915050505050509192919290505050611a6a565b604051808215151515815260200191505060405180910390f35b610772600480360381019080803590602001908201803590602001908080601f016020809104026020016040519081016040528093929190818152602001838380828437820191505050505050919291929080359060200190929190505050611bab565b604051808215151515815260200191505060405180910390f35b34801561079857600080fd5b506107fd600480360381019080803590602001908201803590602001908080601f016020809104026020016040519081016040528093929190818152602001838380828437820191505050505050919291929080359060200190929190505050611f08565b6040518082600a60200280838360005b8381101561082857808201518184015260208101905061080d565b5050505090500191505060405180910390f35b60008060008060008060008060008060008b6040516020018082805190602001908083835b6020831015156108855780518252602082019150602081019050602083039250610860565b6001836020036101000a0380198251168184511680821785525050505050509050019150506040516020818303038152906040526040518082805190602001908083835b6020831015156108ee57805182526020820191506020810190506020830392506108c9565b6001836020036101000a03801982511681845116808217855250505050505090500191505060405180910390209a50600360008c600019166000191681526020019081526020016000209950428a6001015410801561095b57508960020160009054906101000a900460ff165b15610af85789600a01600060038110151561097257fe5b0154985089600a01600160038110151561098857fe5b0154975089600a01600260038110151561099e57fe5b01549650600095508894508960100160026003811015156109bb57fe5b01548a60100160016003811015156109cf57fe5b015401935087851080156109e257508688105b15610a1e5760029550869450896010016001600381101515610a0057fe5b01548a6010016000600381101515610a1457fe5b0154019350610a65565b8785108015610a2c57508688115b15610a645760019550879450896010016002600381101515610a4a57fe5b01548a6010016000600381101515610a5e57fe5b01540193505b5b89600d016002600381101515610a7757fe5b01548a600d016001600381101515610a8b57fe5b01548b600d016000600381101515610a9f57fe5b015401019250600a83811515610ab157fe5b0491508183039050610ac48a878461245a565b610acf8a878361258e565b610ada8a87866126c9565b60008a60020160006101000a81548160ff0219169083151502179055505b505050505050505050505050565b610b0e612aba565b6000826040516020018082805190602001908083835b602083101515610b495780518252602082019150602081019050602083039250610b24565b6001836020036101000a0380198251168184511680821785525050505050509050019150506040516020818303038152906040526040518082805190602001908083835b602083101515610bb25780518252602082019150602081019050602083039250610b8d565b6001836020036101000a03801982511681845116808217855250505050505090500191505060405180910390209050600060036000836000191660001916815260200190815260200160002060000160009054906101000a900473ffffffffffffffffffffffffffffffffffffffff1673ffffffffffffffffffffffffffffffffffffffff161115610c9f57600360008260001916600019168152602001908152602001600020600a01600380602002604051908101604052809291908260038015610c93576020028201915b815481526020019060010190808311610c7f575b50505050509150610ca0565b5b50919050565b6000816040516020018082805190602001908083835b602083101515610ce15780518252602082019150602081019050602083039250610cbc565b6001836020036101000a0380198251168184511680821785525050505050509050019150506040516020818303038152906040526040518082805190602001908083835b602083101515610d4a5780518252602082019150602081019050602083039250610d25565b6001836020036101000a0380198251168184511680821785525050505050509050019150506040518091039020905060018390806001815401808255809150509060018203906000526020600020016000909192909190916101000a81548173ffffffffffffffffffffffffffffffffffffffff021916908373ffffffffffffffffffffffffffffffffffffffff1602179055505060606040519081016040528082600019168152602001600f8152602001600115158152506000808573ffffffffffffffffffffffffffffffffffffffff1673ffffffffffffffffffffffffffffffffffffffff168152602001908152602001600020600082015181600001906000191690556020820151816001015560408201518160020160006101000a81548160ff021916908315150217905550905050505050565b60008060008060008573ffffffffffffffffffffffffffffffffffffffff1673ffffffffffffffffffffffffffffffffffffffff16815260200190815260200160002060020160006101000a81548160ff0219169083151502179055506001805490509150600090505b600180549050811015610fb3578273ffffffffffffffffffffffffffffffffffffffff16600182815481101515610f2057fe5b9060005260206000200160009054906101000a900473ffffffffffffffffffffffffffffffffffffffff1673ffffffffffffffffffffffffffffffffffffffff161415610fa857600181815481101515610f7657fe5b9060005260206000200160006101000a81549073ffffffffffffffffffffffffffffffffffffffff0219169055610fb3565b600181019050610eed565b6001808303815481101515610fc457fe5b9060005260206000200160009054906101000a900473ffffffffffffffffffffffffffffffffffffffff16600182815481101515610ffe57fe5b9060005260206000200160006101000a81548173ffffffffffffffffffffffffffffffffffffffff021916908373ffffffffffffffffffffffffffffffffffffffff160217905550600180830381548110151561105757fe5b9060005260206000200160006101000a81549073ffffffffffffffffffffffffffffffffffffffff0219169055505050565b611091612aba565b6000826040516020018082805190602001908083835b6020831015156110cc57805182526020820191506020810190506020830392506110a7565b6001836020036101000a0380198251168184511680821785525050505050509050019150506040516020818303038152906040526040518082805190602001908083835b6020831015156111355780518252602082019150602081019050602083039250611110565b6001836020036101000a03801982511681845116808217855250505050505090500191505060405180910390209050600060036000836000191660001916815260200190815260200160002060000160009054906101000a900473ffffffffffffffffffffffffffffffffffffffff1673ffffffffffffffffffffffffffffffffffffffff16111561122257600360008260001916600019168152602001908152602001600020600d01600380602002604051908101604052809291908260038015611216576020028201915b815481526020019060010190808311611202575b50505050509150611223565b5b50919050565b60045481565b60036020528060005260406000206000915090508060000160009054906101000a900473ffffffffffffffffffffffffffffffffffffffff16908060010154908060020160009054906101000a900460ff16908060130154905084565b611294612aba565b6000826040516020018082805190602001908083835b6020831015156112cf57805182526020820191506020810190506020830392506112aa565b6001836020036101000a0380198251168184511680821785525050505050509050019150506040516020818303038152906040526040518082805190602001908083835b6020831015156113385780518252602082019150602081019050602083039250611313565b6001836020036101000a03801982511681845116808217855250505050505090500191505060405180910390209050600060036000836000191660001916815260200190815260200160002060000160009054906101000a900473ffffffffffffffffffffffffffffffffffffffff1673ffffffffffffffffffffffffffffffffffffffff16111561142557600360008260001916600019168152602001908152602001600020600701600380602002604051908101604052809291908260038015611419576020028201915b815481526020019060010190808311611405575b50505050509150611426565b5b50919050565b6000600115156000808473ffffffffffffffffffffffffffffffffffffffff1673ffffffffffffffffffffffffffffffffffffffff16815260200190815260200160002060020160009054906101000a900460ff16151514156114925760019050611497565b600090505b919050565b6114a4612aba565b6000826040516020018082805190602001908083835b6020831015156114df57805182526020820191506020810190506020830392506114ba565b6001836020036101000a0380198251168184511680821785525050505050509050019150506040516020818303038152906040526040518082805190602001908083835b6020831015156115485780518252602082019150602081019050602083039250611523565b6001836020036101000a03801982511681845116808217855250505050505090500191505060405180910390209050600060036000836000191660001916815260200190815260200160002060000160009054906101000a900473ffffffffffffffffffffffffffffffffffffffff1673ffffffffffffffffffffffffffffffffffffffff16111561163557600360008260001916600019168152602001908152602001600020601001600380602002604051908101604052809291908260038015611629576020028201915b815481526020019060010190808311611615575b50505050509150611636565b5b50919050565b6000836040516020018082805190602001908083835b6020831015156116775780518252602082019150602081019050602083039250611652565b6001836020036101000a0380198251168184511680821785525050505050509050019150506040516020818303038152906040526040518082805190602001908083835b6020831015156116e057805182526020820191506020810190506020830392506116bb565b6001836020036101000a038019825116818451168082178552505050505050905001915050604051809103902090506001151560036000836000191660001916815260200190815260200160002060040160003373ffffffffffffffffffffffffffffffffffffffff1673ffffffffffffffffffffffffffffffffffffffff16815260200190815260200160002060020160009054906101000a900460ff16151514151561178d57600080fd5b600060036000836000191660001916815260200190815260200160002060040160003373ffffffffffffffffffffffffffffffffffffffff1673ffffffffffffffffffffffffffffffffffffffff168152602001908152602001600020600101541415156117fa57600080fd5b816000803373ffffffffffffffffffffffffffffffffffffffff1673ffffffffffffffffffffffffffffffffffffffff168152602001908152602001600020600101541015151561184a57600080fd5b816000803373ffffffffffffffffffffffffffffffffffffffff1673ffffffffffffffffffffffffffffffffffffffff168152602001908152602001600020600101600082825403925050819055506060604051908101604052808481526020018381526020016001151581525060036000836000191660001916815260200190815260200160002060040160003373ffffffffffffffffffffffffffffffffffffffff1673ffffffffffffffffffffffffffffffffffffffff168152602001908152602001600020600082015181600001556020820151816001015560408201518160020160006101000a81548160ff0219169083151502179055509050506001600360008360001916600019168152602001908152602001600020600a018460038110151561197757fe5b016000828254019250508190555081600360008360001916600019168152602001908152602001600020601001846003811015156119b157fe5b016000828254019250508190555050505050565b60008060008373ffffffffffffffffffffffffffffffffffffffff1673ffffffffffffffffffffffffffffffffffffffff16815260200190815260200160002060020160009054906101000a900460ff1615611a64576000808373ffffffffffffffffffffffffffffffffffffffff1673ffffffffffffffffffffffffffffffffffffffff168152602001908152602001600020600101549050611a65565b5b919050565b600080826040516020018082805190602001908083835b602083101515611aa65780518252602082019150602081019050602083039250611a81565b6001836020036101000a0380198251168184511680821785525050505050509050019150506040516020818303038152906040526040518082805190602001908083835b602083101515611b0f5780518252602082019150602081019050602083039250611aea565b6001836020036101000a03801982511681845116808217855250505050505090500191505060405180910390209050600060036000836000191660001916815260200190815260200160002060000160009054906101000a900473ffffffffffffffffffffffffffffffffffffffff1673ffffffffffffffffffffffffffffffffffffffff161115611ba45760019150611ba5565b5b50919050565b600080600080600080341415611bc45760009450611efe565b866040516020018082805190602001908083835b602083101515611bfd5780518252602082019150602081019050602083039250611bd8565b6001836020036101000a0380198251168184511680821785525050505050509050019150506040516020818303038152906040526040518082805190602001908083835b602083101515611c665780518252602082019150602081019050602083039250611c41565b6001836020036101000a03801982511681845116808217855250505050505090500191505060405180910390209350600360008560001916600019168152602001908152602001600020925060008360000160009054906101000a900473ffffffffffffffffffffffffffffffffffffffff1673ffffffffffffffffffffffffffffffffffffffff16141515611ef9578260030160003373ffffffffffffffffffffffffffffffffffffffff1673ffffffffffffffffffffffffffffffffffffffff1681526020019081526020016000209150600082600101541115611e3c57600090508160010154341115611d6457816001015434039050611d90565b8160010154341015611d7e57348260010154039050611d8f565b8160010154341415611d8e573490505b5b5b858260000154141515611e06576001836007018360000154600381101515611db457fe5b0160008282540392505081905550816001015483600d018360000154600381101515611ddc57fe5b01600082825403925050819055503483600d0187600381101515611dfc57fe5b0181905550611e2d565b80340383600d018360000154600381101515611e1e57fe5b01600082825401925050819055505b611e373382612884565b611ec5565b3483600d0187600381101515611e4e57fe5b0160008282540192505081905550826005013390806001815401808255809150509060018203906000526020600020016000909192909190916101000a81548173ffffffffffffffffffffffffffffffffffffffff021916908373ffffffffffffffffffffffffffffffffffffffff160217905550505b60018360070187600381101515611ed857fe5b01600082825401925050819055503482600101819055508582600001819055505b600194505b5050505092915050565b611f10612add565b6000611f1a612b01565b611f22612add565b611f2a612b85565b6000876040516020018082805190602001908083835b602083101515611f655780518252602082019150602081019050602083039250611f40565b6001836020036101000a0380198251168184511680821785525050505050509050019150506040516020818303038152906040526040518082805190602001908083835b602083101515611fce5780518252602082019150602081019050602083039250611fa9565b6001836020036101000a03801982511681845116808217855250505050505090500191505060405180910390209450610140604051908101604052803373ffffffffffffffffffffffffffffffffffffffff16815260200188815260200160011515815260200160006040519080825280602002602001820160405280156120655781602001602082028038833980820191505090505b508152602001600060405190808252806020026020018201604052801561209b5781602001602082028038833980820191505090505b50815260200160606040519081016040528060008152602001600081526020016000815250815260200160606040519081016040528060008152602001600081526020016000815250815260200160606040519081016040528060008152602001600081526020016000815250815260200160606040519081016040528060008152602001600081526020016000815250815260200161010081525093508360036000876000191660001916815260200190815260200160002060008201518160000160006101000a81548173ffffffffffffffffffffffffffffffffffffffff021916908373ffffffffffffffffffffffffffffffffffffffff1602179055506020820151816001015560408201518160020160006101000a81548160ff02191690831515021790555060608201518160050190805190602001906121e2929190612ba9565b5060808201518160060190805190602001906121ff929190612ba9565b5060a082015181600701906003612217929190612c33565b5060c082015181600a0190600361222f929190612c33565b5060e082015181600d01906003612247929190612c33565b5061010082015181601001906003612260929190612c33565b5061012082015181601301559050506122776128cf565b92506060604051908101604052806000815260200160008152602001600115158152509150600090505b600a8110156123f0576003600086600019166000191681526020019081526020016000206006018382600a811015156122d657fe5b602002015190806001815401808255809150509060018203906000526020600020016000909192909190916101000a81548173ffffffffffffffffffffffffffffffffffffffff021916908373ffffffffffffffffffffffffffffffffffffffff160217905550508160036000876000191660001916815260200190815260200160002060040160008584600a8110151561236d57fe5b602002015173ffffffffffffffffffffffffffffffffffffffff1673ffffffffffffffffffffffffffffffffffffffff168152602001908152602001600020600082015181600001556020820151816001015560408201518160020160006101000a81548160ff02191690831515021790555090505080806001019150506122a1565b84600019166004543373ffffffffffffffffffffffffffffffffffffffff167f1ebb59267ec489d735c87beeaa0db77365ddcfdf4d260f7a3fcc9d8baa2c1e6260405160405180910390a46001600460008282540192505081905550829550505050505092915050565b600080600080866006018054905093505b8383101561258557866006018381548110151561248457fe5b9060005260206000200160009054906101000a900473ffffffffffffffffffffffffffffffffffffffff1691508660040160008373ffffffffffffffffffffffffffffffffffffffff1673ffffffffffffffffffffffffffffffffffffffff16815260200190815260200160002090508060020160009054906101000a900460ff16801561251857508560ff168160000154145b15612570578173ffffffffffffffffffffffffffffffffffffffff166108fc858781151561254257fe5b049081150290604051600060405180830381858888f1935050505015801561256e573d6000803e3d6000fd5b505b8280600101935050828060010193505061246b565b50505050505050565b6000806000806000876005018054905094505b848410156126bf5787600501848154811015156125ba57fe5b9060005260206000200160009054906101000a900473ffffffffffffffffffffffffffffffffffffffff1692508760030160008473ffffffffffffffffffffffffffffffffffffffff1673ffffffffffffffffffffffffffffffffffffffff16815260200190815260200160002091508660ff16826000015414156126aa5787600d018760ff1660038110151561264d57fe5b01548260010154870281151561265f57fe5b0490508273ffffffffffffffffffffffffffffffffffffffff166108fc829081150290604051600060405180830381858888f193505050501580156126a8573d6000803e3d6000fd5b505b838060010194505083806001019450506125a1565b5050505050505050565b6000806000806000876006018054905094505b8484101561287a5787600601848154811015156126f557fe5b9060005260206000200160009054906101000a900473ffffffffffffffffffffffffffffffffffffffff1692508760040160008473ffffffffffffffffffffffffffffffffffffffff1673ffffffffffffffffffffffffffffffffffffffff16815260200190815260200160002091508160020160009054906101000a900460ff1615612865578660ff168260000154141561280e57876010018760ff1660038110151561279f57fe5b0154826001015487028115156127b157fe5b048260010154019050806000808573ffffffffffffffffffffffffffffffffffffffff1673ffffffffffffffffffffffffffffffffffffffff16815260200190815260200160002060010160008282540192505081905550612864565b6002546000808573ffffffffffffffffffffffffffffffffffffffff1673ffffffffffffffffffffffffffffffffffffffff1681526020019081526020016000206001015410156128635761286283610e83565b5b5b5b838060010194505083806001019450506126dc565b5050505050505050565b8173ffffffffffffffffffffffffffffffffffffffff166108fc829081150290604051600060405180830381858888f193505050501580156128ca573d6000803e3d6000fd5b505050565b6128d7612add565b6128df612c73565b6000806000806000600a600180549050101561299b57600094505b6001805490508510156129935760018581548110151561291657fe5b9060005260206000200160009054906101000a900473ffffffffffffffffffffffffffffffffffffffff168786600a8110151561294f57fe5b602002019073ffffffffffffffffffffffffffffffffffffffff16908173ffffffffffffffffffffffffffffffffffffffff168152505084806001019550506128fa565b869650612ab1565b600093505b600a841015612aad57600180805490506001430340600190048115156129c257fe5b0601925060009150600090505b83811015612a0357828682600a811015156129e657fe5b602002015114156129f657600191505b80806001019150506129cf565b811515612aa857828685600a81101515612a1957fe5b602002018181525050600183815481101515612a3157fe5b9060005260206000200160009054906101000a900473ffffffffffffffffffffffffffffffffffffffff168785600a81101515612a6a57fe5b602002019073ffffffffffffffffffffffffffffffffffffffff16908173ffffffffffffffffffffffffffffffffffffffff16815250506001840193505b6129a0565b8696505b50505050505090565b606060405190810160405280600390602082028038833980820191505090505090565b61014060405190810160405280600a90602082028038833980820191505090505090565b61024060405190810160405280600073ffffffffffffffffffffffffffffffffffffffff168152602001600081526020016000151581526020016060815260200160608152602001612b51612c97565b8152602001612b5e612c97565b8152602001612b6b612c97565b8152602001612b78612c97565b8152602001600081525090565b60606040519081016040528060008152602001600081526020016000151581525090565b828054828255906000526020600020908101928215612c22579160200282015b82811115612c215782518260006101000a81548173ffffffffffffffffffffffffffffffffffffffff021916908373ffffffffffffffffffffffffffffffffffffffff16021790555091602001919060010190612bc9565b5b509050612c2f9190612cba565b5090565b8260038101928215612c62579160200282015b82811115612c61578251825591602001919060010190612c46565b5b509050612c6f9190612cfd565b5090565b61014060405190810160405280600a90602082028038833980820191505090505090565b606060405190810160405280600390602082028038833980820191505090505090565b612cfa91905b80821115612cf657600081816101000a81549073ffffffffffffffffffffffffffffffffffffffff021916905550600101612cc0565b5090565b90565b612d1f91905b80821115612d1b576000816000905550600101612d03565b5090565b905600a165627a7a72305820ace6b07a41d3d1e9b1695562feec90111068543096417992b172b89c75f631ef0029",
  "source": "pragma solidity ^0.4.22;\n\ncontract FakeNewsMarket {\n\n    mapping(address => Reporter) reportersData; //address to email\n    address[] reporters;\n    uint256 minRep = 10;\n\n    struct Reporter {\n        bytes32 email;\n        uint reputation;\n        bool is_valid;\n    }\n\n    struct Bet {\n        uint vote;   // 0,1,2\n        uint amount;\n    }\n\n    struct Report {\n        uint vote;   // 0,1,2\n        uint reputation;\n        bool is_valid;\n    }\n\n    struct ArticleMarket{\n        address creator;\n        uint256 deadline;\n        bool is_open;\n        mapping(address => Bet) votes;\n        mapping(address => Report) reports;\n        address[] voters;\n        address[] reporters;\n        uint[3] sum_votes;\n        uint[3] sum_reports;\n        uint[3] sum_bets;\n        uint[3] sum_rep; //sum of reputation\n        uint consensus;\n    }\n\n    event ArticleCreated(address indexed _creator, uint indexed _numberInArray, bytes32 indexed _articleHash);\n\n    mapping(bytes32 => ArticleMarket) public markets;\n    uint public numArticles = 0;\n\n    function createArticleMarket(string _article, uint256 _deadline) public returns (address[10]){\n      bytes32 article_hash = keccak256(abi.encodePacked(_article));\n      ArticleMarket memory new_market = ArticleMarket({\n          creator: msg.sender,\n          deadline: _deadline,\n          is_open: true,\n          sum_votes: [uint(0),uint(0),uint(0)],\n          sum_reports: [uint(0),uint(0),uint(0)],\n          sum_bets: [uint(0),uint(0),uint(0)],\n          sum_rep: [uint(0), uint(0), uint(0)],\n          voters: new address[](0),\n          reporters: new address[](0),\n          consensus: 256\n      });\n      markets[article_hash] = new_market;\n      address[10] memory reporterAddresses = assignReporters();\n      Report memory report = Report({\n         is_valid: true,\n         vote: 0,\n         reputation: 0\n      });\n      for (uint i = 0; i < 10; i++){\n        markets[article_hash].reporters.push(reporterAddresses[i]);\n        markets[article_hash].reports[reporterAddresses[i]]= report; //initialize reports\n      }\n\n      emit ArticleCreated(msg.sender, numArticles, article_hash);\n      numArticles += 1;\n      return reporterAddresses;\n    }\n\n    function vote(string _article, uint _vote) public payable returns (bool success) {\n        // vote function\n        // check if sender's address is already in array, if so, change existing\n        // add address and money to map\n        if (msg.value == 0) {\n            return false;\n        }\n        bytes32 article_hash = keccak256(abi.encodePacked(_article));\n        ArticleMarket storage market = markets[article_hash];\n        if (market.creator != 0) { //market exists\n            Bet storage curr_bet = market.votes[msg.sender];\n            if (curr_bet.amount > 0) {\n                //voter has already bet/voted\n                uint refund = 0;\n                if (msg.value > curr_bet.amount) {\n                    //send back difference (msg.value - curr_bet.amount)\n                    refund = msg.value - curr_bet.amount;\n\n                } else if (msg.value < curr_bet.amount) {\n                    //send back difference (curr_bet.amount - msg.value)\n                    refund = curr_bet.amount - msg.value;\n                } else if (msg.value == curr_bet.amount) {\n                    //reject new money\n                    refund = msg.value;\n                }\n                if (curr_bet.vote != _vote) { //voter is changing previous vote\n                    market.sum_votes[curr_bet.vote] -= 1;\n                    market.sum_bets[curr_bet.vote] -= curr_bet.amount;\n                    market.sum_bets[_vote] = msg.value;\n                } else {\n                    market.sum_bets[curr_bet.vote] += (msg.value - refund);\n                }\n                refund_voter(msg.sender, refund);\n\n            } else {\n                market.sum_bets[_vote] += msg.value;\n                market.voters.push(msg.sender);\n            }\n            market.sum_votes[_vote] += 1;\n            curr_bet.amount = msg.value;\n            curr_bet.vote = _vote;\n        }\n        return true;\n        }\n\n    function refund_voter(address _to, uint _amount) private {\n        _to.transfer(_amount);\n    }\n\n    function report(string _article, uint _vote, uint _rep) {\n      bytes32 hash = keccak256(abi.encodePacked(_article));\n      require(markets[hash].reports[msg.sender].is_valid == true);\n      require(markets[hash].reports[msg.sender].reputation == 0); //not reported yet\n      require(reportersData[msg.sender].reputation >= _rep);\n      reportersData[msg.sender].reputation -= _rep;\n      markets[hash].reports[msg.sender] = Report({\n        vote : _vote,\n        reputation : _rep,\n        is_valid: true\n      });\n      markets[hash].sum_reports[_vote] += 1;\n      markets[hash].sum_rep[_vote] += _rep;\n    }\n\n    function addReporter(address _address, string email) {\n      bytes32 hash = keccak256(abi.encodePacked(email));\n      reporters.push(_address);\n      reportersData[_address] = Reporter({\n        email : hash,\n        reputation: 15, //starting reputation\n        is_valid: true\n      });\n    }\n\n    function assignReporters() private view returns (address[10] assigned){\n        uint[10] memory indices;\n        if (reporters.length < 10) {\n            for (uint r = 0; r < reporters.length; r++){\n              assigned[r] = reporters[r]; //copy whatever reporters exist into addresses\n            }\n            return assigned;\n        }\n        uint i = 0;\n        while (i < 10) {\n          uint random_number = uint(blockhash(block.number-1))%reporters.length + 1;\n          bool exists = false;\n          for (uint j = 0; j < i; j++) {\n            if(indices[j] == random_number) {\n              exists = true;\n            }\n          }\n          if (!exists){\n            indices[i] = random_number;\n            assigned[i] = reporters[random_number];\n            i += 1;\n          }\n        }\n        return assigned;\n    }\n\n    function closeMarket(string _article) {\n        //TODO: check deadline\n        bytes32 hash = keccak256(abi.encodePacked(_article));\n        ArticleMarket storage market = markets[hash];\n        if (market.deadline < now && market.is_open) {\n          //determine winning answer from reporters\n          uint256 reports_0 = market.sum_reports[0];\n          uint256 reports_1 = market.sum_reports[1];\n          uint256 reports_2 = market.sum_reports[2];\n          //set vote 0 to be the winner\n          uint8 consensus = 0;\n          uint256 max_reports = reports_0;\n          uint256 rep_redistribute = market.sum_rep[1] + market.sum_rep[2];\n          if (max_reports < reports_1 && reports_1 < reports_2) {\n              //vote 2 is the winner\n              consensus = 2;\n              max_reports = reports_2;\n              rep_redistribute = market.sum_rep[0] + market.sum_rep[1];\n          } else if (max_reports < reports_1 && reports_1 > reports_2) {\n              //vote 1 is the winner\n              consensus = 1;\n              max_reports = reports_1;\n              rep_redistribute = market.sum_rep[0] + market.sum_rep[2];\n          }\n          //TODO: handle case where some of the # reports is equal\n          uint256 winnings = market.sum_bets[0] + market.sum_bets[1] + market.sum_bets[2];\n          uint256 reporter_winnings = winnings/10;\n          uint256 correct_voter_winnings = winnings - reporter_winnings;\n\n          distributeWinningsToReporters(market, consensus, reporter_winnings);\n          distributeWinningsToVoters(market, consensus, correct_voter_winnings);\n          distributeReputation(market, consensus, rep_redistribute);\n          //close market\n          market.is_open = false;\n          }\n    }\n\n    function distributeWinningsToReporters(ArticleMarket storage _market, uint8 _consensus, uint256 _reporterWinnings) private {\n        uint256 num_reporters = _market.reporters.length;\n        for(uint i;i<num_reporters;i++) {\n            address reporter = _market.reporters[i];\n            Report storage inReport = _market.reports[reporter];\n            if (inReport.is_valid && inReport.vote == _consensus) {\n                reporter.transfer(_reporterWinnings/num_reporters);\n            }\n            i++;\n        }\n    }\n\n    function distributeWinningsToVoters(ArticleMarket storage _market, uint8 _consensus, uint256 _correctVoterWinnings) private {\n        uint256 num_voters = _market.voters.length;\n        for(uint i;i<num_voters;i++) {\n            address voter = _market.voters[i];\n            Bet storage voter_bet = _market.votes[voter];\n            if (voter_bet.vote == _consensus) {\n                uint256 voter_winnings = _correctVoterWinnings * voter_bet.amount / _market.sum_bets[_consensus];\n                voter.transfer(voter_winnings);\n            }\n            i++;\n        }\n    }\n\n    function removeReporter(address _reporter){\n      reportersData[_reporter].is_valid = false;\n      uint initLen = reporters.length;\n      uint idx  = 0;\n      while (idx < reporters.length){\n        if (reporters[idx] == _reporter) {\n          delete reporters[idx];\n          break;\n        }\n        idx += 1;\n      }\n      reporters[idx] = reporters[initLen-1];\n      delete reporters[initLen-1]; //copy last element into the empty spot and delete it\n    }\n\n    function distributeReputation(ArticleMarket storage _market, uint8 _consensus, uint256 _correctReporterWinnings) private {\n      uint256 num_reporters = _market.reporters.length;\n      for(uint i; i<num_reporters; i++) {\n          address reporter = _market.reporters[i];\n          Report storage inReport = _market.reports[reporter];\n          if (inReport.is_valid) {\n            if (inReport.vote == _consensus) {\n              uint256 rep_winnings = inReport.reputation + _correctReporterWinnings*inReport.reputation/_market.sum_rep[_consensus];\n              reportersData[reporter].reputation += rep_winnings;\n            }\n            else {\n              if (reportersData[reporter].reputation < minRep){\n                removeReporter(reporter);\n              }\n            }\n          }\n          i++;\n      }\n    }\n\n    function articleExists(string _article) public view returns (bool exists) {\n    bytes32 hash = keccak256(abi.encodePacked(_article));\n    if (markets[hash].creator > 0) {\n        return true;\n    }\n    }\n\n    function reporterExists(address _reporter) public view returns (bool exists) {\n      if (reportersData[_reporter].is_valid == true) {\n        return true;\n      }\n      return false;\n    }\n\n    function getVotes(string _article) public view returns (uint[3] sum_votes) {\n        bytes32 hash = keccak256(abi.encodePacked(_article));\n        if (markets[hash].creator > 0) {\n            return markets[hash].sum_votes;\n        }\n    }\n\n    function getBets(string _article) public view returns (uint[3] sum_bets) {\n        bytes32 hash = keccak256(abi.encodePacked(_article));\n        if (markets[hash].creator > 0) {\n            return markets[hash].sum_bets;\n        }\n    }\n\n    function getReports(string _article) public view returns (uint[3] sum_reports) {\n        bytes32 hash = keccak256(abi.encodePacked(_article));\n        if (markets[hash].creator > 0) {\n            return markets[hash].sum_reports;\n        }\n    }\n\n    function getReporterRep(address _reporter) public view returns (uint rep){\n      if (reportersData[_reporter].is_valid) {\n            return reportersData[_reporter].reputation;\n      }\n    }\n\n    function getRep(string _article) public view returns (uint[3] sum_rep) {\n        bytes32 hash = keccak256(abi.encodePacked(_article));\n        if (markets[hash].creator > 0) {\n            return markets[hash].sum_rep;\n        }\n    }\n\n  }\n",
  "sourcePath": "/home/avgupta/spring_1718/cs359B/cs359b-fake-news-detector/contracts/contracts/FakeNewsMarket.sol",
  "compiler": {
    "name": "solc",
    "version": "0.4.23+commit.124ca40d.Emscripten.clang"
  },
  "schemaVersion": "2.0.0",
  "updatedAt": "2018-06-06T05:41:18.352Z"
}