{
  "contractName": "FakeNewsMarket",
  "abi": [
    {
      "constant": true,
      "inputs": [
        {
          "name": "",
          "type": "uint256"
        }
      ],
      "name": "markets",
      "outputs": [
        {
          "name": "articleHash",
          "type": "bytes32"
        },
        {
          "name": "creator",
          "type": "address"
        }
      ],
      "payable": false,
      "stateMutability": "view",
      "type": "function"
    },
    {
      "constant": true,
      "inputs": [
        {
          "name": "_article",
          "type": "string"
        }
      ],
      "name": "createArticleMarket",
      "outputs": [
        {
          "name": "success",
          "type": "bool"
        }
      ],
      "payable": false,
      "stateMutability": "view",
      "type": "function"
    },
    {
      "constant": false,
      "inputs": [
        {
          "name": "_article",
          "type": "string"
        },
        {
          "name": "_vote",
          "type": "uint256"
        }
      ],
      "name": "vote",
      "outputs": [
        {
          "name": "numVotes",
          "type": "uint256"
        }
      ],
      "payable": false,
      "stateMutability": "nonpayable",
      "type": "function"
    },
    {
      "constant": true,
      "inputs": [],
      "name": "getNumArticles",
      "outputs": [
        {
          "name": "len",
          "type": "uint256"
        }
      ],
      "payable": false,
      "stateMutability": "view",
      "type": "function"
    },
    {
      "constant": true,
      "inputs": [
        {
          "name": "_article",
          "type": "string"
        }
      ],
      "name": "articleExists",
      "outputs": [
        {
          "name": "exists",
          "type": "bool"
        }
      ],
      "payable": false,
      "stateMutability": "view",
      "type": "function"
    }
  ],
  "bytecode": "0x608060405234801561001057600080fd5b5061090e806100206000396000f30060806040526004361061006d576000357c0100000000000000000000000000000000000000000000000000000000900463ffffffff16806318628e86146100725780639d945dc41461009d578063a63858031461011e578063ab592769146101a5578063b1283e7714610226575b600080fd5b34801561007e57600080fd5b506100876102a2565b6040518082815260200191505060405180910390f35b3480156100a957600080fd5b50610104600480360381019080803590602001908201803590602001908080601f01602080910402602001604051908101604052809392919081815260200183838082843782019150505050505091929192905050506102ae565b604051808215151515815260200191505060405180910390f35b34801561012a57600080fd5b5061018f600480360381019080803590602001908201803590602001908080601f016020809104026020016040519081016040528093929190818152602001838380828437820191505050505050919291929080359060200190929190505050610378565b6040518082815260200191505060405180910390f35b3480156101b157600080fd5b5061020c600480360381019080803590602001908201803590602001908080601f01602080910402602001604051908101604052809392919081815260200183838082843782019150505050505091929192905050506105f7565b604051808215151515815260200191505060405180910390f35b34801561023257600080fd5b50610251600480360381019080803590602001909291905050506107c5565b6040518083600019166000191681526020018273ffffffffffffffffffffffffffffffffffffffff1673ffffffffffffffffffffffffffffffffffffffff1681526020019250505060405180910390f35b60008080549050905090565b6000806000836040518082805190602001908083835b6020831015156102e957805182526020820191506020810190506020830392506102c4565b6001836020036101000a03801982511681845116808217855250505050505090500191505060405180910390209150600090505b60008054905081101561037057816000191660008281548110151561033e57fe5b9060005260206000209060060201600001546000191614156103635760019250610371565b808060010191505061031d565b5b5050919050565b6000806000806000866040518082805190602001908083835b6020831015156103b65780518252602082019150602081019050602083039250610391565b6001836020036101000a03801982511681845116808217855250505050505090500191505060405180910390209250600091505b60008054905082101561043857826000191660008381548110151561040b57fe5b90600052602060002090600602016000015460001916141561042b578193505b81806001019250506103ea565b60008481548110151561044757fe5b906000526020600020906006020160020160003373ffffffffffffffffffffffffffffffffffffffff1673ffffffffffffffffffffffffffffffffffffffff16815260200190815260200160002090508060000160009054906101000a900460ff1615151561051e576040517f08c379a000000000000000000000000000000000000000000000000000000000815260040180806020018281038252600e8152602001807f416c726561647920766f7465642e00000000000000000000000000000000000081525060200191505060405180910390fd5b60018160000160006101000a81548160ff021916908315150217905550858160010181905550600160008581548110151561055557fe5b90600052602060002090600602016004018760038110151561057357fe5b602091828204019190068282829054906101000a900460ff160192506101000a81548160ff021916908360ff1602179055506000848154811015156105b457fe5b9060005260206000209060060201600401866003811015156105d257fe5b602091828204019190069054906101000a900460ff1660ff1694505050505092915050565b60008060008054905090506000608060405190810160405280856040518082805190602001908083835b6020831015156106465780518252602082019150602081019050602083039250610621565b6001836020036101000a03801982511681845116808217855250505050505090500191505060405180910390206000191681526020013373ffffffffffffffffffffffffffffffffffffffff168152602001606060405190810160405280600060ff168152602001600060ff168152602001600060ff168152508152602001606060405190810160405280600060ff168152602001600060ff168152602001600060ff16815250815250908060018154018082558091505090600182039060005260206000209060060201600090919290919091506000820151816000019060001916905560208201518160010160006101000a81548173ffffffffffffffffffffffffffffffffffffffff021916908373ffffffffffffffffffffffffffffffffffffffff160217905550604082015181600401906003610789929190610818565b506060820151816005019060036107a1929190610818565b505050506001810160008054905014156107be57600191506107bf565b5b50919050565b6000818154811015156107d457fe5b90600052602060002090600602016000915090508060000154908060010160009054906101000a900473ffffffffffffffffffffffffffffffffffffffff16905082565b826003601f016020900481019282156108a15791602002820160005b8382111561087257835183826101000a81548160ff021916908360ff1602179055509260200192600101602081600001049283019260010302610834565b801561089f5782816101000a81549060ff0219169055600101602081600001049283019260010302610872565b505b5090506108ae91906108b2565b5090565b6108df91905b808211156108db57600081816101000a81549060ff0219169055506001016108b8565b5090565b905600a165627a7a72305820ac4b60cae9aa046d2a2916acbd0f17cd80e8516a690ec1289d1af7444f9ad1130029",
  "source": "pragma solidity ^0.4.22;\n\ncontract FakeNewsMarket {\n\n    struct Voter {\n        bool voted;  // if true, that person already voted\n        uint vote;   // 0,1,2\n    }\n\n    struct Reporter {\n        bool voted;  // if true, that person already voted\n        uint vote;   // 0,1,2\n        uint weight;\n        uint reputation;\n    }\n\n    struct ArticleMarket{\n        bytes32 articleHash;\n        address creator;\n        //uint256 votingPeriod;\n        mapping(address => Voter) voters;\n        mapping(address => Reporter) reporters;\n        uint8[3] votes;\n        uint8[3] reports;\n    }\n\n    ArticleMarket[] public markets;\n\n    function createArticleMarket(string _article) public view returns (bool success){\n      uint256 initLen = markets.length;\n      markets.push(ArticleMarket({\n          articleHash: keccak256(_article),\n          creator: msg.sender,\n          votes: [0,0,0],\n          reports: [0,0,0]\n      }));\n      if (markets.length == initLen + 1){\n        return true;\n      }\n    }\n\n    function vote(string _article, uint _vote) public returns (uint numVotes){\n      uint articleIdx;\n      bytes32 hash = keccak256(_article);\n      for (uint i=0; i < markets.length; i++) {\n        if (markets[i].articleHash == hash) {\n          articleIdx = i;\n        }\n      }\n      Voter storage sender = markets[articleIdx].voters[msg.sender];\n      require(!sender.voted, \"Already voted.\");\n      sender.voted = true;\n      sender.vote = _vote;\n      markets[articleIdx].votes[_vote] += 1;\n      return markets[articleIdx].votes[_vote];\n    }\n\n    function getNumArticles() public view returns (uint256 len){\n      return markets.length;\n    }\n\n    function articleExists(string _article) public view returns (bool exists) {\n      bytes32 hash = keccak256(_article);\n      for (uint i=0; i < markets.length; i++) {\n        if (markets[i].articleHash == hash) {\n          return true;\n        }\n      }\n    }\n\n}\n",
  "sourcePath": "/home/avgupta/spring_1718/cs359B/cs359b-fake-news-detector/contracts/contracts/FakeNewsMarket.sol",
  "compiler": {
    "name": "solc",
    "version": "0.4.23+commit.124ca40d.Emscripten.clang"
  },
  "schemaVersion": "2.0.0",
  "updatedAt": "2018-05-15T00:45:18.548Z"
}