{
  "contractName": "FakeNewsMarket",
  "abi": [
    {
      "constant": true,
      "inputs": [],
      "name": "numArticles",
      "outputs": [
        {
          "name": "",
          "type": "uint256"
        }
      ],
      "payable": false,
      "stateMutability": "view",
      "type": "function"
    },
    {
      "constant": true,
      "inputs": [
        {
          "name": "",
          "type": "bytes32"
        }
      ],
      "name": "markets",
      "outputs": [
        {
          "name": "creator",
          "type": "address"
        },
        {
          "name": "deadline",
          "type": "uint256"
        },
        {
          "name": "is_open",
          "type": "bool"
        },
        {
          "name": "consensus",
          "type": "uint256"
        }
      ],
      "payable": false,
      "stateMutability": "view",
      "type": "function"
    },
    {
      "anonymous": false,
      "inputs": [
        {
          "indexed": true,
          "name": "_creator",
          "type": "address"
        },
        {
          "indexed": true,
          "name": "_numberInArray",
          "type": "uint256"
        },
        {
          "indexed": true,
          "name": "_articleHash",
          "type": "bytes32"
        }
      ],
      "name": "ArticleCreated",
      "type": "event"
    },
    {
      "constant": false,
      "inputs": [
        {
          "name": "_article",
          "type": "string"
        },
        {
          "name": "_deadline",
          "type": "uint256"
        }
      ],
      "name": "createArticleMarket",
      "outputs": [
        {
          "name": "added",
          "type": "uint256"
        }
      ],
      "payable": false,
      "stateMutability": "nonpayable",
      "type": "function"
    },
    {
      "constant": true,
      "inputs": [
        {
          "name": "_article",
          "type": "string"
        }
      ],
      "name": "getAssignedReporters",
      "outputs": [
        {
          "name": "assigned",
          "type": "address[10]"
        }
      ],
      "payable": false,
      "stateMutability": "view",
      "type": "function"
    },
    {
      "constant": false,
      "inputs": [
        {
          "name": "_article",
          "type": "string"
        },
        {
          "name": "_vote",
          "type": "uint256"
        }
      ],
      "name": "vote",
      "outputs": [
        {
          "name": "success",
          "type": "bool"
        }
      ],
      "payable": true,
      "stateMutability": "payable",
      "type": "function"
    },
    {
      "constant": false,
      "inputs": [
        {
          "name": "_article",
          "type": "string"
        },
        {
          "name": "_vote",
          "type": "uint256"
        },
        {
          "name": "_rep",
          "type": "uint256"
        }
      ],
      "name": "report",
      "outputs": [],
      "payable": false,
      "stateMutability": "nonpayable",
      "type": "function"
    },
    {
      "constant": false,
      "inputs": [
        {
          "name": "_address",
          "type": "address"
        },
        {
          "name": "email",
          "type": "string"
        }
      ],
      "name": "addReporter",
      "outputs": [],
      "payable": false,
      "stateMutability": "nonpayable",
      "type": "function"
    },
    {
      "constant": false,
      "inputs": [
        {
          "name": "_article",
          "type": "string"
        }
      ],
      "name": "closeMarket",
      "outputs": [],
      "payable": false,
      "stateMutability": "nonpayable",
      "type": "function"
    },
    {
      "constant": false,
      "inputs": [
        {
          "name": "_reporter",
          "type": "address"
        }
      ],
      "name": "removeReporter",
      "outputs": [],
      "payable": false,
      "stateMutability": "nonpayable",
      "type": "function"
    },
    {
      "constant": true,
      "inputs": [
        {
          "name": "_article",
          "type": "string"
        }
      ],
      "name": "articleExists",
      "outputs": [
        {
          "name": "exists",
          "type": "bool"
        }
      ],
      "payable": false,
      "stateMutability": "view",
      "type": "function"
    },
    {
      "constant": true,
      "inputs": [
        {
          "name": "_reporter",
          "type": "address"
        }
      ],
      "name": "reporterExists",
      "outputs": [
        {
          "name": "exists",
          "type": "bool"
        }
      ],
      "payable": false,
      "stateMutability": "view",
      "type": "function"
    },
    {
      "constant": true,
      "inputs": [
        {
          "name": "_article",
          "type": "string"
        }
      ],
      "name": "getVotes",
      "outputs": [
        {
          "name": "sum_votes",
          "type": "uint256[3]"
        }
      ],
      "payable": false,
      "stateMutability": "view",
      "type": "function"
    },
    {
      "constant": true,
      "inputs": [
        {
          "name": "_article",
          "type": "string"
        }
      ],
      "name": "getBets",
      "outputs": [
        {
          "name": "sum_bets",
          "type": "uint256[3]"
        }
      ],
      "payable": false,
      "stateMutability": "view",
      "type": "function"
    },
    {
      "constant": true,
      "inputs": [
        {
          "name": "_article",
          "type": "string"
        }
      ],
      "name": "getReports",
      "outputs": [
        {
          "name": "sum_reports",
          "type": "uint256[3]"
        }
      ],
      "payable": false,
      "stateMutability": "view",
      "type": "function"
    },
    {
      "constant": true,
      "inputs": [
        {
          "name": "_reporter",
          "type": "address"
        }
      ],
      "name": "getReporterRep",
      "outputs": [
        {
          "name": "rep",
          "type": "uint256"
        }
      ],
      "payable": false,
      "stateMutability": "view",
      "type": "function"
    },
    {
      "constant": true,
      "inputs": [
        {
          "name": "_article",
          "type": "string"
        }
      ],
      "name": "getRep",
      "outputs": [
        {
          "name": "sum_rep",
          "type": "uint256[3]"
        }
      ],
      "payable": false,
      "stateMutability": "view",
      "type": "function"
    }
  ],
  "bytecode": "0x6080604052600a600255600060045534801561001a57600080fd5b50612f0f8061002a6000396000f3006080604052600436106100e6576000357c0100000000000000000000000000000000000000000000000000000000900463ffffffff1680630fc26347146100eb5780631a68638a146101545780633717ebc2146101f95780635de5c212146102825780636b46dadc146102c5578063734f84821461036a5780637564912b14610395578063805265e51461041f5780638057fef8146104c45780639779dedd1461051f57806398617d9c146105c45780639bf01b16146106415780639d945dc414610698578063a638580314610719578063c845c15514610797578063e7feba5c1461083c575b600080fd5b3480156100f757600080fd5b50610152600480360381019080803590602001908201803590602001908080601f01602080910402602001604051908101604052809392919081815260200183838082843782019150505050505091929192905050506108c3565b005b34801561016057600080fd5b506101bb600480360381019080803590602001908201803590602001908080601f0160208091040260200160405190810160405280939291908181526020018383808284378201915050505050509192919290505050610b9a565b6040518082600360200280838360005b838110156101e65780820151818401526020810190506101cb565b5050505090500191505060405180910390f35b34801561020557600080fd5b50610280600480360381019080803573ffffffffffffffffffffffffffffffffffffffff169060200190929190803590602001908201803590602001908080601f0160208091040260200160405190810160405280939291908181526020018383808284378201915050505050509192919290505050610d3a565b005b34801561028e57600080fd5b506102c3600480360381019080803573ffffffffffffffffffffffffffffffffffffffff169060200190929190505050610f17565b005b3480156102d157600080fd5b5061032c600480360381019080803590602001908201803590602001908080601f016020809104026020016040519081016040528093929190818152602001838380828437820191505050505050919291929050505061111d565b6040518082600360200280838360005b8381101561035757808201518184015260208101905061033c565b5050505090500191505060405180910390f35b34801561037657600080fd5b5061037f6112bd565b6040518082815260200191505060405180910390f35b3480156103a157600080fd5b506103c460048036038101908080356000191690602001909291905050506112c3565b604051808573ffffffffffffffffffffffffffffffffffffffff1673ffffffffffffffffffffffffffffffffffffffff1681526020018481526020018315151515815260200182815260200194505050505060405180910390f35b34801561042b57600080fd5b50610486600480360381019080803590602001908201803590602001908080601f0160208091040260200160405190810160405280939291908181526020018383808284378201915050505050509192919290505050611320565b6040518082600360200280838360005b838110156104b1578082015181840152602081019050610496565b5050505090500191505060405180910390f35b3480156104d057600080fd5b50610505600480360381019080803573ffffffffffffffffffffffffffffffffffffffff1690602001909291905050506114c0565b604051808215151515815260200191505060405180910390f35b34801561052b57600080fd5b50610586600480360381019080803590602001908201803590602001908080601f0160208091040260200160405190810160405280939291908181526020018383808284378201915050505050509192919290505050611530565b6040518082600360200280838360005b838110156105b1578082015181840152602081019050610596565b5050505090500191505060405180910390f35b3480156105d057600080fd5b5061063f600480360381019080803590602001908201803590602001908080601f016020809104026020016040519081016040528093929190818152602001838380828437820191505050505050919291929080359060200190929190803590602001909291905050506116d0565b005b34801561064d57600080fd5b50610682600480360381019080803573ffffffffffffffffffffffffffffffffffffffff169060200190929190505050611a59565b6040518082815260200191505060405180910390f35b3480156106a457600080fd5b506106ff600480360381019080803590602001908201803590602001908080601f0160208091040260200160405190810160405280939291908181526020018383808284378201915050505050509192919290505050611afe565b604051808215151515815260200191505060405180910390f35b61077d600480360381019080803590602001908201803590602001908080601f016020809104026020016040519081016040528093929190818152602001838380828437820191505050505050919291929080359060200190929190505050611c3f565b604051808215151515815260200191505060405180910390f35b3480156107a357600080fd5b506107fe600480360381019080803590602001908201803590602001908080601f0160208091040260200160405190810160405280939291908181526020018383808284378201915050505050509192919290505050611f9c565b6040518082600a60200280838360005b8381101561082957808201518184015260208101905061080e565b5050505090500191505060405180910390f35b34801561084857600080fd5b506108ad600480360381019080803590602001908201803590602001908080601f01602080910402602001604051908101604052809392919081815260200183838082843782019150505050505091929192908035906020019092919050505061210f565b6040518082815260200191505060405180910390f35b60008060008060008060008060008060008b6040516020018082805190602001908083835b60208310151561090d57805182526020820191506020810190506020830392506108e8565b6001836020036101000a0380198251168184511680821785525050505050509050019150506040516020818303038152906040526040518082805190602001908083835b6020831015156109765780518252602082019150602081019050602083039250610951565b6001836020036101000a03801982511681845116808217855250505050505090500191505060405180910390209a50600360008c600019166000191681526020019081526020016000209950428a600101541080156109e357508960020160009054906101000a900460ff165b15610b8c578960130160006003811015156109fa57fe5b01549850896013016001600381101515610a1057fe5b01549750896013016002600381101515610a2657fe5b0154965060009550889450896019016002600381101515610a4357fe5b01548a6019016001600381101515610a5757fe5b01540193508785108015610a6a57508688105b15610aa65760029550869450896019016001600381101515610a8857fe5b01548a6019016000600381101515610a9c57fe5b0154019350610aed565b8785108015610ab457508688115b15610aec5760019550879450896019016002600381101515610ad257fe5b01548a6019016000600381101515610ae657fe5b01540193505b5b896016016002600381101515610aff57fe5b01548a6016016001600381101515610b1357fe5b01548b6016016000600381101515610b2757fe5b015401019250600a83811515610b3957fe5b0491508183039050610b4c8a8784612592565b610b578a87836126b7565b610b628a87866127f2565b60008a60020160006101000a81548160ff0219169083151502179055508560ff168a601c01819055505b505050505050505050505050565b610ba2612bd4565b6000826040516020018082805190602001908083835b602083101515610bdd5780518252602082019150602081019050602083039250610bb8565b6001836020036101000a0380198251168184511680821785525050505050509050019150506040516020818303038152906040526040518082805190602001908083835b602083101515610c465780518252602082019150602081019050602083039250610c21565b6001836020036101000a03801982511681845116808217855250505050505090500191505060405180910390209050600060036000836000191660001916815260200190815260200160002060000160009054906101000a900473ffffffffffffffffffffffffffffffffffffffff1673ffffffffffffffffffffffffffffffffffffffff161115610d3357600360008260001916600019168152602001908152602001600020601301600380602002604051908101604052809291908260038015610d27576020028201915b815481526020019060010190808311610d13575b50505050509150610d34565b5b50919050565b6000816040516020018082805190602001908083835b602083101515610d755780518252602082019150602081019050602083039250610d50565b6001836020036101000a0380198251168184511680821785525050505050509050019150506040516020818303038152906040526040518082805190602001908083835b602083101515610dde5780518252602082019150602081019050602083039250610db9565b6001836020036101000a0380198251168184511680821785525050505050509050019150506040518091039020905060018390806001815401808255809150509060018203906000526020600020016000909192909190916101000a81548173ffffffffffffffffffffffffffffffffffffffff021916908373ffffffffffffffffffffffffffffffffffffffff1602179055505060606040519081016040528082600019168152602001600f8152602001600115158152506000808573ffffffffffffffffffffffffffffffffffffffff1673ffffffffffffffffffffffffffffffffffffffff168152602001908152602001600020600082015181600001906000191690556020820151816001015560408201518160020160006101000a81548160ff021916908315150217905550905050505050565b60008060008060008573ffffffffffffffffffffffffffffffffffffffff1673ffffffffffffffffffffffffffffffffffffffff16815260200190815260200160002060020160006101000a81548160ff0219169083151502179055506001805490509150600090505b600180549050811015611047578273ffffffffffffffffffffffffffffffffffffffff16600182815481101515610fb457fe5b9060005260206000200160009054906101000a900473ffffffffffffffffffffffffffffffffffffffff1673ffffffffffffffffffffffffffffffffffffffff16141561103c5760018181548110151561100a57fe5b9060005260206000200160006101000a81549073ffffffffffffffffffffffffffffffffffffffff0219169055611047565b600181019050610f81565b600180830381548110151561105857fe5b9060005260206000200160009054906101000a900473ffffffffffffffffffffffffffffffffffffffff1660018281548110151561109257fe5b9060005260206000200160006101000a81548173ffffffffffffffffffffffffffffffffffffffff021916908373ffffffffffffffffffffffffffffffffffffffff16021790555060018083038154811015156110eb57fe5b9060005260206000200160006101000a81549073ffffffffffffffffffffffffffffffffffffffff0219169055505050565b611125612bd4565b6000826040516020018082805190602001908083835b602083101515611160578051825260208201915060208101905060208303925061113b565b6001836020036101000a0380198251168184511680821785525050505050509050019150506040516020818303038152906040526040518082805190602001908083835b6020831015156111c957805182526020820191506020810190506020830392506111a4565b6001836020036101000a03801982511681845116808217855250505050505090500191505060405180910390209050600060036000836000191660001916815260200190815260200160002060000160009054906101000a900473ffffffffffffffffffffffffffffffffffffffff1673ffffffffffffffffffffffffffffffffffffffff1611156112b6576003600082600019166000191681526020019081526020016000206016016003806020026040519081016040528092919082600380156112aa576020028201915b815481526020019060010190808311611296575b505050505091506112b7565b5b50919050565b60045481565b60036020528060005260406000206000915090508060000160009054906101000a900473ffffffffffffffffffffffffffffffffffffffff16908060010154908060020160009054906101000a900460ff169080601c0154905084565b611328612bd4565b6000826040516020018082805190602001908083835b602083101515611363578051825260208201915060208101905060208303925061133e565b6001836020036101000a0380198251168184511680821785525050505050509050019150506040516020818303038152906040526040518082805190602001908083835b6020831015156113cc57805182526020820191506020810190506020830392506113a7565b6001836020036101000a03801982511681845116808217855250505050505090500191505060405180910390209050600060036000836000191660001916815260200190815260200160002060000160009054906101000a900473ffffffffffffffffffffffffffffffffffffffff1673ffffffffffffffffffffffffffffffffffffffff1611156114b9576003600082600019166000191681526020019081526020016000206010016003806020026040519081016040528092919082600380156114ad576020028201915b815481526020019060010190808311611499575b505050505091506114ba565b5b50919050565b6000600115156000808473ffffffffffffffffffffffffffffffffffffffff1673ffffffffffffffffffffffffffffffffffffffff16815260200190815260200160002060020160009054906101000a900460ff1615151415611526576001905061152b565b600090505b919050565b611538612bd4565b6000826040516020018082805190602001908083835b602083101515611573578051825260208201915060208101905060208303925061154e565b6001836020036101000a0380198251168184511680821785525050505050509050019150506040516020818303038152906040526040518082805190602001908083835b6020831015156115dc57805182526020820191506020810190506020830392506115b7565b6001836020036101000a03801982511681845116808217855250505050505090500191505060405180910390209050600060036000836000191660001916815260200190815260200160002060000160009054906101000a900473ffffffffffffffffffffffffffffffffffffffff1673ffffffffffffffffffffffffffffffffffffffff1611156116c9576003600082600019166000191681526020019081526020016000206019016003806020026040519081016040528092919082600380156116bd576020028201915b8154815260200190600101908083116116a9575b505050505091506116ca565b5b50919050565b6000836040516020018082805190602001908083835b60208310151561170b57805182526020820191506020810190506020830392506116e6565b6001836020036101000a0380198251168184511680821785525050505050509050019150506040516020818303038152906040526040518082805190602001908083835b602083101515611774578051825260208201915060208101905060208303925061174f565b6001836020036101000a038019825116818451168082178552505050505050905001915050604051809103902090506001151560036000836000191660001916815260200190815260200160002060040160003373ffffffffffffffffffffffffffffffffffffffff1673ffffffffffffffffffffffffffffffffffffffff16815260200190815260200160002060020160009054906101000a900460ff16151514151561182157600080fd5b600060036000836000191660001916815260200190815260200160002060040160003373ffffffffffffffffffffffffffffffffffffffff1673ffffffffffffffffffffffffffffffffffffffff1681526020019081526020016000206001015414151561188e57600080fd5b816000803373ffffffffffffffffffffffffffffffffffffffff1673ffffffffffffffffffffffffffffffffffffffff16815260200190815260200160002060010154101515156118de57600080fd5b816000803373ffffffffffffffffffffffffffffffffffffffff1673ffffffffffffffffffffffffffffffffffffffff168152602001908152602001600020600101600082825403925050819055506060604051908101604052808481526020018381526020016001151581525060036000836000191660001916815260200190815260200160002060040160003373ffffffffffffffffffffffffffffffffffffffff1673ffffffffffffffffffffffffffffffffffffffff168152602001908152602001600020600082015181600001556020820151816001015560408201518160020160006101000a81548160ff021916908315150217905550905050600160036000836000191660001916815260200190815260200160002060130184600381101515611a0b57fe5b01600082825401925050819055508160036000836000191660001916815260200190815260200160002060190184600381101515611a4557fe5b016000828254019250508190555050505050565b60008060008373ffffffffffffffffffffffffffffffffffffffff1673ffffffffffffffffffffffffffffffffffffffff16815260200190815260200160002060020160009054906101000a900460ff1615611af8576000808373ffffffffffffffffffffffffffffffffffffffff1673ffffffffffffffffffffffffffffffffffffffff168152602001908152602001600020600101549050611af9565b5b919050565b600080826040516020018082805190602001908083835b602083101515611b3a5780518252602082019150602081019050602083039250611b15565b6001836020036101000a0380198251168184511680821785525050505050509050019150506040516020818303038152906040526040518082805190602001908083835b602083101515611ba35780518252602082019150602081019050602083039250611b7e565b6001836020036101000a03801982511681845116808217855250505050505090500191505060405180910390209050600060036000836000191660001916815260200190815260200160002060000160009054906101000a900473ffffffffffffffffffffffffffffffffffffffff1673ffffffffffffffffffffffffffffffffffffffff161115611c385760019150611c39565b5b50919050565b600080600080600080341415611c585760009450611f92565b866040516020018082805190602001908083835b602083101515611c915780518252602082019150602081019050602083039250611c6c565b6001836020036101000a0380198251168184511680821785525050505050509050019150506040516020818303038152906040526040518082805190602001908083835b602083101515611cfa5780518252602082019150602081019050602083039250611cd5565b6001836020036101000a03801982511681845116808217855250505050505090500191505060405180910390209350600360008560001916600019168152602001908152602001600020925060008360000160009054906101000a900473ffffffffffffffffffffffffffffffffffffffff1673ffffffffffffffffffffffffffffffffffffffff16141515611f8d578260030160003373ffffffffffffffffffffffffffffffffffffffff1673ffffffffffffffffffffffffffffffffffffffff1681526020019081526020016000209150600082600101541115611ed057600090508160010154341115611df857816001015434039050611e24565b8160010154341015611e1257348260010154039050611e23565b8160010154341415611e22573490505b5b5b858260000154141515611e9a576001836010018360000154600381101515611e4857fe5b01600082825403925050819055508160010154836016018360000154600381101515611e7057fe5b0160008282540392505081905550348360160187600381101515611e9057fe5b0181905550611ec1565b803403836016018360000154600381101515611eb257fe5b01600082825401925050819055505b611ecb338261299e565b611f59565b348360160187600381101515611ee257fe5b0160008282540192505081905550826005013390806001815401808255809150509060018203906000526020600020016000909192909190916101000a81548173ffffffffffffffffffffffffffffffffffffffff021916908373ffffffffffffffffffffffffffffffffffffffff160217905550505b60018360100187600381101515611f6c57fe5b01600082825401925050819055503482600101819055508582600001819055505b600194505b5050505092915050565b611fa4612bf7565b6000826040516020018082805190602001908083835b602083101515611fdf5780518252602082019150602081019050602083039250611fba565b6001836020036101000a0380198251168184511680821785525050505050509050019150506040516020818303038152906040526040518082805190602001908083835b6020831015156120485780518252602082019150602081019050602083039250612023565b6001836020036101000a03801982511681845116808217855250505050505090500191505060405180910390209050600360008260001916600019168152602001908152602001600020600601600a806020026040519081016040528092919082600a8015612102576020028201915b8160009054906101000a900473ffffffffffffffffffffffffffffffffffffffff1673ffffffffffffffffffffffffffffffffffffffff16815260200190600101908083116120b8575b5050505050915050919050565b60008061211a612bf7565b612122612c1b565b61212a612ca5565b6000876040516020018082805190602001908083835b6020831015156121655780518252602082019150602081019050602083039250612140565b6001836020036101000a0380198251168184511680821785525050505050509050019150506040516020818303038152906040526040518082805190602001908083835b6020831015156121ce57805182526020820191506020810190506020830392506121a9565b6001836020036101000a038019825116818451168082178552505050505050905001915050604051809103902094506122056129e9565b9350610140604051908101604052803373ffffffffffffffffffffffffffffffffffffffff168152602001888152602001600115158152602001600060405190808252806020026020018201604052801561226f5781602001602082028038833980820191505090505b50815260200185815260200160606040519081016040528060008152602001600081526020016000815250815260200160606040519081016040528060008152602001600081526020016000815250815260200160606040519081016040528060008152602001600081526020016000815250815260200160606040519081016040528060008152602001600081526020016000815250815260200161010081525092508260036000876000191660001916815260200190815260200160002060008201518160000160006101000a81548173ffffffffffffffffffffffffffffffffffffffff021916908373ffffffffffffffffffffffffffffffffffffffff1602179055506020820151816001015560408201518160020160006101000a81548160ff02191690831515021790555060608201518160050190805190602001906123bc929190612cc9565b5060808201518160060190600a6123d4929190612d53565b5060a0820151816010019060036123ec929190612dd0565b5060c082015181601301906003612404929190612dd0565b5060e08201518160160190600361241c929190612dd0565b5061010082015181601901906003612435929190612dd0565b5061012082015181601c01559050506060604051908101604052806000815260200160008152602001600115158152509150600090505b600a811015612527578160036000876000191660001916815260200190815260200160002060040160008684600a811015156124a457fe5b602002015173ffffffffffffffffffffffffffffffffffffffff1673ffffffffffffffffffffffffffffffffffffffff168152602001908152602001600020600082015181600001556020820151816001015560408201518160020160006101000a81548160ff021916908315150217905550905050808060010191505061246c565b84600019166004543373ffffffffffffffffffffffffffffffffffffffff167f1ebb59267ec489d735c87beeaa0db77365ddcfdf4d260f7a3fcc9d8baa2c1e6260405160405180910390a4600160046000828254019250508190555060019550505050505092915050565b600080600080600a93505b838310156126ae578660060183600a811015156125b657fe5b0160009054906101000a900473ffffffffffffffffffffffffffffffffffffffff1691508660040160008373ffffffffffffffffffffffffffffffffffffffff1673ffffffffffffffffffffffffffffffffffffffff16815260200190815260200160002090508060020160009054906101000a900460ff16801561264157508560ff168160000154145b15612699578173ffffffffffffffffffffffffffffffffffffffff166108fc858781151561266b57fe5b049081150290604051600060405180830381858888f19350505050158015612697573d6000803e3d6000fd5b505b8280600101935050828060010193505061259d565b50505050505050565b6000806000806000876005018054905094505b848410156127e85787600501848154811015156126e357fe5b9060005260206000200160009054906101000a900473ffffffffffffffffffffffffffffffffffffffff1692508760030160008473ffffffffffffffffffffffffffffffffffffffff1673ffffffffffffffffffffffffffffffffffffffff16815260200190815260200160002091508660ff16826000015414156127d357876016018760ff1660038110151561277657fe5b01548260010154870281151561278857fe5b0490508273ffffffffffffffffffffffffffffffffffffffff166108fc829081150290604051600060405180830381858888f193505050501580156127d1573d6000803e3d6000fd5b505b838060010194505083806001019450506126ca565b5050505050505050565b6000806000806000600a94505b84841015612994578760060184600a8110151561281857fe5b0160009054906101000a900473ffffffffffffffffffffffffffffffffffffffff1692508760040160008473ffffffffffffffffffffffffffffffffffffffff1673ffffffffffffffffffffffffffffffffffffffff16815260200190815260200160002091508160020160009054906101000a900460ff161561297f578660ff168260000154141561292857876019018760ff166003811015156128b957fe5b0154826001015487028115156128cb57fe5b048260010154019050806000808573ffffffffffffffffffffffffffffffffffffffff1673ffffffffffffffffffffffffffffffffffffffff1681526020019081526020016000206001016000828254019250508190555061297e565b6002546000808573ffffffffffffffffffffffffffffffffffffffff1673ffffffffffffffffffffffffffffffffffffffff16815260200190815260200160002060010154101561297d5761297c83610f17565b5b5b5b838060010194505083806001019450506127ff565b5050505050505050565b8173ffffffffffffffffffffffffffffffffffffffff166108fc829081150290604051600060405180830381858888f193505050501580156129e4573d6000803e3d6000fd5b505050565b6129f1612bf7565b6129f9612e10565b6000806000806000600a6001805490501015612ab557600094505b600180549050851015612aad57600185815481101515612a3057fe5b9060005260206000200160009054906101000a900473ffffffffffffffffffffffffffffffffffffffff168786600a81101515612a6957fe5b602002019073ffffffffffffffffffffffffffffffffffffffff16908173ffffffffffffffffffffffffffffffffffffffff16815250508480600101955050612a14565b869650612bcb565b600093505b600a841015612bc75760018080549050600143034060019004811515612adc57fe5b0601925060009150600090505b83811015612b1d57828682600a81101515612b0057fe5b60200201511415612b1057600191505b8080600101915050612ae9565b811515612bc257828685600a81101515612b3357fe5b602002018181525050600183815481101515612b4b57fe5b9060005260206000200160009054906101000a900473ffffffffffffffffffffffffffffffffffffffff168785600a81101515612b8457fe5b602002019073ffffffffffffffffffffffffffffffffffffffff16908173ffffffffffffffffffffffffffffffffffffffff16815250506001840193505b612aba565b8696505b50505050505090565b606060405190810160405280600390602082028038833980820191505090505090565b61014060405190810160405280600a90602082028038833980820191505090505090565b61036060405190810160405280600073ffffffffffffffffffffffffffffffffffffffff1681526020016000815260200160001515815260200160608152602001612c64612e34565b8152602001612c71612e58565b8152602001612c7e612e58565b8152602001612c8b612e58565b8152602001612c98612e58565b8152602001600081525090565b60606040519081016040528060008152602001600081526020016000151581525090565b828054828255906000526020600020908101928215612d42579160200282015b82811115612d415782518260006101000a81548173ffffffffffffffffffffffffffffffffffffffff021916908373ffffffffffffffffffffffffffffffffffffffff16021790555091602001919060010190612ce9565b5b509050612d4f9190612e7b565b5090565b82600a8101928215612dbf579160200282015b82811115612dbe5782518260006101000a81548173ffffffffffffffffffffffffffffffffffffffff021916908373ffffffffffffffffffffffffffffffffffffffff16021790555091602001919060010190612d66565b5b509050612dcc9190612e7b565b5090565b8260038101928215612dff579160200282015b82811115612dfe578251825591602001919060010190612de3565b5b509050612e0c9190612ebe565b5090565b61014060405190810160405280600a90602082028038833980820191505090505090565b61014060405190810160405280600a90602082028038833980820191505090505090565b606060405190810160405280600390602082028038833980820191505090505090565b612ebb91905b80821115612eb757600081816101000a81549073ffffffffffffffffffffffffffffffffffffffff021916905550600101612e81565b5090565b90565b612ee091905b80821115612edc576000816000905550600101612ec4565b5090565b905600a165627a7a723058204fb8ca910d3cb7416a9fce7e64ef16eac9648d672638a78fd7445d640618e44d0029",
  "source": "pragma solidity ^0.4.22;\n\ncontract FakeNewsMarket {\n\n    mapping(address => Reporter) reportersData; //address to email\n    address[] reporters;\n    uint256 minRep = 10;\n\n    struct Reporter {\n        bytes32 email;\n        uint reputation;\n        bool is_valid;\n    }\n\n    struct Bet {\n        uint vote;   // 0,1,2\n        uint amount;\n    }\n\n    struct Report {\n        uint vote;   // 0,1,2\n        uint reputation;\n        bool is_valid;\n    }\n\n    struct ArticleMarket{\n        address creator;\n        uint256 deadline;\n        bool is_open;\n        mapping(address => Bet) votes;\n        mapping(address => Report) reports;\n        address[] voters;\n        address[10] reporters;\n        uint[3] sum_votes;\n        uint[3] sum_reports;\n        uint[3] sum_bets;\n        uint[3] sum_rep; //sum of reputation\n        uint consensus;\n    }\n\n    event ArticleCreated(address indexed _creator, uint indexed _numberInArray, bytes32 indexed _articleHash);\n\n    mapping(bytes32 => ArticleMarket) public markets;\n    uint public numArticles = 0;\n\n    function createArticleMarket(string _article, uint256 _deadline) public returns (uint added){\n      bytes32 article_hash = keccak256(abi.encodePacked(_article));\n      address[10] memory reporterAddresses = assignReporters();\n      ArticleMarket memory new_market = ArticleMarket({\n          creator: msg.sender,\n          deadline: _deadline,\n          is_open: true,\n          sum_votes: [uint(0),uint(0),uint(0)],\n          sum_reports: [uint(0),uint(0),uint(0)],\n          sum_bets: [uint(0),uint(0),uint(0)],\n          sum_rep: [uint(0), uint(0), uint(0)],\n          voters: new address[](0),\n          reporters: reporterAddresses,\n          consensus: 256\n      });\n      markets[article_hash] = new_market;\n      Report memory report = Report({\n         is_valid: true,\n         vote: 0,\n         reputation: 0\n      });\n      for (uint i = 0; i < 10; i++){\n        markets[article_hash].reports[reporterAddresses[i]]= report; //initialize reports\n      }\n      emit ArticleCreated(msg.sender, numArticles, article_hash);\n      numArticles += 1;\n      return 1;\n    }\n\n\n    function getAssignedReporters(string _article) public view returns (address[10] assigned){\n      bytes32 article_hash = keccak256(abi.encodePacked(_article));\n      return markets[article_hash].reporters;\n    }\n\n    function vote(string _article, uint _vote) public payable returns (bool success) {\n        // vote function\n        // check if sender's address is already in array, if so, change existing\n        // add address and money to map\n        if (msg.value == 0) {\n            return false;\n        }\n        bytes32 article_hash = keccak256(abi.encodePacked(_article));\n        ArticleMarket storage market = markets[article_hash];\n        if (market.creator != 0) { //market exists\n            Bet storage curr_bet = market.votes[msg.sender];\n            if (curr_bet.amount > 0) {\n                //voter has already bet/voted\n                uint refund = 0;\n                if (msg.value > curr_bet.amount) {\n                    //send back difference (msg.value - curr_bet.amount)\n                    refund = msg.value - curr_bet.amount;\n\n                } else if (msg.value < curr_bet.amount) {\n                    //send back difference (curr_bet.amount - msg.value)\n                    refund = curr_bet.amount - msg.value;\n                } else if (msg.value == curr_bet.amount) {\n                    //reject new money\n                    refund = msg.value;\n                }\n                if (curr_bet.vote != _vote) { //voter is changing previous vote\n                    market.sum_votes[curr_bet.vote] -= 1;\n                    market.sum_bets[curr_bet.vote] -= curr_bet.amount;\n                    market.sum_bets[_vote] = msg.value;\n                } else {\n                    market.sum_bets[curr_bet.vote] += (msg.value - refund);\n                }\n                refund_voter(msg.sender, refund);\n\n            } else {\n                market.sum_bets[_vote] += msg.value;\n                market.voters.push(msg.sender);\n            }\n            market.sum_votes[_vote] += 1;\n            curr_bet.amount = msg.value;\n            curr_bet.vote = _vote;\n        }\n        return true;\n        }\n\n    function refund_voter(address _to, uint _amount) private {\n        _to.transfer(_amount);\n    }\n\n    function report(string _article, uint _vote, uint _rep) {\n      bytes32 hash = keccak256(abi.encodePacked(_article));\n      require(markets[hash].reports[msg.sender].is_valid == true);\n      require(markets[hash].reports[msg.sender].reputation == 0); //not reported yet\n      require(reportersData[msg.sender].reputation >= _rep);\n      reportersData[msg.sender].reputation -= _rep;\n      markets[hash].reports[msg.sender] = Report({\n        vote : _vote,\n        reputation : _rep,\n        is_valid: true\n      });\n      markets[hash].sum_reports[_vote] += 1;\n      markets[hash].sum_rep[_vote] += _rep;\n    }\n\n    function addReporter(address _address, string email) {\n      bytes32 hash = keccak256(abi.encodePacked(email));\n      reporters.push(_address);\n      reportersData[_address] = Reporter({\n        email : hash,\n        reputation: 15, //starting reputation\n        is_valid: true\n      });\n    }\n\n    function assignReporters() private view returns (address[10] assigned){\n        uint[10] memory indices;\n        if (reporters.length < 10) {\n            for (uint r = 0; r < reporters.length; r++){\n              assigned[r] = reporters[r]; //copy whatever reporters exist into addresses\n            }\n            return assigned;\n        }\n        uint i = 0;\n        while (i < 10) {\n          uint random_number = uint(blockhash(block.number-1))%reporters.length + 1;\n          bool exists = false;\n          for (uint j = 0; j < i; j++) {\n            if(indices[j] == random_number) {\n              exists = true;\n            }\n          }\n          if (!exists){\n            indices[i] = random_number;\n            assigned[i] = reporters[random_number];\n            i += 1;\n          }\n        }\n        return assigned;\n    }\n\n    function closeMarket(string _article) {\n        //TODO: check deadline\n        bytes32 hash = keccak256(abi.encodePacked(_article));\n        ArticleMarket storage market = markets[hash];\n        if (market.deadline < now && market.is_open) {\n          //determine winning answer from reporters\n          uint256 reports_0 = market.sum_reports[0];\n          uint256 reports_1 = market.sum_reports[1];\n          uint256 reports_2 = market.sum_reports[2];\n          //set vote 0 to be the winner\n          uint8 consensus = 0;\n          uint256 max_reports = reports_0;\n          uint256 rep_redistribute = market.sum_rep[1] + market.sum_rep[2];\n          if (max_reports < reports_1 && reports_1 < reports_2) {\n              //vote 2 is the winner\n              consensus = 2;\n              max_reports = reports_2;\n              rep_redistribute = market.sum_rep[0] + market.sum_rep[1];\n          } else if (max_reports < reports_1 && reports_1 > reports_2) {\n              //vote 1 is the winner\n              consensus = 1;\n              max_reports = reports_1;\n              rep_redistribute = market.sum_rep[0] + market.sum_rep[2];\n          }\n          //TODO: handle case where some of the # reports is equal\n          uint256 winnings = market.sum_bets[0] + market.sum_bets[1] + market.sum_bets[2];\n          uint256 reporter_winnings = winnings/10;\n          uint256 correct_voter_winnings = winnings - reporter_winnings;\n\n          distributeWinningsToReporters(market, consensus, reporter_winnings);\n          distributeWinningsToVoters(market, consensus, correct_voter_winnings);\n          distributeReputation(market, consensus, rep_redistribute);\n          //close market\n          market.is_open = false;\n          market.consensus = consensus;\n          }\n    }\n\n    function distributeWinningsToReporters(ArticleMarket storage _market, uint8 _consensus, uint256 _reporterWinnings) private {\n        uint256 num_reporters = _market.reporters.length;\n        for(uint i;i<num_reporters;i++) {\n            address reporter = _market.reporters[i];\n            Report storage inReport = _market.reports[reporter];\n            if (inReport.is_valid && inReport.vote == _consensus) {\n                reporter.transfer(_reporterWinnings/num_reporters);\n            }\n            i++;\n        }\n    }\n\n    function distributeWinningsToVoters(ArticleMarket storage _market, uint8 _consensus, uint256 _correctVoterWinnings) private {\n        uint256 num_voters = _market.voters.length;\n        for(uint i;i<num_voters;i++) {\n            address voter = _market.voters[i];\n            Bet storage voter_bet = _market.votes[voter];\n            if (voter_bet.vote == _consensus) {\n                uint256 voter_winnings = _correctVoterWinnings * voter_bet.amount / _market.sum_bets[_consensus];\n                voter.transfer(voter_winnings);\n            }\n            i++;\n        }\n    }\n\n    function removeReporter(address _reporter){\n      reportersData[_reporter].is_valid = false;\n      uint initLen = reporters.length;\n      uint idx  = 0;\n      while (idx < reporters.length){\n        if (reporters[idx] == _reporter) {\n          delete reporters[idx];\n          break;\n        }\n        idx += 1;\n      }\n      reporters[idx] = reporters[initLen-1];\n      delete reporters[initLen-1]; //copy last element into the empty spot and delete it\n    }\n\n    function distributeReputation(ArticleMarket storage _market, uint8 _consensus, uint256 _correctReporterWinnings) private {\n      uint256 num_reporters = _market.reporters.length;\n      for(uint i; i<num_reporters; i++) {\n          address reporter = _market.reporters[i];\n          Report storage inReport = _market.reports[reporter];\n          if (inReport.is_valid) {\n            if (inReport.vote == _consensus) {\n              uint256 rep_winnings = inReport.reputation + _correctReporterWinnings*inReport.reputation/_market.sum_rep[_consensus];\n              reportersData[reporter].reputation += rep_winnings;\n            }\n            else {\n              if (reportersData[reporter].reputation < minRep){\n                removeReporter(reporter);\n              }\n            }\n          }\n          i++;\n      }\n    }\n\n    function articleExists(string _article) public view returns (bool exists) {\n    bytes32 hash = keccak256(abi.encodePacked(_article));\n    if (markets[hash].creator > 0) {\n        return true;\n    }\n    }\n\n    function reporterExists(address _reporter) public view returns (bool exists) {\n      if (reportersData[_reporter].is_valid == true) {\n        return true;\n      }\n      return false;\n    }\n\n    function getVotes(string _article) public view returns (uint[3] sum_votes) {\n        bytes32 hash = keccak256(abi.encodePacked(_article));\n        if (markets[hash].creator > 0) {\n            return markets[hash].sum_votes;\n        }\n    }\n\n    function getBets(string _article) public view returns (uint[3] sum_bets) {\n        bytes32 hash = keccak256(abi.encodePacked(_article));\n        if (markets[hash].creator > 0) {\n            return markets[hash].sum_bets;\n        }\n    }\n\n    function getReports(string _article) public view returns (uint[3] sum_reports) {\n        bytes32 hash = keccak256(abi.encodePacked(_article));\n        if (markets[hash].creator > 0) {\n            return markets[hash].sum_reports;\n        }\n    }\n\n    function getReporterRep(address _reporter) public view returns (uint rep){\n      if (reportersData[_reporter].is_valid) {\n            return reportersData[_reporter].reputation;\n      }\n    }\n\n    function getRep(string _article) public view returns (uint[3] sum_rep) {\n        bytes32 hash = keccak256(abi.encodePacked(_article));\n        if (markets[hash].creator > 0) {\n            return markets[hash].sum_rep;\n        }\n    }\n\n  }\n",
  "sourcePath": "/home/avgupta/spring_1718/cs359B/cs359b-fake-news-detector/contracts/contracts/FakeNewsMarket.sol",
  "compiler": {
    "name": "solc",
    "version": "0.4.23+commit.124ca40d.Emscripten.clang"
  },
  "schemaVersion": "2.0.0",
  "updatedAt": "2018-06-06T06:55:01.194Z"
}