{
  "contractName": "FakeNewsMarket",
  "abi": [
    {
      "constant": true,
      "inputs": [
        {
          "name": "",
          "type": "bytes32"
        }
      ],
      "name": "markets",
      "outputs": [
        {
          "name": "creator",
          "type": "address"
        },
        {
          "name": "deadline",
          "type": "uint256"
        },
        {
          "name": "is_open",
          "type": "bool"
        }
      ],
      "payable": false,
      "stateMutability": "view",
      "type": "function"
    },
    {
      "constant": false,
      "inputs": [
        {
          "name": "_article",
          "type": "string"
        },
        {
          "name": "_deadline",
          "type": "uint256"
        }
      ],
      "name": "createArticleMarket",
      "outputs": [
        {
          "name": "",
          "type": "uint256"
        }
      ],
      "payable": false,
      "stateMutability": "nonpayable",
      "type": "function"
    },
    {
      "constant": false,
      "inputs": [
        {
          "name": "_article",
          "type": "string"
        },
        {
          "name": "_vote",
          "type": "uint256"
        }
      ],
      "name": "vote",
      "outputs": [
        {
          "name": "success",
          "type": "bool"
        }
      ],
      "payable": true,
      "stateMutability": "payable",
      "type": "function"
    },
    {
      "constant": false,
      "inputs": [
        {
          "name": "_article",
          "type": "string"
        },
        {
          "name": "_vote",
          "type": "uint256"
        },
        {
          "name": "_rep",
          "type": "uint256"
        }
      ],
      "name": "report",
      "outputs": [],
      "payable": false,
      "stateMutability": "nonpayable",
      "type": "function"
    },
    {
      "constant": false,
      "inputs": [
        {
          "name": "_address",
          "type": "address"
        },
        {
          "name": "email",
          "type": "string"
        }
      ],
      "name": "addReporter",
      "outputs": [],
      "payable": false,
      "stateMutability": "nonpayable",
      "type": "function"
    },
    {
      "constant": false,
      "inputs": [],
      "name": "assignReporters",
      "outputs": [
        {
          "name": "assigned",
          "type": "address[10]"
        }
      ],
      "payable": false,
      "stateMutability": "nonpayable",
      "type": "function"
    },
    {
      "constant": false,
      "inputs": [
        {
          "name": "_article",
          "type": "string"
        }
      ],
      "name": "closeMarket",
      "outputs": [],
      "payable": false,
      "stateMutability": "nonpayable",
      "type": "function"
    },
    {
      "constant": true,
      "inputs": [
        {
          "name": "_article",
          "type": "string"
        }
      ],
      "name": "articleExists",
      "outputs": [
        {
          "name": "exists",
          "type": "bool"
        }
      ],
      "payable": false,
      "stateMutability": "view",
      "type": "function"
    },
    {
      "constant": true,
      "inputs": [
        {
          "name": "_article",
          "type": "string"
        }
      ],
      "name": "getVotes",
      "outputs": [
        {
          "name": "sum_votes",
          "type": "uint256[3]"
        }
      ],
      "payable": false,
      "stateMutability": "view",
      "type": "function"
    },
    {
      "constant": true,
      "inputs": [
        {
          "name": "_article",
          "type": "string"
        }
      ],
      "name": "getBets",
      "outputs": [
        {
          "name": "sum_bets",
          "type": "uint256[3]"
        }
      ],
      "payable": false,
      "stateMutability": "view",
      "type": "function"
    }
  ],
  "bytecode": "0x608060405234801561001057600080fd5b50611c21806100206000396000f3006080604052600436106100a4576000357c0100000000000000000000000000000000000000000000000000000000900463ffffffff1680630fc26347146100a95780633717ebc2146101125780636b46dadc1461019b5780637564912b14610240578063805265e5146102c357806398617d9c146103685780639c1f4ef7146103e55780639d945dc414610438578063a6385803146104b9578063e7feba5c14610537575b600080fd5b3480156100b557600080fd5b50610110600480360381019080803590602001908201803590602001908080601f01602080910402602001604051908101604052809392919081815260200183838082843782019150505050505091929192905050506105be565b005b34801561011e57600080fd5b50610199600480360381019080803573ffffffffffffffffffffffffffffffffffffffff169060200190929190803590602001908201803590602001908080601f016020809104026020016040519081016040528093929190818152602001838380828437820191505050505050919291929050505061078e565b005b3480156101a757600080fd5b50610202600480360381019080803590602001908201803590602001908080601f01602080910402602001604051908101604052809392919081815260200183838082843782019150505050505091929192905050506108a7565b6040518082600360200280838360005b8381101561022d578082015181840152602081019050610212565b5050505090500191505060405180910390f35b34801561024c57600080fd5b5061026f60048036038101908080356000191690602001909291905050506109db565b604051808473ffffffffffffffffffffffffffffffffffffffff1673ffffffffffffffffffffffffffffffffffffffff16815260200183815260200182151515158152602001935050505060405180910390f35b3480156102cf57600080fd5b5061032a600480360381019080803590602001908201803590602001908080601f0160208091040260200160405190810160405280939291908181526020018383808284378201915050505050509192919290505050610a32565b6040518082600360200280838360005b8381101561035557808201518184015260208101905061033a565b5050505090500191505060405180910390f35b34801561037457600080fd5b506103e3600480360381019080803590602001908201803590602001908080601f01602080910402602001604051908101604052809392919081815260200183838082843782019150505050505091929192908035906020019092919080359060200190929190505050610b66565b005b3480156103f157600080fd5b506103fa610d02565b6040518082600a60200280838360005b8381101561042557808201518184015260208101905061040a565b5050505090500191505060405180910390f35b34801561044457600080fd5b5061049f600480360381019080803590602001908201803590602001908080601f0160208091040260200160405190810160405280939291908181526020018383808284378201915050505050509192919290505050610eed565b604051808215151515815260200191505060405180910390f35b61051d600480360381019080803590602001908201803590602001908080601f016020809104026020016040519081016040528093929190818152602001838380828437820191505050505050919291929080359060200190929190505050610fc2565b604051808215151515815260200191505060405180910390f35b34801561054357600080fd5b506105a8600480360381019080803590602001908201803590602001908080601f0160208091040260200160405190810160405280939291908181526020018383808284378201915050505050509192919290803590602001909291905050506112b3565b6040518082815260200191505060405180910390f35b6000806000806000806000806000808a6040518082805190602001908083835b60208310151561060357805182526020820191506020810190506020830392506105de565b6001836020036101000a03801982511681845116808217855250505050505090500191505060405180910390209950600260008b60001916600019168152602001908152602001600020985042896001015410801561067057508860020160009054906101000a900460ff165b156107815788600a01600060038110151561068757fe5b0154975088600a01600160038110151561069d57fe5b0154965088600a0160026003811015156106b357fe5b015495506000945087935086841080156106cc57508587105b156106dd57600294508593506106f9565b86841080156106eb57508587115b156106f857600194508693505b5b88600d01600260038110151561070b57fe5b015489600d01600160038110151561071f57fe5b01548a600d01600060038110151561073357fe5b015401019250600a8381151561074557fe5b04915081830390506107588986846116e7565b61076389868361181b565b60008960020160006101000a81548160ff0219169083151502179055505b5050505050505050505050565b6000816040518082805190602001908083835b6020831015156107c657805182526020820191506020810190506020830392506107a1565b6001836020036101000a0380198251168184511680821785525050505050509050019150506040518091039020905060018390806001815401808255809150509060018203906000526020600020016000909192909190916101000a81548173ffffffffffffffffffffffffffffffffffffffff021916908373ffffffffffffffffffffffffffffffffffffffff16021790555050806000808573ffffffffffffffffffffffffffffffffffffffff1673ffffffffffffffffffffffffffffffffffffffff1681526020019081526020016000208160001916905550505050565b6108af6119a1565b6000826040518082805190602001908083835b6020831015156108e757805182526020820191506020810190506020830392506108c2565b6001836020036101000a03801982511681845116808217855250505050505090500191505060405180910390209050600060026000836000191660001916815260200190815260200160002060000160009054906101000a900473ffffffffffffffffffffffffffffffffffffffff1673ffffffffffffffffffffffffffffffffffffffff1611156109d457600260008260001916600019168152602001908152602001600020600d016003806020026040519081016040528092919082600380156109c8576020028201915b8154815260200190600101908083116109b4575b505050505091506109d5565b5b50919050565b60026020528060005260406000206000915090508060000160009054906101000a900473ffffffffffffffffffffffffffffffffffffffff16908060010154908060020160009054906101000a900460ff16905083565b610a3a6119a1565b6000826040518082805190602001908083835b602083101515610a725780518252602082019150602081019050602083039250610a4d565b6001836020036101000a03801982511681845116808217855250505050505090500191505060405180910390209050600060026000836000191660001916815260200190815260200160002060000160009054906101000a900473ffffffffffffffffffffffffffffffffffffffff1673ffffffffffffffffffffffffffffffffffffffff161115610b5f57600260008260001916600019168152602001908152602001600020600701600380602002604051908101604052809291908260038015610b53576020028201915b815481526020019060010190808311610b3f575b50505050509150610b60565b5b50919050565b6000836040518082805190602001908083835b602083101515610b9e5780518252602082019150602081019050602083039250610b79565b6001836020036101000a038019825116818451168082178552505050505050905001915050604051809103902090506001151560026000836000191660001916815260200190815260200160002060040160003373ffffffffffffffffffffffffffffffffffffffff1673ffffffffffffffffffffffffffffffffffffffff16815260200190815260200160002060020160009054906101000a900460ff161515141515610c4b57600080fd5b6060604051908101604052808481526020018381526020016001151581525060026000836000191660001916815260200190815260200160002060040160003373ffffffffffffffffffffffffffffffffffffffff1673ffffffffffffffffffffffffffffffffffffffff168152602001908152602001600020600082015181600001556020820151816001015560408201518160020160006101000a81548160ff02191690831515021790555090505050505050565b610d0a6119c4565b610d126119e8565b6000806000806000600a6001805490501015610dce57600094505b600180549050851015610dc657600185815481101515610d4957fe5b9060005260206000200160009054906101000a900473ffffffffffffffffffffffffffffffffffffffff168786600a81101515610d8257fe5b602002019073ffffffffffffffffffffffffffffffffffffffff16908173ffffffffffffffffffffffffffffffffffffffff16815250508480600101955050610d2d565b869650610ee4565b600093505b600a841015610ee05760018080549050600143034060019004811515610df557fe5b0601925060009150600090505b83811015610e3657828682600a81101515610e1957fe5b60200201511415610e2957600191505b8080600101915050610e02565b811515610edb57828685600a81101515610e4c57fe5b602002018181525050600183815481101515610e6457fe5b9060005260206000200160009054906101000a900473ffffffffffffffffffffffffffffffffffffffff168785600a81101515610e9d57fe5b602002019073ffffffffffffffffffffffffffffffffffffffff16908173ffffffffffffffffffffffffffffffffffffffff16815250506001840193505b610dd3565b8696505b50505050505090565b600080826040518082805190602001908083835b602083101515610f265780518252602082019150602081019050602083039250610f01565b6001836020036101000a03801982511681845116808217855250505050505090500191505060405180910390209050600060026000836000191660001916815260200190815260200160002060000160009054906101000a900473ffffffffffffffffffffffffffffffffffffffff1673ffffffffffffffffffffffffffffffffffffffff161115610fbb5760019150610fbc565b5b50919050565b600080600080600080341415610fdb57600094506112a9565b866040518082805190602001908083835b6020831015156110115780518252602082019150602081019050602083039250610fec565b6001836020036101000a03801982511681845116808217855250505050505090500191505060405180910390209350600260008560001916600019168152602001908152602001600020925060008360000160009054906101000a900473ffffffffffffffffffffffffffffffffffffffff1673ffffffffffffffffffffffffffffffffffffffff161415156112a4578260030160003373ffffffffffffffffffffffffffffffffffffffff1673ffffffffffffffffffffffffffffffffffffffff16815260200190815260200160002091506000826001015411156111e75760009050816001015434111561110f5781600101543403905061113b565b81600101543410156111295734826001015403905061113a565b8160010154341415611139573490505b5b5b8582600001541415156111b157600183600701836000015460038110151561115f57fe5b0160008282540392505081905550816001015483600d01836000015460038110151561118757fe5b01600082825403925050819055503483600d01876003811015156111a757fe5b01819055506111d8565b80340383600d0183600001546003811015156111c957fe5b01600082825401925050819055505b6111e23382611956565b611270565b3483600d01876003811015156111f957fe5b0160008282540192505081905550826005013390806001815401808255809150509060018203906000526020600020016000909192909190916101000a81548173ffffffffffffffffffffffffffffffffffffffff021916908373ffffffffffffffffffffffffffffffffffffffff160217905550505b6001836007018760038110151561128357fe5b01600082825401925050819055503482600101819055508582600001819055505b600194505b5050505092915050565b6000806112be611a0c565b6112c66119c4565b6112ce611a7c565b6000876040518082805190602001908083835b60208310151561130657805182526020820191506020810190506020830392506112e1565b6001836020036101000a03801982511681845116808217855250505050505090500191505060405180910390209450610100604051908101604052803373ffffffffffffffffffffffffffffffffffffffff168152602001888152602001600115158152602001600060405190808252806020026020018201604052801561139d5781602001602082028038833980820191505090505b50815260200160006040519080825280602002602001820160405280156113d35781602001602082028038833980820191505090505b5081526020016060604051908101604052806000815260200160008152602001600081525081526020016060604051908101604052806000815260200160008152602001600081525081526020016060604051908101604052806000815260200160008152602001600081525081525093508360026000876000191660001916815260200190815260200160002060008201518160000160006101000a81548173ffffffffffffffffffffffffffffffffffffffff021916908373ffffffffffffffffffffffffffffffffffffffff1602179055506020820151816001015560408201518160020160006101000a81548160ff02191690831515021790555060608201518160050190805190602001906114ee929190611aa0565b50608082015181600601908051906020019061150b929190611aa0565b5060a082015181600701906003611523929190611b2a565b5060c082015181600a0190600361153b929190611b2a565b5060e082015181600d01906003611553929190611b2a565b5090505061155f610d02565b92506060604051908101604052806000815260200160008152602001600115158152509150600090505b600a8110156116d8576002600086600019166000191681526020019081526020016000206006018382600a811015156115be57fe5b602002015190806001815401808255809150509060018203906000526020600020016000909192909190916101000a81548173ffffffffffffffffffffffffffffffffffffffff021916908373ffffffffffffffffffffffffffffffffffffffff160217905550508160026000876000191660001916815260200190815260200160002060040160008584600a8110151561165557fe5b602002015173ffffffffffffffffffffffffffffffffffffffff1673ffffffffffffffffffffffffffffffffffffffff168152602001908152602001600020600082015181600001556020820151816001015560408201518160020160006101000a81548160ff0219169083151502179055509050508080600101915050611589565b60019550505050505092915050565b600080600080866006018054905093505b8383101561181257866006018381548110151561171157fe5b9060005260206000200160009054906101000a900473ffffffffffffffffffffffffffffffffffffffff1691508660040160008373ffffffffffffffffffffffffffffffffffffffff1673ffffffffffffffffffffffffffffffffffffffff16815260200190815260200160002090508060020160009054906101000a900460ff1680156117a557508560ff168160000154145b156117fd578173ffffffffffffffffffffffffffffffffffffffff166108fc85878115156117cf57fe5b049081150290604051600060405180830381858888f193505050501580156117fb573d6000803e3d6000fd5b505b828060010193505082806001019350506116f8565b50505050505050565b6000806000806000876005018054905094505b8484101561194c57876005018481548110151561184757fe5b9060005260206000200160009054906101000a900473ffffffffffffffffffffffffffffffffffffffff1692508760030160008473ffffffffffffffffffffffffffffffffffffffff1673ffffffffffffffffffffffffffffffffffffffff16815260200190815260200160002091508660ff16826000015414156119375787600d018760ff166003811015156118da57fe5b0154826001015487028115156118ec57fe5b0490508273ffffffffffffffffffffffffffffffffffffffff166108fc829081150290604051600060405180830381858888f19350505050158015611935573d6000803e3d6000fd5b505b8380600101945050838060010194505061182e565b5050505050505050565b8173ffffffffffffffffffffffffffffffffffffffff166108fc829081150290604051600060405180830381858888f1935050505015801561199c573d6000803e3d6000fd5b505050565b606060405190810160405280600390602082028038833980820191505090505090565b61014060405190810160405280600a90602082028038833980820191505090505090565b61014060405190810160405280600a90602082028038833980820191505090505090565b6101c060405190810160405280600073ffffffffffffffffffffffffffffffffffffffff168152602001600081526020016000151581526020016060815260200160608152602001611a5c611b6a565b8152602001611a69611b6a565b8152602001611a76611b6a565b81525090565b60606040519081016040528060008152602001600081526020016000151581525090565b828054828255906000526020600020908101928215611b19579160200282015b82811115611b185782518260006101000a81548173ffffffffffffffffffffffffffffffffffffffff021916908373ffffffffffffffffffffffffffffffffffffffff16021790555091602001919060010190611ac0565b5b509050611b269190611b8d565b5090565b8260038101928215611b59579160200282015b82811115611b58578251825591602001919060010190611b3d565b5b509050611b669190611bd0565b5090565b606060405190810160405280600390602082028038833980820191505090505090565b611bcd91905b80821115611bc957600081816101000a81549073ffffffffffffffffffffffffffffffffffffffff021916905550600101611b93565b5090565b90565b611bf291905b80821115611bee576000816000905550600101611bd6565b5090565b905600a165627a7a7230582072558d048a7fb273808bc4a8836de4558ffa29aa0b5aff5086233942125f7dd50029",
  "source": "pragma solidity ^0.4.22;\n\ncontract FakeNewsMarket {\n\n    mapping(address => bytes32) reportersEmails; //address to email\n    address[] reporters;\n\n    struct Bet {\n        uint vote;   // 0,1,2\n        uint amount;\n    }\n\n    struct Report {\n        uint vote;   // 0,1,2\n        uint reputation;\n        bool is_valid;\n    }\n\n    struct ArticleMarket{\n        address creator;\n        uint256 deadline;\n        bool is_open;\n        mapping(address => Bet) votes;\n        mapping(address => Report) reports;\n        address[] voters;\n        address[] reporters;\n        uint[3] sum_votes;\n        uint[3] sum_reports;\n        uint[3] sum_bets;\n    }\n\n    /*event ArticleCreated(address indexed _creator, uint indexed _numberInArray, bytes32 indexed _articleHash);*/\n\n    mapping(bytes32 => ArticleMarket) public markets;\n\n    function createArticleMarket(string _article, uint256 _deadline) public returns (uint256){\n      bytes32 article_hash = keccak256(_article);\n      ArticleMarket memory new_market = ArticleMarket({\n          creator: msg.sender,\n          deadline: _deadline,\n          is_open: true,\n          sum_votes: [uint(0),uint(0),uint(0)],\n          sum_reports: [uint(0),uint(0),uint(0)],\n          sum_bets: [uint(0),uint(0),uint(0)],\n          voters: new address[](0),\n          reporters: new address[](0)\n      });\n      markets[article_hash] = new_market;\n      address[10] memory reporterAddresses = assignReporters();\n      Report memory report = Report({\n         is_valid: true,\n         vote: 0,\n         reputation: 0\n      });\n      for (uint i = 0; i < 10; i++){\n        markets[article_hash].reporters.push(reporterAddresses[i]);\n        markets[article_hash].reports[reporterAddresses[i]]= report; //initialize reports\n      }\n\n    /*  emit ArticleCreated(msg.sender, initLen, article_hash);*/\n      return 1;\n    }\n\n    function vote(string _article, uint _vote) public payable returns (bool success) {\n        // vote function\n        // check if sender's address is already in array, if so, change existing\n        // add address and money to map\n        if (msg.value == 0) {\n            return false;\n        }\n        bytes32 article_hash = keccak256(_article);\n        ArticleMarket storage market = markets[article_hash];\n        if (market.creator != 0) { //market exists\n            Bet storage curr_bet = market.votes[msg.sender];\n            if (curr_bet.amount > 0) {\n                //voter has already bet/voted\n                uint refund = 0;\n                if (msg.value > curr_bet.amount) {\n                    //send back difference (msg.value - curr_bet.amount)\n                    refund = msg.value - curr_bet.amount;\n\n                } else if (msg.value < curr_bet.amount) {\n                    //send back difference (curr_bet.amount - msg.value)\n                    refund = curr_bet.amount - msg.value;\n                } else if (msg.value == curr_bet.amount) {\n                    //reject new money\n                    refund = msg.value;\n                }\n                if (curr_bet.vote != _vote) { //voter is changing previous vote\n                    market.sum_votes[curr_bet.vote] -= 1;\n                    market.sum_bets[curr_bet.vote] -= curr_bet.amount;\n                    market.sum_bets[_vote] = msg.value;\n                } else {\n                    market.sum_bets[curr_bet.vote] += (msg.value - refund);\n                }\n                refund_voter(msg.sender, refund);\n\n            } else {\n                market.sum_bets[_vote] += msg.value;\n                market.voters.push(msg.sender);\n            }\n            market.sum_votes[_vote] += 1;\n            curr_bet.amount = msg.value;\n            curr_bet.vote = _vote;\n        }\n        return true;\n        }\n\n    function refund_voter(address _to, uint _amount) private {\n        _to.transfer(_amount);\n    }\n\n    function report(string _article, uint _vote, uint _rep) {\n      bytes32 hash = keccak256(_article);\n      require(markets[hash].reports[msg.sender].is_valid == true);\n      markets[hash].reports[msg.sender] = Report({\n        vote : _vote,\n        reputation : _rep,\n        is_valid: true\n      });\n      //what to do if updating reputation?\n    }\n\n    function addReporter(address _address, string email) {\n      bytes32 hash = keccak256(email);\n      reporters.push(_address);\n      reportersEmails[_address] = hash;\n    }\n\n    function assignReporters() public returns (address[10] assigned){\n        uint[10] memory indices;\n        if (reporters.length < 10) {\n            for (uint r = 0; r < reporters.length; r++){\n              assigned[r] = reporters[r]; //copy whatever reporters exist into addresses\n            }\n            return assigned;\n        }\n        uint i = 0;\n        while (i < 10) {\n          uint random_number = uint(blockhash(block.number-1))%reporters.length + 1;\n          bool exists = false;\n          for (uint j = 0; j < i; j++) {\n            if(indices[j] == random_number) {\n              exists = true;\n            }\n          }\n          if (!exists){\n            indices[i] = random_number;\n            assigned[i] = reporters[random_number];\n            i += 1;\n          }\n        }\n        return assigned;\n    }\n\n    function closeMarket(string _article) {\n        //TODO: check deadline\n        bytes32 hash = keccak256(_article);\n        ArticleMarket storage market = markets[hash];\n        if (market.deadline < now && market.is_open) {\n        //determine winning answer from reporters\n        uint256 reports_0 = market.sum_reports[0];\n        uint256 reports_1 = market.sum_reports[1];\n        uint256 reports_2 = market.sum_reports[2];\n        //set vote 0 to be the winner\n        uint8 consensus = 0;\n        uint256 max_reports = reports_0;\n        if (max_reports < reports_1 && reports_1 < reports_2) {\n            //vote 2 is the winner\n            consensus = 2;\n            max_reports = reports_2;\n        } else if (max_reports < reports_1 && reports_1 > reports_2) {\n            //vote 1 is the winner\n            consensus = 1;\n            max_reports = reports_1;\n        }\n        //TODO: handle case where some of the # reports is equal\n        uint256 winnings = market.sum_bets[0] + market.sum_bets[1] + market.sum_bets[2];\n        uint256 reporter_winnings = winnings/10;\n        uint256 correct_voter_winnings = winnings - reporter_winnings;\n        distributeWinningsToReporters(market, consensus, reporter_winnings);\n        distributeWinningsToVoters(market, consensus, correct_voter_winnings);\n        //close market\n        market.is_open = false;\n        }\n    }\n\n    function distributeWinningsToReporters(ArticleMarket storage _market, uint8 _consensus, uint256 _reporterWinnings) private {\n        uint256 num_reporters = _market.reporters.length;\n        for(uint i;i<num_reporters;i++) {\n            address reporter = _market.reporters[i];\n            Report storage report = _market.reports[reporter];\n            if (report.is_valid && report.vote == _consensus) {\n                reporter.transfer(_reporterWinnings/num_reporters);\n            }\n            i++;\n        }\n    }\n\n    function distributeWinningsToVoters(ArticleMarket storage _market, uint8 _consensus, uint256 _correctVoterWinnings) private {\n        uint256 num_voters = _market.voters.length;\n        for(uint i;i<num_voters;i++) {\n            address voter = _market.voters[i];\n            Bet storage voter_bet = _market.votes[voter];\n            if (voter_bet.vote == _consensus) {\n                uint256 voter_winnings = _correctVoterWinnings * voter_bet.amount / _market.sum_bets[_consensus];\n                voter.transfer(voter_winnings);\n            }\n            i++;\n        }\n    }\n\n    function articleExists(string _article) public view returns (bool exists) {\n    bytes32 hash = keccak256(_article);\n    if (markets[hash].creator > 0) {\n        return true;\n    }\n    }\n\n    function getVotes(string _article) public view returns (uint[3] sum_votes) {\n        bytes32 hash = keccak256(_article);\n        if (markets[hash].creator > 0) {\n            return markets[hash].sum_votes;\n        }\n    }\n\n    function getBets(string _article) public view returns (uint[3] sum_bets) {\n        bytes32 hash = keccak256(_article);\n        if (markets[hash].creator > 0) {\n            return markets[hash].sum_bets;\n        }\n    }\n\n\n  }\n",
  "sourcePath": "/home/avgupta/spring_1718/cs359B/cs359b-fake-news-detector/contracts/contracts/FakeNewsMarket.sol",
  "compiler": {
    "name": "solc",
    "version": "0.4.23+commit.124ca40d.Emscripten.clang"
  },
  "schemaVersion": "2.0.0",
  "updatedAt": "2018-06-01T04:40:59.159Z"
}